{
	"backend/ABI/Forwarder.sol": {
		"Forwarder": {
			"abi": [
				{
					"inputs": [
						{
							"internalType": "string",
							"name": "name",
							"type": "string"
						},
						{
							"internalType": "string",
							"name": "version",
							"type": "string"
						}
					],
					"stateMutability": "nonpayable",
					"type": "constructor"
				},
				{
					"anonymous": false,
					"inputs": [
						{
							"indexed": true,
							"internalType": "address",
							"name": "sender",
							"type": "address"
						}
					],
					"name": "AddressRemovedFromWhitelist",
					"type": "event"
				},
				{
					"anonymous": false,
					"inputs": [
						{
							"indexed": true,
							"internalType": "address",
							"name": "sender",
							"type": "address"
						}
					],
					"name": "AddressWhitelisted",
					"type": "event"
				},
				{
					"anonymous": false,
					"inputs": [
						{
							"indexed": true,
							"internalType": "address",
							"name": "from",
							"type": "address"
						},
						{
							"indexed": true,
							"internalType": "address",
							"name": "to",
							"type": "address"
						},
						{
							"indexed": true,
							"internalType": "bytes",
							"name": "data",
							"type": "bytes"
						}
					],
					"name": "MetaTransactionExecuted",
					"type": "event"
				},
				{
					"anonymous": false,
					"inputs": [
						{
							"indexed": true,
							"internalType": "address",
							"name": "previousOwner",
							"type": "address"
						},
						{
							"indexed": true,
							"internalType": "address",
							"name": "newOwner",
							"type": "address"
						}
					],
					"name": "OwnershipTransferred",
					"type": "event"
				},
				{
					"anonymous": false,
					"inputs": [
						{
							"indexed": false,
							"internalType": "address",
							"name": "account",
							"type": "address"
						}
					],
					"name": "Paused",
					"type": "event"
				},
				{
					"anonymous": false,
					"inputs": [
						{
							"indexed": false,
							"internalType": "address",
							"name": "account",
							"type": "address"
						}
					],
					"name": "Unpaused",
					"type": "event"
				},
				{
					"inputs": [],
					"name": "DOMAIN_SEPARATOR",
					"outputs": [
						{
							"internalType": "bytes32",
							"name": "",
							"type": "bytes32"
						}
					],
					"stateMutability": "view",
					"type": "function"
				},
				{
					"inputs": [
						{
							"internalType": "address",
							"name": "sender",
							"type": "address"
						}
					],
					"name": "addSenderToWhitelist",
					"outputs": [],
					"stateMutability": "nonpayable",
					"type": "function"
				},
				{
					"inputs": [
						{
							"components": [
								{
									"internalType": "address",
									"name": "from",
									"type": "address"
								},
								{
									"internalType": "address",
									"name": "to",
									"type": "address"
								},
								{
									"internalType": "uint256",
									"name": "value",
									"type": "uint256"
								},
								{
									"internalType": "uint256",
									"name": "gas",
									"type": "uint256"
								},
								{
									"internalType": "uint256",
									"name": "nonce",
									"type": "uint256"
								},
								{
									"internalType": "bytes",
									"name": "data",
									"type": "bytes"
								}
							],
							"internalType": "struct Forwarder.ForwardRequest",
							"name": "req",
							"type": "tuple"
						},
						{
							"internalType": "bytes",
							"name": "signature",
							"type": "bytes"
						}
					],
					"name": "execute",
					"outputs": [
						{
							"internalType": "bool",
							"name": "",
							"type": "bool"
						},
						{
							"internalType": "bytes",
							"name": "",
							"type": "bytes"
						}
					],
					"stateMutability": "payable",
					"type": "function"
				},
				{
					"inputs": [
						{
							"internalType": "address",
							"name": "from",
							"type": "address"
						}
					],
					"name": "getNonce",
					"outputs": [
						{
							"internalType": "uint256",
							"name": "",
							"type": "uint256"
						}
					],
					"stateMutability": "view",
					"type": "function"
				},
				{
					"inputs": [
						{
							"internalType": "address",
							"name": "sender",
							"type": "address"
						}
					],
					"name": "isWhitelisted",
					"outputs": [
						{
							"internalType": "bool",
							"name": "",
							"type": "bool"
						}
					],
					"stateMutability": "view",
					"type": "function"
				},
				{
					"inputs": [
						{
							"internalType": "address payable",
							"name": "payoutAddress",
							"type": "address"
						}
					],
					"name": "killForwarder",
					"outputs": [],
					"stateMutability": "nonpayable",
					"type": "function"
				},
				{
					"inputs": [],
					"name": "owner",
					"outputs": [
						{
							"internalType": "address",
							"name": "",
							"type": "address"
						}
					],
					"stateMutability": "view",
					"type": "function"
				},
				{
					"inputs": [],
					"name": "pause",
					"outputs": [],
					"stateMutability": "nonpayable",
					"type": "function"
				},
				{
					"inputs": [],
					"name": "paused",
					"outputs": [
						{
							"internalType": "bool",
							"name": "",
							"type": "bool"
						}
					],
					"stateMutability": "view",
					"type": "function"
				},
				{
					"inputs": [
						{
							"internalType": "address",
							"name": "sender",
							"type": "address"
						}
					],
					"name": "removeSenderFromWhitelist",
					"outputs": [],
					"stateMutability": "nonpayable",
					"type": "function"
				},
				{
					"inputs": [],
					"name": "renounceOwnership",
					"outputs": [],
					"stateMutability": "nonpayable",
					"type": "function"
				},
				{
					"inputs": [
						{
							"internalType": "address",
							"name": "newOwner",
							"type": "address"
						}
					],
					"name": "transferOwnership",
					"outputs": [],
					"stateMutability": "nonpayable",
					"type": "function"
				},
				{
					"inputs": [],
					"name": "unpause",
					"outputs": [],
					"stateMutability": "nonpayable",
					"type": "function"
				},
				{
					"inputs": [
						{
							"components": [
								{
									"internalType": "address",
									"name": "from",
									"type": "address"
								},
								{
									"internalType": "address",
									"name": "to",
									"type": "address"
								},
								{
									"internalType": "uint256",
									"name": "value",
									"type": "uint256"
								},
								{
									"internalType": "uint256",
									"name": "gas",
									"type": "uint256"
								},
								{
									"internalType": "uint256",
									"name": "nonce",
									"type": "uint256"
								},
								{
									"internalType": "bytes",
									"name": "data",
									"type": "bytes"
								}
							],
							"internalType": "struct Forwarder.ForwardRequest",
							"name": "req",
							"type": "tuple"
						},
						{
							"internalType": "bytes",
							"name": "signature",
							"type": "bytes"
						}
					],
					"name": "verify",
					"outputs": [
						{
							"internalType": "bool",
							"name": "",
							"type": "bool"
						}
					],
					"stateMutability": "view",
					"type": "function"
				}
			],
			"devdoc": {
				"author": "Pascal Marco Caversaccio, pascal.caversaccio@hotmail.ch",
				"details": "Simple forwarder for extensible meta-transaction forwarding.",
				"kind": "dev",
				"methods": {
					"DOMAIN_SEPARATOR()": {
						"details": "Returns the domain separator used in the encoding of the signature for `execute`, as defined by {EIP712}. See https://eips.ethereum.org/EIPS/eip-712"
					},
					"addSenderToWhitelist(address)": {
						"details": "Only whitelisted addresses are allowed to broadcast meta-transactions."
					},
					"execute((address,address,uint256,uint256,uint256,bytes),bytes)": {
						"details": "Main function; executes the meta-transaction via a low-level call."
					},
					"getNonce(address)": {
						"details": "Retrieves the on-chain tracked nonce of an EOA making the request."
					},
					"isWhitelisted(address)": {
						"details": "Retrieves the information whether an address is whitelisted or not."
					},
					"killForwarder(address)": {
						"details": "Destroys the Forwarder contract and transfers all ether to a pre-defined payout address."
					},
					"owner()": {
						"details": "Returns the address of the current owner."
					},
					"pause()": {
						"details": "Triggers stopped state. Requirements: The contract must not be paused."
					},
					"paused()": {
						"details": "Returns true if the contract is paused, and false otherwise."
					},
					"removeSenderFromWhitelist(address)": {
						"details": "Removes a whitelisted address."
					},
					"renounceOwnership()": {
						"details": "Leaves the contract without owner. It will not be possible to call `onlyOwner` functions anymore. Can only be called by the current owner. NOTE: Renouncing ownership will leave the contract without an owner, thereby removing any functionality that is only available to the owner."
					},
					"transferOwnership(address)": {
						"details": "Transfers ownership of the contract to a new account (`newOwner`). Can only be called by the current owner."
					},
					"unpause()": {
						"details": "Returns to normal state. Requirements: The contract must be paused."
					},
					"verify((address,address,uint256,uint256,uint256,bytes),bytes)": {
						"details": "Verifies the signature based on typed structured data.  See https://eips.ethereum.org/EIPS/eip-712"
					}
				},
				"title": "Forwarder Smart Contract",
				"version": 1
			},
			"evm": {
				"assembly": "    /* \"backend/ABI/Forwarder.sol\":601:5501  contract Forwarder is Ownable, Pausable, EIP712 {... */\n  mstore(0x40, 0x0140)\n    /* \"backend/ABI/Forwarder.sol\":1655:1820  constructor(string memory name, string memory version) EIP712(name, version) {... */\n  callvalue\n  dup1\n  iszero\n  tag_1\n  jumpi\n  0x00\n  dup1\n  revert\ntag_1:\n  pop\n  mload(0x40)\n  sub(codesize, bytecodeSize)\n  dup1\n  bytecodeSize\n  dup4\n  codecopy\n  dup2\n  dup2\n  add\n  0x40\n  mstore\n  dup2\n  add\n  swap1\n  tag_2\n  swap2\n  swap1\n  tag_3\n  jump\t// in\ntag_2:\n    /* \"backend/ABI/Forwarder.sol\":1717:1721  name */\n  dup2\n    /* \"backend/ABI/Forwarder.sol\":1723:1730  version */\n  dup2\n    /* \"@openzeppelin/contracts/access/Ownable.sol\":936:968  _transferOwnership(_msgSender()) */\n  tag_9\n    /* \"@openzeppelin/contracts/access/Ownable.sol\":955:967  _msgSender() */\n  tag_10\n    /* \"@openzeppelin/contracts/access/Ownable.sol\":955:965  _msgSender */\n  shl(0x20, tag_11)\n    /* \"@openzeppelin/contracts/access/Ownable.sol\":955:967  _msgSender() */\n  0x20\n  shr\n  jump\t// in\ntag_10:\n    /* \"@openzeppelin/contracts/access/Ownable.sol\":936:954  _transferOwnership */\n  shl(0x20, tag_12)\n    /* \"@openzeppelin/contracts/access/Ownable.sol\":936:968  _transferOwnership(_msgSender()) */\n  0x20\n  shr\n  jump\t// in\ntag_9:\n    /* \"@openzeppelin/contracts/security/Pausable.sol\":1006:1011  false */\n  0x00\n    /* \"@openzeppelin/contracts/security/Pausable.sol\":996:1003  _paused */\n  dup1\n  0x14\n    /* \"@openzeppelin/contracts/security/Pausable.sol\":996:1011  _paused = false */\n  0x0100\n  exp\n  dup2\n  sload\n  dup2\n  0xff\n  mul\n  not\n  and\n  swap1\n  dup4\n  iszero\n  iszero\n  mul\n  or\n  swap1\n  sstore\n  pop\n    /* \"@openzeppelin/contracts/utils/cryptography/draft-EIP712.sol\":2520:2538  bytes32 hashedName */\n  0x00\n    /* \"@openzeppelin/contracts/utils/cryptography/draft-EIP712.sol\":2557:2561  name */\n  dup3\n    /* \"@openzeppelin/contracts/utils/cryptography/draft-EIP712.sol\":2541:2563  keccak256(bytes(name)) */\n  dup1\n  mload\n  swap1\n  0x20\n  add\n  keccak256\n    /* \"@openzeppelin/contracts/utils/cryptography/draft-EIP712.sol\":2520:2563  bytes32 hashedName = keccak256(bytes(name)) */\n  swap1\n  pop\n    /* \"@openzeppelin/contracts/utils/cryptography/draft-EIP712.sol\":2573:2594  bytes32 hashedVersion */\n  0x00\n    /* \"@openzeppelin/contracts/utils/cryptography/draft-EIP712.sol\":2613:2620  version */\n  dup3\n    /* \"@openzeppelin/contracts/utils/cryptography/draft-EIP712.sol\":2597:2622  keccak256(bytes(version)) */\n  dup1\n  mload\n  swap1\n  0x20\n  add\n  keccak256\n    /* \"@openzeppelin/contracts/utils/cryptography/draft-EIP712.sol\":2573:2622  bytes32 hashedVersion = keccak256(bytes(version)) */\n  swap1\n  pop\n    /* \"@openzeppelin/contracts/utils/cryptography/draft-EIP712.sol\":2632:2648  bytes32 typeHash */\n  0x00\n    /* \"@openzeppelin/contracts/utils/cryptography/draft-EIP712.sol\":2651:2768  keccak256(... */\n  0x8b73c3c69bb8fe3d512ecc4cf759cc79239f7b179b0ffacaa9a75d522b39400f\n    /* \"@openzeppelin/contracts/utils/cryptography/draft-EIP712.sol\":2632:2768  bytes32 typeHash = keccak256(... */\n  swap1\n  pop\n    /* \"@openzeppelin/contracts/utils/cryptography/draft-EIP712.sol\":2793:2803  hashedName */\n  dup3\n    /* \"@openzeppelin/contracts/utils/cryptography/draft-EIP712.sol\":2778:2803  _HASHED_NAME = hashedName */\n  0xe0\n  dup2\n  dup2\n  mstore\n  pop\n  pop\n    /* \"@openzeppelin/contracts/utils/cryptography/draft-EIP712.sol\":2831:2844  hashedVersion */\n  dup2\n    /* \"@openzeppelin/contracts/utils/cryptography/draft-EIP712.sol\":2813:2844  _HASHED_VERSION = hashedVersion */\n  0x0100\n  dup2\n  dup2\n  mstore\n  pop\n  pop\n    /* \"@openzeppelin/contracts/utils/cryptography/draft-EIP712.sol\":2873:2886  block.chainid */\n  chainid\n    /* \"@openzeppelin/contracts/utils/cryptography/draft-EIP712.sol\":2854:2886  _CACHED_CHAIN_ID = block.chainid */\n  0xa0\n  dup2\n  dup2\n  mstore\n  pop\n  pop\n    /* \"@openzeppelin/contracts/utils/cryptography/draft-EIP712.sol\":2923:2981  _buildDomainSeparator(typeHash, hashedName, hashedVersion) */\n  tag_15\n    /* \"@openzeppelin/contracts/utils/cryptography/draft-EIP712.sol\":2945:2953  typeHash */\n  dup2\n    /* \"@openzeppelin/contracts/utils/cryptography/draft-EIP712.sol\":2955:2965  hashedName */\n  dup5\n    /* \"@openzeppelin/contracts/utils/cryptography/draft-EIP712.sol\":2967:2980  hashedVersion */\n  dup5\n    /* \"@openzeppelin/contracts/utils/cryptography/draft-EIP712.sol\":2923:2944  _buildDomainSeparator */\n  shl(0x20, tag_16)\n    /* \"@openzeppelin/contracts/utils/cryptography/draft-EIP712.sol\":2923:2981  _buildDomainSeparator(typeHash, hashedName, hashedVersion) */\n  0x20\n  shr\n  jump\t// in\ntag_15:\n    /* \"@openzeppelin/contracts/utils/cryptography/draft-EIP712.sol\":2896:2981  _CACHED_DOMAIN_SEPARATOR = _buildDomainSeparator(typeHash, hashedName, hashedVersion) */\n  0x80\n  dup2\n  dup2\n  mstore\n  pop\n  pop\n    /* \"@openzeppelin/contracts/utils/cryptography/draft-EIP712.sol\":3014:3018  this */\n  address\n    /* \"@openzeppelin/contracts/utils/cryptography/draft-EIP712.sol\":2991:3019  _CACHED_THIS = address(this) */\n  0xffffffffffffffffffffffffffffffffffffffff\n  and\n  0xc0\n  dup2\n  0xffffffffffffffffffffffffffffffffffffffff\n  and\n  0x60\n  shl\n  dup2\n  mstore\n  pop\n  pop\n    /* \"@openzeppelin/contracts/utils/cryptography/draft-EIP712.sol\":3042:3050  typeHash */\n  dup1\n    /* \"@openzeppelin/contracts/utils/cryptography/draft-EIP712.sol\":3029:3050  _TYPE_HASH = typeHash */\n  0x0120\n  dup2\n  dup2\n  mstore\n  pop\n  pop\n    /* \"@openzeppelin/contracts/utils/cryptography/draft-EIP712.sol\":2510:3057  {... */\n  pop\n  pop\n  pop\n    /* \"@openzeppelin/contracts/utils/cryptography/draft-EIP712.sol\":2455:3057  constructor(string memory name, string memory version) {... */\n  pop\n  pop\n    /* \"backend/ABI/Forwarder.sol\":1742:1759  address msgSender */\n  0x00\n    /* \"backend/ABI/Forwarder.sol\":1762:1772  msg.sender */\n  caller\n    /* \"backend/ABI/Forwarder.sol\":1742:1772  address msgSender = msg.sender */\n  swap1\n  pop\n    /* \"backend/ABI/Forwarder.sol\":1782:1813  addSenderToWhitelist(msgSender) */\n  tag_18\n    /* \"backend/ABI/Forwarder.sol\":1803:1812  msgSender */\n  dup2\n    /* \"backend/ABI/Forwarder.sol\":1782:1802  addSenderToWhitelist */\n  shl(0x20, tag_19)\n    /* \"backend/ABI/Forwarder.sol\":1782:1813  addSenderToWhitelist(msgSender) */\n  0x20\n  shr\n  jump\t// in\ntag_18:\n    /* \"backend/ABI/Forwarder.sol\":1732:1820  {... */\n  pop\n    /* \"backend/ABI/Forwarder.sol\":1655:1820  constructor(string memory name, string memory version) EIP712(name, version) {... */\n  pop\n  pop\n    /* \"backend/ABI/Forwarder.sol\":601:5501  contract Forwarder is Ownable, Pausable, EIP712 {... */\n  jump(tag_20)\n    /* \"@openzeppelin/contracts/utils/Context.sol\":640:736  function _msgSender() internal view virtual returns (address) {... */\ntag_11:\n    /* \"@openzeppelin/contracts/utils/Context.sol\":693:700  address */\n  0x00\n    /* \"@openzeppelin/contracts/utils/Context.sol\":719:729  msg.sender */\n  caller\n    /* \"@openzeppelin/contracts/utils/Context.sol\":712:729  return msg.sender */\n  swap1\n  pop\n    /* \"@openzeppelin/contracts/utils/Context.sol\":640:736  function _msgSender() internal view virtual returns (address) {... */\n  swap1\n  jump\t// out\n    /* \"@openzeppelin/contracts/access/Ownable.sol\":2433:2620  function _transferOwnership(address newOwner) internal virtual {... */\ntag_12:\n    /* \"@openzeppelin/contracts/access/Ownable.sol\":2506:2522  address oldOwner */\n  0x00\n    /* \"@openzeppelin/contracts/access/Ownable.sol\":2525:2531  _owner */\n  dup1\n  0x00\n  swap1\n  sload\n  swap1\n  0x0100\n  exp\n  swap1\n  div\n  0xffffffffffffffffffffffffffffffffffffffff\n  and\n    /* \"@openzeppelin/contracts/access/Ownable.sol\":2506:2531  address oldOwner = _owner */\n  swap1\n  pop\n    /* \"@openzeppelin/contracts/access/Ownable.sol\":2550:2558  newOwner */\n  dup2\n    /* \"@openzeppelin/contracts/access/Ownable.sol\":2541:2547  _owner */\n  0x00\n  dup1\n    /* \"@openzeppelin/contracts/access/Ownable.sol\":2541:2558  _owner = newOwner */\n  0x0100\n  exp\n  dup2\n  sload\n  dup2\n  0xffffffffffffffffffffffffffffffffffffffff\n  mul\n  not\n  and\n  swap1\n  dup4\n  0xffffffffffffffffffffffffffffffffffffffff\n  and\n  mul\n  or\n  swap1\n  sstore\n  pop\n    /* \"@openzeppelin/contracts/access/Ownable.sol\":2604:2612  newOwner */\n  dup2\n    /* \"@openzeppelin/contracts/access/Ownable.sol\":2573:2613  OwnershipTransferred(oldOwner, newOwner) */\n  0xffffffffffffffffffffffffffffffffffffffff\n  and\n    /* \"@openzeppelin/contracts/access/Ownable.sol\":2594:2602  oldOwner */\n  dup2\n    /* \"@openzeppelin/contracts/access/Ownable.sol\":2573:2613  OwnershipTransferred(oldOwner, newOwner) */\n  0xffffffffffffffffffffffffffffffffffffffff\n  and\n  0x8be0079c531659141344cd1fd0a4f28419497f9722a3daafe3b4186f6b6457e0\n  mload(0x40)\n  mload(0x40)\n  dup1\n  swap2\n  sub\n  swap1\n  log3\n    /* \"@openzeppelin/contracts/access/Ownable.sol\":2496:2620  {... */\n  pop\n    /* \"@openzeppelin/contracts/access/Ownable.sol\":2433:2620  function _transferOwnership(address newOwner) internal virtual {... */\n  pop\n  jump\t// out\n    /* \"@openzeppelin/contracts/utils/cryptography/draft-EIP712.sol\":3457:3714  function _buildDomainSeparator(... */\ntag_16:\n    /* \"@openzeppelin/contracts/utils/cryptography/draft-EIP712.sol\":3597:3604  bytes32 */\n  0x00\n    /* \"@openzeppelin/contracts/utils/cryptography/draft-EIP712.sol\":3644:3652  typeHash */\n  dup4\n    /* \"@openzeppelin/contracts/utils/cryptography/draft-EIP712.sol\":3654:3662  nameHash */\n  dup4\n    /* \"@openzeppelin/contracts/utils/cryptography/draft-EIP712.sol\":3664:3675  versionHash */\n  dup4\n    /* \"@openzeppelin/contracts/utils/cryptography/draft-EIP712.sol\":3677:3690  block.chainid */\n  chainid\n    /* \"@openzeppelin/contracts/utils/cryptography/draft-EIP712.sol\":3700:3704  this */\n  address\n    /* \"@openzeppelin/contracts/utils/cryptography/draft-EIP712.sol\":3633:3706  abi.encode(typeHash, nameHash, versionHash, block.chainid, address(this)) */\n  add(0x20, mload(0x40))\n  tag_24\n  swap6\n  swap5\n  swap4\n  swap3\n  swap2\n  swap1\n  tag_25\n  jump\t// in\ntag_24:\n  mload(0x40)\n  0x20\n  dup2\n  dup4\n  sub\n  sub\n  dup2\n  mstore\n  swap1\n  0x40\n  mstore\n    /* \"@openzeppelin/contracts/utils/cryptography/draft-EIP712.sol\":3623:3707  keccak256(abi.encode(typeHash, nameHash, versionHash, block.chainid, address(this))) */\n  dup1\n  mload\n  swap1\n  0x20\n  add\n  keccak256\n    /* \"@openzeppelin/contracts/utils/cryptography/draft-EIP712.sol\":3616:3707  return keccak256(abi.encode(typeHash, nameHash, versionHash, block.chainid, address(this))) */\n  swap1\n  pop\n    /* \"@openzeppelin/contracts/utils/cryptography/draft-EIP712.sol\":3457:3714  function _buildDomainSeparator(... */\n  swap4\n  swap3\n  pop\n  pop\n  pop\n  jump\t// out\n    /* \"backend/ABI/Forwarder.sol\":4498:4799  function addSenderToWhitelist(address sender) public onlyOwner() {... */\ntag_19:\n    /* \"@openzeppelin/contracts/access/Ownable.sol\":1094:1107  _checkOwner() */\n  tag_27\n    /* \"@openzeppelin/contracts/access/Ownable.sol\":1094:1105  _checkOwner */\n  shl(0x20, tag_28)\n    /* \"@openzeppelin/contracts/access/Ownable.sol\":1094:1107  _checkOwner() */\n  0x20\n  shr\n  jump\t// in\ntag_27:\n    /* \"backend/ABI/Forwarder.sol\":4582:4603  isWhitelisted(sender) */\n  tag_30\n    /* \"backend/ABI/Forwarder.sol\":4596:4602  sender */\n  dup2\n    /* \"backend/ABI/Forwarder.sol\":4582:4595  isWhitelisted */\n  shl(0x20, tag_31)\n    /* \"backend/ABI/Forwarder.sol\":4582:4603  isWhitelisted(sender) */\n  0x20\n  shr\n  jump\t// in\ntag_30:\n    /* \"backend/ABI/Forwarder.sol\":4581:4603  !isWhitelisted(sender) */\n  iszero\n    /* \"backend/ABI/Forwarder.sol\":4573:4659  require(!isWhitelisted(sender), \"AwlForwarder: sender address is already whitelisted\") */\n  tag_32\n  jumpi\n  mload(0x40)\n  0x08c379a000000000000000000000000000000000000000000000000000000000\n  dup2\n  mstore\n  0x04\n  add\n  tag_33\n  swap1\n  tag_34\n  jump\t// in\ntag_33:\n  mload(0x40)\n  dup1\n  swap2\n  sub\n  swap1\n  revert\ntag_32:\n    /* \"backend/ABI/Forwarder.sol\":4747:4751  true */\n  0x01\n    /* \"backend/ABI/Forwarder.sol\":4720:4736  _senderWhitelist */\n  0x02\n    /* \"backend/ABI/Forwarder.sol\":4720:4744  _senderWhitelist[sender] */\n  0x00\n    /* \"backend/ABI/Forwarder.sol\":4737:4743  sender */\n  dup4\n    /* \"backend/ABI/Forwarder.sol\":4720:4744  _senderWhitelist[sender] */\n  0xffffffffffffffffffffffffffffffffffffffff\n  and\n  0xffffffffffffffffffffffffffffffffffffffff\n  and\n  dup2\n  mstore\n  0x20\n  add\n  swap1\n  dup2\n  mstore\n  0x20\n  add\n  0x00\n  keccak256\n  0x00\n    /* \"backend/ABI/Forwarder.sol\":4720:4751  _senderWhitelist[sender] = true */\n  0x0100\n  exp\n  dup2\n  sload\n  dup2\n  0xff\n  mul\n  not\n  and\n  swap1\n  dup4\n  iszero\n  iszero\n  mul\n  or\n  swap1\n  sstore\n  pop\n    /* \"backend/ABI/Forwarder.sol\":4785:4791  sender */\n  dup1\n    /* \"backend/ABI/Forwarder.sol\":4766:4792  AddressWhitelisted(sender) */\n  0xffffffffffffffffffffffffffffffffffffffff\n  and\n  0x4f783c179409b4127238bc9c990bc99b9a651666a0d20b51d6c42849eb88466d\n  mload(0x40)\n  mload(0x40)\n  dup1\n  swap2\n  sub\n  swap1\n  log2\n    /* \"backend/ABI/Forwarder.sol\":4498:4799  function addSenderToWhitelist(address sender) public onlyOwner() {... */\n  pop\n  jump\t// out\n    /* \"@openzeppelin/contracts/access/Ownable.sol\":1359:1489  function _checkOwner() internal view virtual {... */\ntag_28:\n    /* \"@openzeppelin/contracts/access/Ownable.sol\":1433:1445  _msgSender() */\n  tag_36\n    /* \"@openzeppelin/contracts/access/Ownable.sol\":1433:1443  _msgSender */\n  shl(0x20, tag_11)\n    /* \"@openzeppelin/contracts/access/Ownable.sol\":1433:1445  _msgSender() */\n  0x20\n  shr\n  jump\t// in\ntag_36:\n    /* \"@openzeppelin/contracts/access/Ownable.sol\":1422:1445  owner() == _msgSender() */\n  0xffffffffffffffffffffffffffffffffffffffff\n  and\n    /* \"@openzeppelin/contracts/access/Ownable.sol\":1422:1429  owner() */\n  tag_37\n    /* \"@openzeppelin/contracts/access/Ownable.sol\":1422:1427  owner */\n  shl(0x20, tag_38)\n    /* \"@openzeppelin/contracts/access/Ownable.sol\":1422:1429  owner() */\n  0x20\n  shr\n  jump\t// in\ntag_37:\n    /* \"@openzeppelin/contracts/access/Ownable.sol\":1422:1445  owner() == _msgSender() */\n  0xffffffffffffffffffffffffffffffffffffffff\n  and\n  eq\n    /* \"@openzeppelin/contracts/access/Ownable.sol\":1414:1482  require(owner() == _msgSender(), \"Ownable: caller is not the owner\") */\n  tag_39\n  jumpi\n  mload(0x40)\n  0x08c379a000000000000000000000000000000000000000000000000000000000\n  dup2\n  mstore\n  0x04\n  add\n  tag_40\n  swap1\n  tag_41\n  jump\t// in\ntag_40:\n  mload(0x40)\n  dup1\n  swap2\n  sub\n  swap1\n  revert\ntag_39:\n    /* \"@openzeppelin/contracts/access/Ownable.sol\":1359:1489  function _checkOwner() internal view virtual {... */\n  jump\t// out\n    /* \"backend/ABI/Forwarder.sol\":5105:5219  function isWhitelisted(address sender) public view returns (bool) {... */\ntag_31:\n    /* \"backend/ABI/Forwarder.sol\":5165:5169  bool */\n  0x00\n    /* \"backend/ABI/Forwarder.sol\":5188:5204  _senderWhitelist */\n  0x02\n    /* \"backend/ABI/Forwarder.sol\":5188:5212  _senderWhitelist[sender] */\n  0x00\n    /* \"backend/ABI/Forwarder.sol\":5205:5211  sender */\n  dup4\n    /* \"backend/ABI/Forwarder.sol\":5188:5212  _senderWhitelist[sender] */\n  0xffffffffffffffffffffffffffffffffffffffff\n  and\n  0xffffffffffffffffffffffffffffffffffffffff\n  and\n  dup2\n  mstore\n  0x20\n  add\n  swap1\n  dup2\n  mstore\n  0x20\n  add\n  0x00\n  keccak256\n  0x00\n  swap1\n  sload\n  swap1\n  0x0100\n  exp\n  swap1\n  div\n  0xff\n  and\n    /* \"backend/ABI/Forwarder.sol\":5181:5212  return _senderWhitelist[sender] */\n  swap1\n  pop\n    /* \"backend/ABI/Forwarder.sol\":5105:5219  function isWhitelisted(address sender) public view returns (bool) {... */\n  swap2\n  swap1\n  pop\n  jump\t// out\n    /* \"@openzeppelin/contracts/access/Ownable.sol\":1201:1286  function owner() public view virtual returns (address) {... */\ntag_38:\n    /* \"@openzeppelin/contracts/access/Ownable.sol\":1247:1254  address */\n  0x00\n    /* \"@openzeppelin/contracts/access/Ownable.sol\":1273:1279  _owner */\n  dup1\n  0x00\n  swap1\n  sload\n  swap1\n  0x0100\n  exp\n  swap1\n  div\n  0xffffffffffffffffffffffffffffffffffffffff\n  and\n    /* \"@openzeppelin/contracts/access/Ownable.sol\":1266:1279  return _owner */\n  swap1\n  pop\n    /* \"@openzeppelin/contracts/access/Ownable.sol\":1201:1286  function owner() public view virtual returns (address) {... */\n  swap1\n  jump\t// out\n    /* \"#utility.yul\":7:428   */\ntag_45:\n    /* \"#utility.yul\":96:101   */\n  0x00\n    /* \"#utility.yul\":121:187   */\n  tag_47\n    /* \"#utility.yul\":137:186   */\n  tag_48\n    /* \"#utility.yul\":179:185   */\n  dup5\n    /* \"#utility.yul\":137:186   */\n  tag_49\n  jump\t// in\ntag_48:\n    /* \"#utility.yul\":121:187   */\n  tag_50\n  jump\t// in\ntag_47:\n    /* \"#utility.yul\":112:187   */\n  swap1\n  pop\n    /* \"#utility.yul\":210:216   */\n  dup3\n    /* \"#utility.yul\":203:208   */\n  dup2\n    /* \"#utility.yul\":196:217   */\n  mstore\n    /* \"#utility.yul\":248:252   */\n  0x20\n    /* \"#utility.yul\":241:246   */\n  dup2\n    /* \"#utility.yul\":237:253   */\n  add\n    /* \"#utility.yul\":286:289   */\n  dup5\n    /* \"#utility.yul\":277:283   */\n  dup5\n    /* \"#utility.yul\":272:275   */\n  dup5\n    /* \"#utility.yul\":268:284   */\n  add\n    /* \"#utility.yul\":265:290   */\n  gt\n    /* \"#utility.yul\":262:374   */\n  iszero\n  tag_51\n  jumpi\n    /* \"#utility.yul\":293:372   */\n  tag_52\n  tag_53\n  jump\t// in\ntag_52:\n    /* \"#utility.yul\":262:374   */\ntag_51:\n    /* \"#utility.yul\":383:422   */\n  tag_54\n    /* \"#utility.yul\":415:421   */\n  dup5\n    /* \"#utility.yul\":410:413   */\n  dup3\n    /* \"#utility.yul\":405:408   */\n  dup6\n    /* \"#utility.yul\":383:422   */\n  tag_55\n  jump\t// in\ntag_54:\n    /* \"#utility.yul\":102:428   */\n  pop\n    /* \"#utility.yul\":7:428   */\n  swap4\n  swap3\n  pop\n  pop\n  pop\n  jump\t// out\n    /* \"#utility.yul\":448:803   */\ntag_56:\n    /* \"#utility.yul\":515:520   */\n  0x00\n    /* \"#utility.yul\":564:567   */\n  dup3\n    /* \"#utility.yul\":557:561   */\n  0x1f\n    /* \"#utility.yul\":549:555   */\n  dup4\n    /* \"#utility.yul\":545:562   */\n  add\n    /* \"#utility.yul\":541:568   */\n  slt\n    /* \"#utility.yul\":531:653   */\n  tag_58\n  jumpi\n    /* \"#utility.yul\":572:651   */\n  tag_59\n  tag_60\n  jump\t// in\ntag_59:\n    /* \"#utility.yul\":531:653   */\ntag_58:\n    /* \"#utility.yul\":682:688   */\n  dup2\n    /* \"#utility.yul\":676:689   */\n  mload\n    /* \"#utility.yul\":707:797   */\n  tag_61\n    /* \"#utility.yul\":793:796   */\n  dup5\n    /* \"#utility.yul\":785:791   */\n  dup3\n    /* \"#utility.yul\":778:782   */\n  0x20\n    /* \"#utility.yul\":770:776   */\n  dup7\n    /* \"#utility.yul\":766:783   */\n  add\n    /* \"#utility.yul\":707:797   */\n  tag_45\n  jump\t// in\ntag_61:\n    /* \"#utility.yul\":698:797   */\n  swap2\n  pop\n    /* \"#utility.yul\":521:803   */\n  pop\n    /* \"#utility.yul\":448:803   */\n  swap3\n  swap2\n  pop\n  pop\n  jump\t// out\n    /* \"#utility.yul\":809:1662   */\ntag_3:\n    /* \"#utility.yul\":908:914   */\n  0x00\n    /* \"#utility.yul\":916:922   */\n  dup1\n    /* \"#utility.yul\":965:967   */\n  0x40\n    /* \"#utility.yul\":953:962   */\n  dup4\n    /* \"#utility.yul\":944:951   */\n  dup6\n    /* \"#utility.yul\":940:963   */\n  sub\n    /* \"#utility.yul\":936:968   */\n  slt\n    /* \"#utility.yul\":933:1052   */\n  iszero\n  tag_63\n  jumpi\n    /* \"#utility.yul\":971:1050   */\n  tag_64\n  tag_65\n  jump\t// in\ntag_64:\n    /* \"#utility.yul\":933:1052   */\ntag_63:\n    /* \"#utility.yul\":1112:1113   */\n  0x00\n    /* \"#utility.yul\":1101:1110   */\n  dup4\n    /* \"#utility.yul\":1097:1114   */\n  add\n    /* \"#utility.yul\":1091:1115   */\n  mload\n    /* \"#utility.yul\":1142:1160   */\n  0xffffffffffffffff\n    /* \"#utility.yul\":1134:1140   */\n  dup2\n    /* \"#utility.yul\":1131:1161   */\n  gt\n    /* \"#utility.yul\":1128:1245   */\n  iszero\n  tag_66\n  jumpi\n    /* \"#utility.yul\":1164:1243   */\n  tag_67\n  tag_68\n  jump\t// in\ntag_67:\n    /* \"#utility.yul\":1128:1245   */\ntag_66:\n    /* \"#utility.yul\":1269:1343   */\n  tag_69\n    /* \"#utility.yul\":1335:1342   */\n  dup6\n    /* \"#utility.yul\":1326:1332   */\n  dup3\n    /* \"#utility.yul\":1315:1324   */\n  dup7\n    /* \"#utility.yul\":1311:1333   */\n  add\n    /* \"#utility.yul\":1269:1343   */\n  tag_56\n  jump\t// in\ntag_69:\n    /* \"#utility.yul\":1259:1343   */\n  swap3\n  pop\n    /* \"#utility.yul\":1062:1353   */\n  pop\n    /* \"#utility.yul\":1413:1415   */\n  0x20\n    /* \"#utility.yul\":1402:1411   */\n  dup4\n    /* \"#utility.yul\":1398:1416   */\n  add\n    /* \"#utility.yul\":1392:1417   */\n  mload\n    /* \"#utility.yul\":1444:1462   */\n  0xffffffffffffffff\n    /* \"#utility.yul\":1436:1442   */\n  dup2\n    /* \"#utility.yul\":1433:1463   */\n  gt\n    /* \"#utility.yul\":1430:1547   */\n  iszero\n  tag_70\n  jumpi\n    /* \"#utility.yul\":1466:1545   */\n  tag_71\n  tag_68\n  jump\t// in\ntag_71:\n    /* \"#utility.yul\":1430:1547   */\ntag_70:\n    /* \"#utility.yul\":1571:1645   */\n  tag_72\n    /* \"#utility.yul\":1637:1644   */\n  dup6\n    /* \"#utility.yul\":1628:1634   */\n  dup3\n    /* \"#utility.yul\":1617:1626   */\n  dup7\n    /* \"#utility.yul\":1613:1635   */\n  add\n    /* \"#utility.yul\":1571:1645   */\n  tag_56\n  jump\t// in\ntag_72:\n    /* \"#utility.yul\":1561:1645   */\n  swap2\n  pop\n    /* \"#utility.yul\":1363:1655   */\n  pop\n    /* \"#utility.yul\":809:1662   */\n  swap3\n  pop\n  swap3\n  swap1\n  pop\n  jump\t// out\n    /* \"#utility.yul\":1668:1786   */\ntag_73:\n    /* \"#utility.yul\":1755:1779   */\n  tag_75\n    /* \"#utility.yul\":1773:1778   */\n  dup2\n    /* \"#utility.yul\":1755:1779   */\n  tag_76\n  jump\t// in\ntag_75:\n    /* \"#utility.yul\":1750:1753   */\n  dup3\n    /* \"#utility.yul\":1743:1780   */\n  mstore\n    /* \"#utility.yul\":1668:1786   */\n  pop\n  pop\n  jump\t// out\n    /* \"#utility.yul\":1792:1910   */\ntag_77:\n    /* \"#utility.yul\":1879:1903   */\n  tag_79\n    /* \"#utility.yul\":1897:1902   */\n  dup2\n    /* \"#utility.yul\":1879:1903   */\n  tag_80\n  jump\t// in\ntag_79:\n    /* \"#utility.yul\":1874:1877   */\n  dup3\n    /* \"#utility.yul\":1867:1904   */\n  mstore\n    /* \"#utility.yul\":1792:1910   */\n  pop\n  pop\n  jump\t// out\n    /* \"#utility.yul\":1916:2282   */\ntag_81:\n    /* \"#utility.yul\":2058:2061   */\n  0x00\n    /* \"#utility.yul\":2079:2146   */\n  tag_83\n    /* \"#utility.yul\":2143:2145   */\n  0x33\n    /* \"#utility.yul\":2138:2141   */\n  dup4\n    /* \"#utility.yul\":2079:2146   */\n  tag_84\n  jump\t// in\ntag_83:\n    /* \"#utility.yul\":2072:2146   */\n  swap2\n  pop\n    /* \"#utility.yul\":2155:2248   */\n  tag_85\n    /* \"#utility.yul\":2244:2247   */\n  dup3\n    /* \"#utility.yul\":2155:2248   */\n  tag_86\n  jump\t// in\ntag_85:\n    /* \"#utility.yul\":2273:2275   */\n  0x40\n    /* \"#utility.yul\":2268:2271   */\n  dup3\n    /* \"#utility.yul\":2264:2276   */\n  add\n    /* \"#utility.yul\":2257:2276   */\n  swap1\n  pop\n    /* \"#utility.yul\":1916:2282   */\n  swap2\n  swap1\n  pop\n  jump\t// out\n    /* \"#utility.yul\":2288:2654   */\ntag_87:\n    /* \"#utility.yul\":2430:2433   */\n  0x00\n    /* \"#utility.yul\":2451:2518   */\n  tag_89\n    /* \"#utility.yul\":2515:2517   */\n  0x20\n    /* \"#utility.yul\":2510:2513   */\n  dup4\n    /* \"#utility.yul\":2451:2518   */\n  tag_84\n  jump\t// in\ntag_89:\n    /* \"#utility.yul\":2444:2518   */\n  swap2\n  pop\n    /* \"#utility.yul\":2527:2620   */\n  tag_90\n    /* \"#utility.yul\":2616:2619   */\n  dup3\n    /* \"#utility.yul\":2527:2620   */\n  tag_91\n  jump\t// in\ntag_90:\n    /* \"#utility.yul\":2645:2647   */\n  0x20\n    /* \"#utility.yul\":2640:2643   */\n  dup3\n    /* \"#utility.yul\":2636:2648   */\n  add\n    /* \"#utility.yul\":2629:2648   */\n  swap1\n  pop\n    /* \"#utility.yul\":2288:2654   */\n  swap2\n  swap1\n  pop\n  jump\t// out\n    /* \"#utility.yul\":2660:2778   */\ntag_92:\n    /* \"#utility.yul\":2747:2771   */\n  tag_94\n    /* \"#utility.yul\":2765:2770   */\n  dup2\n    /* \"#utility.yul\":2747:2771   */\n  tag_95\n  jump\t// in\ntag_94:\n    /* \"#utility.yul\":2742:2745   */\n  dup3\n    /* \"#utility.yul\":2735:2772   */\n  mstore\n    /* \"#utility.yul\":2660:2778   */\n  pop\n  pop\n  jump\t// out\n    /* \"#utility.yul\":2784:3448   */\ntag_25:\n    /* \"#utility.yul\":2989:2993   */\n  0x00\n    /* \"#utility.yul\":3027:3030   */\n  0xa0\n    /* \"#utility.yul\":3016:3025   */\n  dup3\n    /* \"#utility.yul\":3012:3031   */\n  add\n    /* \"#utility.yul\":3004:3031   */\n  swap1\n  pop\n    /* \"#utility.yul\":3041:3112   */\n  tag_97\n    /* \"#utility.yul\":3109:3110   */\n  0x00\n    /* \"#utility.yul\":3098:3107   */\n  dup4\n    /* \"#utility.yul\":3094:3111   */\n  add\n    /* \"#utility.yul\":3085:3091   */\n  dup9\n    /* \"#utility.yul\":3041:3112   */\n  tag_77\n  jump\t// in\ntag_97:\n    /* \"#utility.yul\":3122:3194   */\n  tag_98\n    /* \"#utility.yul\":3190:3192   */\n  0x20\n    /* \"#utility.yul\":3179:3188   */\n  dup4\n    /* \"#utility.yul\":3175:3193   */\n  add\n    /* \"#utility.yul\":3166:3172   */\n  dup8\n    /* \"#utility.yul\":3122:3194   */\n  tag_77\n  jump\t// in\ntag_98:\n    /* \"#utility.yul\":3204:3276   */\n  tag_99\n    /* \"#utility.yul\":3272:3274   */\n  0x40\n    /* \"#utility.yul\":3261:3270   */\n  dup4\n    /* \"#utility.yul\":3257:3275   */\n  add\n    /* \"#utility.yul\":3248:3254   */\n  dup7\n    /* \"#utility.yul\":3204:3276   */\n  tag_77\n  jump\t// in\ntag_99:\n    /* \"#utility.yul\":3286:3358   */\n  tag_100\n    /* \"#utility.yul\":3354:3356   */\n  0x60\n    /* \"#utility.yul\":3343:3352   */\n  dup4\n    /* \"#utility.yul\":3339:3357   */\n  add\n    /* \"#utility.yul\":3330:3336   */\n  dup6\n    /* \"#utility.yul\":3286:3358   */\n  tag_92\n  jump\t// in\ntag_100:\n    /* \"#utility.yul\":3368:3441   */\n  tag_101\n    /* \"#utility.yul\":3436:3439   */\n  0x80\n    /* \"#utility.yul\":3425:3434   */\n  dup4\n    /* \"#utility.yul\":3421:3440   */\n  add\n    /* \"#utility.yul\":3412:3418   */\n  dup5\n    /* \"#utility.yul\":3368:3441   */\n  tag_73\n  jump\t// in\ntag_101:\n    /* \"#utility.yul\":2784:3448   */\n  swap7\n  swap6\n  pop\n  pop\n  pop\n  pop\n  pop\n  pop\n  jump\t// out\n    /* \"#utility.yul\":3454:3873   */\ntag_34:\n    /* \"#utility.yul\":3620:3624   */\n  0x00\n    /* \"#utility.yul\":3658:3660   */\n  0x20\n    /* \"#utility.yul\":3647:3656   */\n  dup3\n    /* \"#utility.yul\":3643:3661   */\n  add\n    /* \"#utility.yul\":3635:3661   */\n  swap1\n  pop\n    /* \"#utility.yul\":3707:3716   */\n  dup2\n    /* \"#utility.yul\":3701:3705   */\n  dup2\n    /* \"#utility.yul\":3697:3717   */\n  sub\n    /* \"#utility.yul\":3693:3694   */\n  0x00\n    /* \"#utility.yul\":3682:3691   */\n  dup4\n    /* \"#utility.yul\":3678:3695   */\n  add\n    /* \"#utility.yul\":3671:3718   */\n  mstore\n    /* \"#utility.yul\":3735:3866   */\n  tag_103\n    /* \"#utility.yul\":3861:3865   */\n  dup2\n    /* \"#utility.yul\":3735:3866   */\n  tag_81\n  jump\t// in\ntag_103:\n    /* \"#utility.yul\":3727:3866   */\n  swap1\n  pop\n    /* \"#utility.yul\":3454:3873   */\n  swap2\n  swap1\n  pop\n  jump\t// out\n    /* \"#utility.yul\":3879:4298   */\ntag_41:\n    /* \"#utility.yul\":4045:4049   */\n  0x00\n    /* \"#utility.yul\":4083:4085   */\n  0x20\n    /* \"#utility.yul\":4072:4081   */\n  dup3\n    /* \"#utility.yul\":4068:4086   */\n  add\n    /* \"#utility.yul\":4060:4086   */\n  swap1\n  pop\n    /* \"#utility.yul\":4132:4141   */\n  dup2\n    /* \"#utility.yul\":4126:4130   */\n  dup2\n    /* \"#utility.yul\":4122:4142   */\n  sub\n    /* \"#utility.yul\":4118:4119   */\n  0x00\n    /* \"#utility.yul\":4107:4116   */\n  dup4\n    /* \"#utility.yul\":4103:4120   */\n  add\n    /* \"#utility.yul\":4096:4143   */\n  mstore\n    /* \"#utility.yul\":4160:4291   */\n  tag_105\n    /* \"#utility.yul\":4286:4290   */\n  dup2\n    /* \"#utility.yul\":4160:4291   */\n  tag_87\n  jump\t// in\ntag_105:\n    /* \"#utility.yul\":4152:4291   */\n  swap1\n  pop\n    /* \"#utility.yul\":3879:4298   */\n  swap2\n  swap1\n  pop\n  jump\t// out\n    /* \"#utility.yul\":4304:4433   */\ntag_50:\n    /* \"#utility.yul\":4338:4344   */\n  0x00\n    /* \"#utility.yul\":4365:4385   */\n  tag_107\n  tag_108\n  jump\t// in\ntag_107:\n    /* \"#utility.yul\":4355:4385   */\n  swap1\n  pop\n    /* \"#utility.yul\":4394:4427   */\n  tag_109\n    /* \"#utility.yul\":4422:4426   */\n  dup3\n    /* \"#utility.yul\":4414:4420   */\n  dup3\n    /* \"#utility.yul\":4394:4427   */\n  tag_110\n  jump\t// in\ntag_109:\n    /* \"#utility.yul\":4304:4433   */\n  swap2\n  swap1\n  pop\n  jump\t// out\n    /* \"#utility.yul\":4439:4514   */\ntag_108:\n    /* \"#utility.yul\":4472:4478   */\n  0x00\n    /* \"#utility.yul\":4505:4507   */\n  0x40\n    /* \"#utility.yul\":4499:4508   */\n  mload\n    /* \"#utility.yul\":4489:4508   */\n  swap1\n  pop\n    /* \"#utility.yul\":4439:4514   */\n  swap1\n  jump\t// out\n    /* \"#utility.yul\":4520:4828   */\ntag_49:\n    /* \"#utility.yul\":4582:4586   */\n  0x00\n    /* \"#utility.yul\":4672:4690   */\n  0xffffffffffffffff\n    /* \"#utility.yul\":4664:4670   */\n  dup3\n    /* \"#utility.yul\":4661:4691   */\n  gt\n    /* \"#utility.yul\":4658:4714   */\n  iszero\n  tag_113\n  jumpi\n    /* \"#utility.yul\":4694:4712   */\n  tag_114\n  tag_115\n  jump\t// in\ntag_114:\n    /* \"#utility.yul\":4658:4714   */\ntag_113:\n    /* \"#utility.yul\":4732:4761   */\n  tag_116\n    /* \"#utility.yul\":4754:4760   */\n  dup3\n    /* \"#utility.yul\":4732:4761   */\n  tag_117\n  jump\t// in\ntag_116:\n    /* \"#utility.yul\":4724:4761   */\n  swap1\n  pop\n    /* \"#utility.yul\":4816:4820   */\n  0x20\n    /* \"#utility.yul\":4810:4814   */\n  dup2\n    /* \"#utility.yul\":4806:4821   */\n  add\n    /* \"#utility.yul\":4798:4821   */\n  swap1\n  pop\n    /* \"#utility.yul\":4520:4828   */\n  swap2\n  swap1\n  pop\n  jump\t// out\n    /* \"#utility.yul\":4834:5003   */\ntag_84:\n    /* \"#utility.yul\":4918:4929   */\n  0x00\n    /* \"#utility.yul\":4952:4958   */\n  dup3\n    /* \"#utility.yul\":4947:4950   */\n  dup3\n    /* \"#utility.yul\":4940:4959   */\n  mstore\n    /* \"#utility.yul\":4992:4996   */\n  0x20\n    /* \"#utility.yul\":4987:4990   */\n  dup3\n    /* \"#utility.yul\":4983:4997   */\n  add\n    /* \"#utility.yul\":4968:4997   */\n  swap1\n  pop\n    /* \"#utility.yul\":4834:5003   */\n  swap3\n  swap2\n  pop\n  pop\n  jump\t// out\n    /* \"#utility.yul\":5009:5105   */\ntag_76:\n    /* \"#utility.yul\":5046:5053   */\n  0x00\n    /* \"#utility.yul\":5075:5099   */\n  tag_120\n    /* \"#utility.yul\":5093:5098   */\n  dup3\n    /* \"#utility.yul\":5075:5099   */\n  tag_121\n  jump\t// in\ntag_120:\n    /* \"#utility.yul\":5064:5099   */\n  swap1\n  pop\n    /* \"#utility.yul\":5009:5105   */\n  swap2\n  swap1\n  pop\n  jump\t// out\n    /* \"#utility.yul\":5111:5188   */\ntag_80:\n    /* \"#utility.yul\":5148:5155   */\n  0x00\n    /* \"#utility.yul\":5177:5182   */\n  dup2\n    /* \"#utility.yul\":5166:5182   */\n  swap1\n  pop\n    /* \"#utility.yul\":5111:5188   */\n  swap2\n  swap1\n  pop\n  jump\t// out\n    /* \"#utility.yul\":5194:5320   */\ntag_121:\n    /* \"#utility.yul\":5231:5238   */\n  0x00\n    /* \"#utility.yul\":5271:5313   */\n  0xffffffffffffffffffffffffffffffffffffffff\n    /* \"#utility.yul\":5264:5269   */\n  dup3\n    /* \"#utility.yul\":5260:5314   */\n  and\n    /* \"#utility.yul\":5249:5314   */\n  swap1\n  pop\n    /* \"#utility.yul\":5194:5320   */\n  swap2\n  swap1\n  pop\n  jump\t// out\n    /* \"#utility.yul\":5326:5403   */\ntag_95:\n    /* \"#utility.yul\":5363:5370   */\n  0x00\n    /* \"#utility.yul\":5392:5397   */\n  dup2\n    /* \"#utility.yul\":5381:5397   */\n  swap1\n  pop\n    /* \"#utility.yul\":5326:5403   */\n  swap2\n  swap1\n  pop\n  jump\t// out\n    /* \"#utility.yul\":5409:5716   */\ntag_55:\n    /* \"#utility.yul\":5477:5478   */\n  0x00\n    /* \"#utility.yul\":5487:5600   */\ntag_126:\n    /* \"#utility.yul\":5501:5507   */\n  dup4\n    /* \"#utility.yul\":5498:5499   */\n  dup2\n    /* \"#utility.yul\":5495:5508   */\n  lt\n    /* \"#utility.yul\":5487:5600   */\n  iszero\n  tag_128\n  jumpi\n    /* \"#utility.yul\":5586:5587   */\n  dup1\n    /* \"#utility.yul\":5581:5584   */\n  dup3\n    /* \"#utility.yul\":5577:5588   */\n  add\n    /* \"#utility.yul\":5571:5589   */\n  mload\n    /* \"#utility.yul\":5567:5568   */\n  dup2\n    /* \"#utility.yul\":5562:5565   */\n  dup5\n    /* \"#utility.yul\":5558:5569   */\n  add\n    /* \"#utility.yul\":5551:5590   */\n  mstore\n    /* \"#utility.yul\":5523:5525   */\n  0x20\n    /* \"#utility.yul\":5520:5521   */\n  dup2\n    /* \"#utility.yul\":5516:5526   */\n  add\n    /* \"#utility.yul\":5511:5526   */\n  swap1\n  pop\n    /* \"#utility.yul\":5487:5600   */\n  jump(tag_126)\ntag_128:\n    /* \"#utility.yul\":5618:5624   */\n  dup4\n    /* \"#utility.yul\":5615:5616   */\n  dup2\n    /* \"#utility.yul\":5612:5625   */\n  gt\n    /* \"#utility.yul\":5609:5710   */\n  iszero\n  tag_129\n  jumpi\n    /* \"#utility.yul\":5698:5699   */\n  0x00\n    /* \"#utility.yul\":5689:5695   */\n  dup5\n    /* \"#utility.yul\":5684:5687   */\n  dup5\n    /* \"#utility.yul\":5680:5696   */\n  add\n    /* \"#utility.yul\":5673:5700   */\n  mstore\n    /* \"#utility.yul\":5609:5710   */\ntag_129:\n    /* \"#utility.yul\":5458:5716   */\n  pop\n    /* \"#utility.yul\":5409:5716   */\n  pop\n  pop\n  pop\n  jump\t// out\n    /* \"#utility.yul\":5722:6003   */\ntag_110:\n    /* \"#utility.yul\":5805:5832   */\n  tag_131\n    /* \"#utility.yul\":5827:5831   */\n  dup3\n    /* \"#utility.yul\":5805:5832   */\n  tag_117\n  jump\t// in\ntag_131:\n    /* \"#utility.yul\":5797:5803   */\n  dup2\n    /* \"#utility.yul\":5793:5833   */\n  add\n    /* \"#utility.yul\":5935:5941   */\n  dup2\n    /* \"#utility.yul\":5923:5933   */\n  dup2\n    /* \"#utility.yul\":5920:5942   */\n  lt\n    /* \"#utility.yul\":5899:5917   */\n  0xffffffffffffffff\n    /* \"#utility.yul\":5887:5897   */\n  dup3\n    /* \"#utility.yul\":5884:5918   */\n  gt\n    /* \"#utility.yul\":5881:5943   */\n  or\n    /* \"#utility.yul\":5878:5966   */\n  iszero\n  tag_132\n  jumpi\n    /* \"#utility.yul\":5946:5964   */\n  tag_133\n  tag_115\n  jump\t// in\ntag_133:\n    /* \"#utility.yul\":5878:5966   */\ntag_132:\n    /* \"#utility.yul\":5986:5996   */\n  dup1\n    /* \"#utility.yul\":5982:5984   */\n  0x40\n    /* \"#utility.yul\":5975:5997   */\n  mstore\n    /* \"#utility.yul\":5765:6003   */\n  pop\n    /* \"#utility.yul\":5722:6003   */\n  pop\n  pop\n  jump\t// out\n    /* \"#utility.yul\":6009:6189   */\ntag_115:\n    /* \"#utility.yul\":6057:6134   */\n  0x4e487b7100000000000000000000000000000000000000000000000000000000\n    /* \"#utility.yul\":6054:6055   */\n  0x00\n    /* \"#utility.yul\":6047:6135   */\n  mstore\n    /* \"#utility.yul\":6154:6158   */\n  0x41\n    /* \"#utility.yul\":6151:6152   */\n  0x04\n    /* \"#utility.yul\":6144:6159   */\n  mstore\n    /* \"#utility.yul\":6178:6182   */\n  0x24\n    /* \"#utility.yul\":6175:6176   */\n  0x00\n    /* \"#utility.yul\":6168:6183   */\n  revert\n    /* \"#utility.yul\":6195:6312   */\ntag_60:\n    /* \"#utility.yul\":6304:6305   */\n  0x00\n    /* \"#utility.yul\":6301:6302   */\n  dup1\n    /* \"#utility.yul\":6294:6306   */\n  revert\n    /* \"#utility.yul\":6318:6435   */\ntag_53:\n    /* \"#utility.yul\":6427:6428   */\n  0x00\n    /* \"#utility.yul\":6424:6425   */\n  dup1\n    /* \"#utility.yul\":6417:6429   */\n  revert\n    /* \"#utility.yul\":6441:6558   */\ntag_68:\n    /* \"#utility.yul\":6550:6551   */\n  0x00\n    /* \"#utility.yul\":6547:6548   */\n  dup1\n    /* \"#utility.yul\":6540:6552   */\n  revert\n    /* \"#utility.yul\":6564:6681   */\ntag_65:\n    /* \"#utility.yul\":6673:6674   */\n  0x00\n    /* \"#utility.yul\":6670:6671   */\n  dup1\n    /* \"#utility.yul\":6663:6675   */\n  revert\n    /* \"#utility.yul\":6687:6789   */\ntag_117:\n    /* \"#utility.yul\":6728:6734   */\n  0x00\n    /* \"#utility.yul\":6779:6781   */\n  0x1f\n    /* \"#utility.yul\":6775:6782   */\n  not\n    /* \"#utility.yul\":6770:6772   */\n  0x1f\n    /* \"#utility.yul\":6763:6768   */\n  dup4\n    /* \"#utility.yul\":6759:6773   */\n  add\n    /* \"#utility.yul\":6755:6783   */\n  and\n    /* \"#utility.yul\":6745:6783   */\n  swap1\n  pop\n    /* \"#utility.yul\":6687:6789   */\n  swap2\n  swap1\n  pop\n  jump\t// out\n    /* \"#utility.yul\":6795:7033   */\ntag_86:\n    /* \"#utility.yul\":6935:6969   */\n  0x41776c466f727761726465723a2073656e646572206164647265737320697320\n    /* \"#utility.yul\":6931:6932   */\n  0x00\n    /* \"#utility.yul\":6923:6929   */\n  dup3\n    /* \"#utility.yul\":6919:6933   */\n  add\n    /* \"#utility.yul\":6912:6970   */\n  mstore\n    /* \"#utility.yul\":7004:7025   */\n  0x616c72656164792077686974656c697374656400000000000000000000000000\n    /* \"#utility.yul\":6999:7001   */\n  0x20\n    /* \"#utility.yul\":6991:6997   */\n  dup3\n    /* \"#utility.yul\":6987:7002   */\n  add\n    /* \"#utility.yul\":6980:7026   */\n  mstore\n    /* \"#utility.yul\":6795:7033   */\n  pop\n  jump\t// out\n    /* \"#utility.yul\":7039:7221   */\ntag_91:\n    /* \"#utility.yul\":7179:7213   */\n  0x4f776e61626c653a2063616c6c6572206973206e6f7420746865206f776e6572\n    /* \"#utility.yul\":7175:7176   */\n  0x00\n    /* \"#utility.yul\":7167:7173   */\n  dup3\n    /* \"#utility.yul\":7163:7177   */\n  add\n    /* \"#utility.yul\":7156:7214   */\n  mstore\n    /* \"#utility.yul\":7039:7221   */\n  pop\n  jump\t// out\n    /* \"backend/ABI/Forwarder.sol\":601:5501  contract Forwarder is Ownable, Pausable, EIP712 {... */\ntag_20:\n  mload(0x80)\n  mload(0xa0)\n  shr(0x60, mload(0xc0))\n  mload(0xe0)\n  mload(0x0100)\n  mload(0x0120)\n  codecopy(0x00, dataOffset(sub_0), dataSize(sub_0))\n  0x00\n  assignImmutable(\"0xd74e387d4432eb204e29b4c33d69dbbd245bbe36fa789e0c9387d7c3d660708c\")\n  0x00\n  assignImmutable(\"0x384529d05d7b418bf35f37fb665a63d99a6575ccebe6d2c5b36ee4506c5baf28\")\n  0x00\n  assignImmutable(\"0x223a9960abfee9b862a549f358689d8ea993231446f3ca87ded4b2d64c88e95b\")\n  0x00\n  assignImmutable(\"0xbda815a50f48336819a6391bc95cca482a76d85f1813f467db3ee63324be36d6\")\n  0x00\n  assignImmutable(\"0x80046239d0e28cf6c0221b22ef80ce990ee03b0a35f78590284e97769d9005a4\")\n  0x00\n  assignImmutable(\"0x383baa7e6b33a701af53854870664f38896837b53952cefa54b794c13b086139\")\n  return(0x00, dataSize(sub_0))\nstop\n\nsub_0: assembly {\n        /* \"backend/ABI/Forwarder.sol\":601:5501  contract Forwarder is Ownable, Pausable, EIP712 {... */\n      mstore(0x40, 0x80)\n      jumpi(tag_1, lt(calldatasize, 0x04))\n      shr(0xe0, calldataload(0x00))\n      dup1\n      0x47153f82\n      gt\n      tag_16\n      jumpi\n      dup1\n      0x8456cb59\n      gt\n      tag_17\n      jumpi\n      dup1\n      0x8456cb59\n      eq\n      tag_12\n      jumpi\n      dup1\n      0x8da5cb5b\n      eq\n      tag_13\n      jumpi\n      dup1\n      0xbf5d3bdb\n      eq\n      tag_14\n      jumpi\n      dup1\n      0xf2fde38b\n      eq\n      tag_15\n      jumpi\n      jump(tag_1)\n    tag_17:\n      dup1\n      0x47153f82\n      eq\n      tag_9\n      jumpi\n      dup1\n      0x5c975abb\n      eq\n      tag_10\n      jumpi\n      dup1\n      0x715018a6\n      eq\n      tag_11\n      jumpi\n      jump(tag_1)\n    tag_16:\n      dup1\n      0x3644e515\n      gt\n      tag_18\n      jumpi\n      dup1\n      0x3644e515\n      eq\n      tag_5\n      jumpi\n      dup1\n      0x3af32abf\n      eq\n      tag_6\n      jumpi\n      dup1\n      0x3f113a61\n      eq\n      tag_7\n      jumpi\n      dup1\n      0x3f4ba83a\n      eq\n      tag_8\n      jumpi\n      jump(tag_1)\n    tag_18:\n      dup1\n      0x01a9a352\n      eq\n      tag_2\n      jumpi\n      dup1\n      0x2978cb40\n      eq\n      tag_3\n      jumpi\n      dup1\n      0x2d0335ab\n      eq\n      tag_4\n      jumpi\n    tag_1:\n      0x00\n      dup1\n      revert\n        /* \"backend/ABI/Forwarder.sol\":4849:5018  function removeSenderFromWhitelist(address sender) public onlyOwner() {... */\n    tag_2:\n      callvalue\n      dup1\n      iszero\n      tag_19\n      jumpi\n      0x00\n      dup1\n      revert\n    tag_19:\n      pop\n      tag_20\n      0x04\n      dup1\n      calldatasize\n      sub\n      dup2\n      add\n      swap1\n      tag_21\n      swap2\n      swap1\n      tag_22\n      jump\t// in\n    tag_21:\n      tag_23\n      jump\t// in\n    tag_20:\n      stop\n        /* \"backend/ABI/Forwarder.sol\":5327:5499  function killForwarder(address payable payoutAddress) public onlyOwner() {... */\n    tag_3:\n      callvalue\n      dup1\n      iszero\n      tag_24\n      jumpi\n      0x00\n      dup1\n      revert\n    tag_24:\n      pop\n      tag_25\n      0x04\n      dup1\n      calldatasize\n      sub\n      dup2\n      add\n      swap1\n      tag_26\n      swap2\n      swap1\n      tag_27\n      jump\t// in\n    tag_26:\n      tag_28\n      jump\t// in\n    tag_25:\n      stop\n        /* \"backend/ABI/Forwarder.sol\":2596:2695  function getNonce(address from) public view returns (uint256) {... */\n    tag_4:\n      callvalue\n      dup1\n      iszero\n      tag_29\n      jumpi\n      0x00\n      dup1\n      revert\n    tag_29:\n      pop\n      tag_30\n      0x04\n      dup1\n      calldatasize\n      sub\n      dup2\n      add\n      swap1\n      tag_31\n      swap2\n      swap1\n      tag_22\n      jump\t// in\n    tag_31:\n      tag_32\n      jump\t// in\n    tag_30:\n      mload(0x40)\n      tag_33\n      swap2\n      swap1\n      tag_34\n      jump\t// in\n    tag_33:\n      mload(0x40)\n      dup1\n      swap2\n      sub\n      swap1\n      return\n        /* \"backend/ABI/Forwarder.sol\":2406:2510  function DOMAIN_SEPARATOR() external view returns (bytes32) {... */\n    tag_5:\n      callvalue\n      dup1\n      iszero\n      tag_35\n      jumpi\n      0x00\n      dup1\n      revert\n    tag_35:\n      pop\n      tag_36\n      tag_37\n      jump\t// in\n    tag_36:\n      mload(0x40)\n      tag_38\n      swap2\n      swap1\n      tag_39\n      jump\t// in\n    tag_38:\n      mload(0x40)\n      dup1\n      swap2\n      sub\n      swap1\n      return\n        /* \"backend/ABI/Forwarder.sol\":5105:5219  function isWhitelisted(address sender) public view returns (bool) {... */\n    tag_6:\n      callvalue\n      dup1\n      iszero\n      tag_40\n      jumpi\n      0x00\n      dup1\n      revert\n    tag_40:\n      pop\n      tag_41\n      0x04\n      dup1\n      calldatasize\n      sub\n      dup2\n      add\n      swap1\n      tag_42\n      swap2\n      swap1\n      tag_22\n      jump\t// in\n    tag_42:\n      tag_43\n      jump\t// in\n    tag_41:\n      mload(0x40)\n      tag_44\n      swap2\n      swap1\n      tag_45\n      jump\t// in\n    tag_44:\n      mload(0x40)\n      dup1\n      swap2\n      sub\n      swap1\n      return\n        /* \"backend/ABI/Forwarder.sol\":4498:4799  function addSenderToWhitelist(address sender) public onlyOwner() {... */\n    tag_7:\n      callvalue\n      dup1\n      iszero\n      tag_46\n      jumpi\n      0x00\n      dup1\n      revert\n    tag_46:\n      pop\n      tag_47\n      0x04\n      dup1\n      calldatasize\n      sub\n      dup2\n      add\n      swap1\n      tag_48\n      swap2\n      swap1\n      tag_22\n      jump\t// in\n    tag_48:\n      tag_49\n      jump\t// in\n    tag_47:\n      stop\n        /* \"backend/ABI/Forwarder.sol\":2100:2163  function unpause() public onlyOwner {... */\n    tag_8:\n      callvalue\n      dup1\n      iszero\n      tag_50\n      jumpi\n      0x00\n      dup1\n      revert\n    tag_50:\n      pop\n      tag_51\n      tag_52\n      jump\t// in\n    tag_51:\n      stop\n        /* \"backend/ABI/Forwarder.sol\":3357:4408  function execute(ForwardRequest calldata req, bytes calldata signature) public payable whenNotPaused() returns (bool, bytes memory) {... */\n    tag_9:\n      tag_53\n      0x04\n      dup1\n      calldatasize\n      sub\n      dup2\n      add\n      swap1\n      tag_54\n      swap2\n      swap1\n      tag_55\n      jump\t// in\n    tag_54:\n      tag_56\n      jump\t// in\n    tag_53:\n      mload(0x40)\n      tag_57\n      swap3\n      swap2\n      swap1\n      tag_58\n      jump\t// in\n    tag_57:\n      mload(0x40)\n      dup1\n      swap2\n      sub\n      swap1\n      return\n        /* \"@openzeppelin/contracts/security/Pausable.sol\":1615:1699  function paused() public view virtual returns (bool) {... */\n    tag_10:\n      callvalue\n      dup1\n      iszero\n      tag_59\n      jumpi\n      0x00\n      dup1\n      revert\n    tag_59:\n      pop\n      tag_60\n      tag_61\n      jump\t// in\n    tag_60:\n      mload(0x40)\n      tag_62\n      swap2\n      swap1\n      tag_45\n      jump\t// in\n    tag_62:\n      mload(0x40)\n      dup1\n      swap2\n      sub\n      swap1\n      return\n        /* \"@openzeppelin/contracts/access/Ownable.sol\":1831:1932  function renounceOwnership() public virtual onlyOwner {... */\n    tag_11:\n      callvalue\n      dup1\n      iszero\n      tag_63\n      jumpi\n      0x00\n      dup1\n      revert\n    tag_63:\n      pop\n      tag_64\n      tag_65\n      jump\t// in\n    tag_64:\n      stop\n        /* \"backend/ABI/Forwarder.sol\":1932:1991  function pause() public onlyOwner {... */\n    tag_12:\n      callvalue\n      dup1\n      iszero\n      tag_66\n      jumpi\n      0x00\n      dup1\n      revert\n    tag_66:\n      pop\n      tag_67\n      tag_68\n      jump\t// in\n    tag_67:\n      stop\n        /* \"@openzeppelin/contracts/access/Ownable.sol\":1201:1286  function owner() public view virtual returns (address) {... */\n    tag_13:\n      callvalue\n      dup1\n      iszero\n      tag_69\n      jumpi\n      0x00\n      dup1\n      revert\n    tag_69:\n      pop\n      tag_70\n      tag_71\n      jump\t// in\n    tag_70:\n      mload(0x40)\n      tag_72\n      swap2\n      swap1\n      tag_73\n      jump\t// in\n    tag_72:\n      mload(0x40)\n      dup1\n      swap2\n      sub\n      swap1\n      return\n        /* \"backend/ABI/Forwarder.sol\":2835:3271  function verify(ForwardRequest calldata req, bytes calldata signature) public view returns (bool) {... */\n    tag_14:\n      callvalue\n      dup1\n      iszero\n      tag_74\n      jumpi\n      0x00\n      dup1\n      revert\n    tag_74:\n      pop\n      tag_75\n      0x04\n      dup1\n      calldatasize\n      sub\n      dup2\n      add\n      swap1\n      tag_76\n      swap2\n      swap1\n      tag_55\n      jump\t// in\n    tag_76:\n      tag_77\n      jump\t// in\n    tag_75:\n      mload(0x40)\n      tag_78\n      swap2\n      swap1\n      tag_45\n      jump\t// in\n    tag_78:\n      mload(0x40)\n      dup1\n      swap2\n      sub\n      swap1\n      return\n        /* \"@openzeppelin/contracts/access/Ownable.sol\":2081:2279  function transferOwnership(address newOwner) public virtual onlyOwner {... */\n    tag_15:\n      callvalue\n      dup1\n      iszero\n      tag_79\n      jumpi\n      0x00\n      dup1\n      revert\n    tag_79:\n      pop\n      tag_80\n      0x04\n      dup1\n      calldatasize\n      sub\n      dup2\n      add\n      swap1\n      tag_81\n      swap2\n      swap1\n      tag_22\n      jump\t// in\n    tag_81:\n      tag_82\n      jump\t// in\n    tag_80:\n      stop\n        /* \"backend/ABI/Forwarder.sol\":4849:5018  function removeSenderFromWhitelist(address sender) public onlyOwner() {... */\n    tag_23:\n        /* \"@openzeppelin/contracts/access/Ownable.sol\":1094:1107  _checkOwner() */\n      tag_84\n        /* \"@openzeppelin/contracts/access/Ownable.sol\":1094:1105  _checkOwner */\n      tag_85\n        /* \"@openzeppelin/contracts/access/Ownable.sol\":1094:1107  _checkOwner() */\n      jump\t// in\n    tag_84:\n        /* \"backend/ABI/Forwarder.sol\":4956:4961  false */\n      0x00\n        /* \"backend/ABI/Forwarder.sol\":4929:4945  _senderWhitelist */\n      0x02\n        /* \"backend/ABI/Forwarder.sol\":4929:4953  _senderWhitelist[sender] */\n      0x00\n        /* \"backend/ABI/Forwarder.sol\":4946:4952  sender */\n      dup4\n        /* \"backend/ABI/Forwarder.sol\":4929:4953  _senderWhitelist[sender] */\n      0xffffffffffffffffffffffffffffffffffffffff\n      and\n      0xffffffffffffffffffffffffffffffffffffffff\n      and\n      dup2\n      mstore\n      0x20\n      add\n      swap1\n      dup2\n      mstore\n      0x20\n      add\n      0x00\n      keccak256\n      0x00\n        /* \"backend/ABI/Forwarder.sol\":4929:4961  _senderWhitelist[sender] = false */\n      0x0100\n      exp\n      dup2\n      sload\n      dup2\n      0xff\n      mul\n      not\n      and\n      swap1\n      dup4\n      iszero\n      iszero\n      mul\n      or\n      swap1\n      sstore\n      pop\n        /* \"backend/ABI/Forwarder.sol\":5004:5010  sender */\n      dup1\n        /* \"backend/ABI/Forwarder.sol\":4976:5011  AddressRemovedFromWhitelist(sender) */\n      0xffffffffffffffffffffffffffffffffffffffff\n      and\n      0x535611fb62fa2a833988f283b779e417e996813e44046f521d76c17b5943b08c\n      mload(0x40)\n      mload(0x40)\n      dup1\n      swap2\n      sub\n      swap1\n      log2\n        /* \"backend/ABI/Forwarder.sol\":4849:5018  function removeSenderFromWhitelist(address sender) public onlyOwner() {... */\n      pop\n      jump\t// out\n        /* \"backend/ABI/Forwarder.sol\":5327:5499  function killForwarder(address payable payoutAddress) public onlyOwner() {... */\n    tag_28:\n        /* \"@openzeppelin/contracts/access/Ownable.sol\":1094:1107  _checkOwner() */\n      tag_88\n        /* \"@openzeppelin/contracts/access/Ownable.sol\":1094:1105  _checkOwner */\n      tag_85\n        /* \"@openzeppelin/contracts/access/Ownable.sol\":1094:1107  _checkOwner() */\n      jump\t// in\n    tag_88:\n        /* \"backend/ABI/Forwarder.sol\":5410:5423  payoutAddress */\n      dup1\n        /* \"backend/ABI/Forwarder.sol\":5410:5432  payoutAddress.transfer */\n      0xffffffffffffffffffffffffffffffffffffffff\n      and\n        /* \"backend/ABI/Forwarder.sol\":5410:5455  payoutAddress.transfer(address(this).balance) */\n      0x08fc\n        /* \"backend/ABI/Forwarder.sol\":5433:5454  address(this).balance */\n      selfbalance\n        /* \"backend/ABI/Forwarder.sol\":5410:5455  payoutAddress.transfer(address(this).balance) */\n      swap1\n      dup2\n      iszero\n      mul\n      swap1\n      mload(0x40)\n      0x00\n      mload(0x40)\n      dup1\n      dup4\n      sub\n      dup2\n      dup6\n      dup9\n      dup9\n      call\n      swap4\n      pop\n      pop\n      pop\n      pop\n      iszero\n      dup1\n      iszero\n      tag_91\n      jumpi\n      returndatasize\n      0x00\n      dup1\n      returndatacopy\n      revert(0x00, returndatasize)\n    tag_91:\n      pop\n        /* \"backend/ABI/Forwarder.sol\":5478:5491  payoutAddress */\n      dup1\n        /* \"backend/ABI/Forwarder.sol\":5465:5492  selfdestruct(payoutAddress) */\n      0xffffffffffffffffffffffffffffffffffffffff\n      and\n      selfdestruct\n        /* \"backend/ABI/Forwarder.sol\":2596:2695  function getNonce(address from) public view returns (uint256) {... */\n    tag_32:\n        /* \"backend/ABI/Forwarder.sol\":2649:2656  uint256 */\n      0x00\n        /* \"backend/ABI/Forwarder.sol\":2675:2682  _nonces */\n      0x01\n        /* \"backend/ABI/Forwarder.sol\":2675:2688  _nonces[from] */\n      0x00\n        /* \"backend/ABI/Forwarder.sol\":2683:2687  from */\n      dup4\n        /* \"backend/ABI/Forwarder.sol\":2675:2688  _nonces[from] */\n      0xffffffffffffffffffffffffffffffffffffffff\n      and\n      0xffffffffffffffffffffffffffffffffffffffff\n      and\n      dup2\n      mstore\n      0x20\n      add\n      swap1\n      dup2\n      mstore\n      0x20\n      add\n      0x00\n      keccak256\n      sload\n        /* \"backend/ABI/Forwarder.sol\":2668:2688  return _nonces[from] */\n      swap1\n      pop\n        /* \"backend/ABI/Forwarder.sol\":2596:2695  function getNonce(address from) public view returns (uint256) {... */\n      swap2\n      swap1\n      pop\n      jump\t// out\n        /* \"backend/ABI/Forwarder.sol\":2406:2510  function DOMAIN_SEPARATOR() external view returns (bytes32) {... */\n    tag_37:\n        /* \"backend/ABI/Forwarder.sol\":2457:2464  bytes32 */\n      0x00\n        /* \"backend/ABI/Forwarder.sol\":2483:2503  _domainSeparatorV4() */\n      tag_94\n        /* \"backend/ABI/Forwarder.sol\":2483:2501  _domainSeparatorV4 */\n      tag_95\n        /* \"backend/ABI/Forwarder.sol\":2483:2503  _domainSeparatorV4() */\n      jump\t// in\n    tag_94:\n        /* \"backend/ABI/Forwarder.sol\":2476:2503  return _domainSeparatorV4() */\n      swap1\n      pop\n        /* \"backend/ABI/Forwarder.sol\":2406:2510  function DOMAIN_SEPARATOR() external view returns (bytes32) {... */\n      swap1\n      jump\t// out\n        /* \"backend/ABI/Forwarder.sol\":5105:5219  function isWhitelisted(address sender) public view returns (bool) {... */\n    tag_43:\n        /* \"backend/ABI/Forwarder.sol\":5165:5169  bool */\n      0x00\n        /* \"backend/ABI/Forwarder.sol\":5188:5204  _senderWhitelist */\n      0x02\n        /* \"backend/ABI/Forwarder.sol\":5188:5212  _senderWhitelist[sender] */\n      0x00\n        /* \"backend/ABI/Forwarder.sol\":5205:5211  sender */\n      dup4\n        /* \"backend/ABI/Forwarder.sol\":5188:5212  _senderWhitelist[sender] */\n      0xffffffffffffffffffffffffffffffffffffffff\n      and\n      0xffffffffffffffffffffffffffffffffffffffff\n      and\n      dup2\n      mstore\n      0x20\n      add\n      swap1\n      dup2\n      mstore\n      0x20\n      add\n      0x00\n      keccak256\n      0x00\n      swap1\n      sload\n      swap1\n      0x0100\n      exp\n      swap1\n      div\n      0xff\n      and\n        /* \"backend/ABI/Forwarder.sol\":5181:5212  return _senderWhitelist[sender] */\n      swap1\n      pop\n        /* \"backend/ABI/Forwarder.sol\":5105:5219  function isWhitelisted(address sender) public view returns (bool) {... */\n      swap2\n      swap1\n      pop\n      jump\t// out\n        /* \"backend/ABI/Forwarder.sol\":4498:4799  function addSenderToWhitelist(address sender) public onlyOwner() {... */\n    tag_49:\n        /* \"@openzeppelin/contracts/access/Ownable.sol\":1094:1107  _checkOwner() */\n      tag_98\n        /* \"@openzeppelin/contracts/access/Ownable.sol\":1094:1105  _checkOwner */\n      tag_85\n        /* \"@openzeppelin/contracts/access/Ownable.sol\":1094:1107  _checkOwner() */\n      jump\t// in\n    tag_98:\n        /* \"backend/ABI/Forwarder.sol\":4582:4603  isWhitelisted(sender) */\n      tag_100\n        /* \"backend/ABI/Forwarder.sol\":4596:4602  sender */\n      dup2\n        /* \"backend/ABI/Forwarder.sol\":4582:4595  isWhitelisted */\n      tag_43\n        /* \"backend/ABI/Forwarder.sol\":4582:4603  isWhitelisted(sender) */\n      jump\t// in\n    tag_100:\n        /* \"backend/ABI/Forwarder.sol\":4581:4603  !isWhitelisted(sender) */\n      iszero\n        /* \"backend/ABI/Forwarder.sol\":4573:4659  require(!isWhitelisted(sender), \"AwlForwarder: sender address is already whitelisted\") */\n      tag_101\n      jumpi\n      mload(0x40)\n      0x08c379a000000000000000000000000000000000000000000000000000000000\n      dup2\n      mstore\n      0x04\n      add\n      tag_102\n      swap1\n      tag_103\n      jump\t// in\n    tag_102:\n      mload(0x40)\n      dup1\n      swap2\n      sub\n      swap1\n      revert\n    tag_101:\n        /* \"backend/ABI/Forwarder.sol\":4747:4751  true */\n      0x01\n        /* \"backend/ABI/Forwarder.sol\":4720:4736  _senderWhitelist */\n      0x02\n        /* \"backend/ABI/Forwarder.sol\":4720:4744  _senderWhitelist[sender] */\n      0x00\n        /* \"backend/ABI/Forwarder.sol\":4737:4743  sender */\n      dup4\n        /* \"backend/ABI/Forwarder.sol\":4720:4744  _senderWhitelist[sender] */\n      0xffffffffffffffffffffffffffffffffffffffff\n      and\n      0xffffffffffffffffffffffffffffffffffffffff\n      and\n      dup2\n      mstore\n      0x20\n      add\n      swap1\n      dup2\n      mstore\n      0x20\n      add\n      0x00\n      keccak256\n      0x00\n        /* \"backend/ABI/Forwarder.sol\":4720:4751  _senderWhitelist[sender] = true */\n      0x0100\n      exp\n      dup2\n      sload\n      dup2\n      0xff\n      mul\n      not\n      and\n      swap1\n      dup4\n      iszero\n      iszero\n      mul\n      or\n      swap1\n      sstore\n      pop\n        /* \"backend/ABI/Forwarder.sol\":4785:4791  sender */\n      dup1\n        /* \"backend/ABI/Forwarder.sol\":4766:4792  AddressWhitelisted(sender) */\n      0xffffffffffffffffffffffffffffffffffffffff\n      and\n      0x4f783c179409b4127238bc9c990bc99b9a651666a0d20b51d6c42849eb88466d\n      mload(0x40)\n      mload(0x40)\n      dup1\n      swap2\n      sub\n      swap1\n      log2\n        /* \"backend/ABI/Forwarder.sol\":4498:4799  function addSenderToWhitelist(address sender) public onlyOwner() {... */\n      pop\n      jump\t// out\n        /* \"backend/ABI/Forwarder.sol\":2100:2163  function unpause() public onlyOwner {... */\n    tag_52:\n        /* \"@openzeppelin/contracts/access/Ownable.sol\":1094:1107  _checkOwner() */\n      tag_105\n        /* \"@openzeppelin/contracts/access/Ownable.sol\":1094:1105  _checkOwner */\n      tag_85\n        /* \"@openzeppelin/contracts/access/Ownable.sol\":1094:1107  _checkOwner() */\n      jump\t// in\n    tag_105:\n        /* \"backend/ABI/Forwarder.sol\":2146:2156  _unpause() */\n      tag_107\n        /* \"backend/ABI/Forwarder.sol\":2146:2154  _unpause */\n      tag_108\n        /* \"backend/ABI/Forwarder.sol\":2146:2156  _unpause() */\n      jump\t// in\n    tag_107:\n        /* \"backend/ABI/Forwarder.sol\":2100:2163  function unpause() public onlyOwner {... */\n      jump\t// out\n        /* \"backend/ABI/Forwarder.sol\":3357:4408  function execute(ForwardRequest calldata req, bytes calldata signature) public payable whenNotPaused() returns (bool, bytes memory) {... */\n    tag_56:\n        /* \"backend/ABI/Forwarder.sol\":3469:3473  bool */\n      0x00\n        /* \"backend/ABI/Forwarder.sol\":3475:3487  bytes memory */\n      0x60\n        /* \"@openzeppelin/contracts/security/Pausable.sol\":1239:1258  _requireNotPaused() */\n      tag_110\n        /* \"@openzeppelin/contracts/security/Pausable.sol\":1239:1256  _requireNotPaused */\n      tag_111\n        /* \"@openzeppelin/contracts/security/Pausable.sol\":1239:1258  _requireNotPaused() */\n      jump\t// in\n    tag_110:\n        /* \"backend/ABI/Forwarder.sol\":3507:3523  _senderWhitelist */\n      0x02\n        /* \"backend/ABI/Forwarder.sol\":3507:3535  _senderWhitelist[msg.sender] */\n      0x00\n        /* \"backend/ABI/Forwarder.sol\":3524:3534  msg.sender */\n      caller\n        /* \"backend/ABI/Forwarder.sol\":3507:3535  _senderWhitelist[msg.sender] */\n      0xffffffffffffffffffffffffffffffffffffffff\n      and\n      0xffffffffffffffffffffffffffffffffffffffff\n      and\n      dup2\n      mstore\n      0x20\n      add\n      swap1\n      dup2\n      mstore\n      0x20\n      add\n      0x00\n      keccak256\n      0x00\n      swap1\n      sload\n      swap1\n      0x0100\n      exp\n      swap1\n      div\n      0xff\n      and\n        /* \"backend/ABI/Forwarder.sol\":3499:3599  require(_senderWhitelist[msg.sender], \"AwlForwarder: sender of meta-transaction is not whitelisted\") */\n      tag_113\n      jumpi\n      mload(0x40)\n      0x08c379a000000000000000000000000000000000000000000000000000000000\n      dup2\n      mstore\n      0x04\n      add\n      tag_114\n      swap1\n      tag_115\n      jump\t// in\n    tag_114:\n      mload(0x40)\n      dup1\n      swap2\n      sub\n      swap1\n      revert\n    tag_113:\n        /* \"backend/ABI/Forwarder.sol\":3617:3639  verify(req, signature) */\n      tag_116\n        /* \"backend/ABI/Forwarder.sol\":3624:3627  req */\n      dup6\n        /* \"backend/ABI/Forwarder.sol\":3629:3638  signature */\n      dup6\n      dup6\n        /* \"backend/ABI/Forwarder.sol\":3617:3623  verify */\n      tag_77\n        /* \"backend/ABI/Forwarder.sol\":3617:3639  verify(req, signature) */\n      jump\t// in\n    tag_116:\n        /* \"backend/ABI/Forwarder.sol\":3609:3690  require(verify(req, signature), \"AwlForwarder: signature does not match request\") */\n      tag_117\n      jumpi\n      mload(0x40)\n      0x08c379a000000000000000000000000000000000000000000000000000000000\n      dup2\n      mstore\n      0x04\n      add\n      tag_118\n      swap1\n      tag_119\n      jump\t// in\n    tag_118:\n      mload(0x40)\n      dup1\n      swap2\n      sub\n      swap1\n      revert\n    tag_117:\n        /* \"backend/ABI/Forwarder.sol\":3711:3723  bool success */\n      0x00\n        /* \"backend/ABI/Forwarder.sol\":3725:3748  bytes memory returndata */\n      dup1\n        /* \"backend/ABI/Forwarder.sol\":3752:3755  req */\n      dup7\n        /* \"backend/ABI/Forwarder.sol\":3752:3758  req.to */\n      0x20\n      add\n      0x20\n      dup2\n      add\n      swap1\n      tag_120\n      swap2\n      swap1\n      tag_22\n      jump\t// in\n    tag_120:\n        /* \"backend/ABI/Forwarder.sol\":3752:3763  req.to.call */\n      0xffffffffffffffffffffffffffffffffffffffff\n      and\n        /* \"backend/ABI/Forwarder.sol\":3769:3772  req */\n      dup8\n        /* \"backend/ABI/Forwarder.sol\":3769:3776  req.gas */\n      0x60\n      add\n      calldataload\n        /* \"backend/ABI/Forwarder.sol\":3785:3788  req */\n      dup9\n        /* \"backend/ABI/Forwarder.sol\":3785:3794  req.value */\n      0x40\n      add\n      calldataload\n        /* \"backend/ABI/Forwarder.sol\":3813:3816  req */\n      dup10\n        /* \"backend/ABI/Forwarder.sol\":3813:3821  req.data */\n      dup1\n      0xa0\n      add\n      swap1\n      tag_121\n      swap2\n      swap1\n      tag_122\n      jump\t// in\n    tag_121:\n        /* \"backend/ABI/Forwarder.sol\":3823:3826  req */\n      dup12\n        /* \"backend/ABI/Forwarder.sol\":3823:3831  req.from */\n      0x00\n      add\n      0x20\n      dup2\n      add\n      swap1\n      tag_123\n      swap2\n      swap1\n      tag_22\n      jump\t// in\n    tag_123:\n        /* \"backend/ABI/Forwarder.sol\":3796:3832  abi.encodePacked(req.data, req.from) */\n      add(0x20, mload(0x40))\n      tag_124\n      swap4\n      swap3\n      swap2\n      swap1\n      tag_125\n      jump\t// in\n    tag_124:\n      mload(0x40)\n      0x20\n      dup2\n      dup4\n      sub\n      sub\n      dup2\n      mstore\n      swap1\n      0x40\n      mstore\n        /* \"backend/ABI/Forwarder.sol\":3752:3833  req.to.call{gas: req.gas, value: req.value}(abi.encodePacked(req.data, req.from)) */\n      mload(0x40)\n      tag_126\n      swap2\n      swap1\n      tag_127\n      jump\t// in\n    tag_126:\n      0x00\n      mload(0x40)\n      dup1\n      dup4\n      sub\n      dup2\n      dup6\n      dup9\n      dup9\n      call\n      swap4\n      pop\n      pop\n      pop\n      pop\n      returndatasize\n      dup1\n      0x00\n      dup2\n      eq\n      tag_130\n      jumpi\n      mload(0x40)\n      swap2\n      pop\n      and(add(returndatasize, 0x3f), not(0x1f))\n      dup3\n      add\n      0x40\n      mstore\n      returndatasize\n      dup3\n      mstore\n      returndatasize\n      0x00\n      0x20\n      dup5\n      add\n      returndatacopy\n      jump(tag_129)\n    tag_130:\n      0x60\n      swap2\n      pop\n    tag_129:\n      pop\n        /* \"backend/ABI/Forwarder.sol\":3710:3833  (bool success, bytes memory returndata) = req.to.call{gas: req.gas, value: req.value}(abi.encodePacked(req.data, req.from)) */\n      swap2\n      pop\n      swap2\n      pop\n        /* \"backend/ABI/Forwarder.sol\":3858:3865  success */\n      dup2\n        /* \"backend/ABI/Forwarder.sol\":3853:4066  if (!success) {... */\n      tag_131\n      jumpi\n        /* \"backend/ABI/Forwarder.sol\":3985:4001  returndatasize() */\n      returndatasize\n        /* \"backend/ABI/Forwarder.sol\":3982:3983  0 */\n      0x00\n        /* \"backend/ABI/Forwarder.sol\":3979:3980  0 */\n      dup1\n        /* \"backend/ABI/Forwarder.sol\":3964:4002  returndatacopy(0, 0, returndatasize()) */\n      returndatacopy\n        /* \"backend/ABI/Forwarder.sol\":4025:4041  returndatasize() */\n      returndatasize\n        /* \"backend/ABI/Forwarder.sol\":4022:4023  0 */\n      0x00\n        /* \"backend/ABI/Forwarder.sol\":4015:4042  revert(0, returndatasize()) */\n      revert\n        /* \"backend/ABI/Forwarder.sol\":3853:4066  if (!success) {... */\n    tag_131:\n        /* \"backend/ABI/Forwarder.sol\":4381:4388  success */\n      dup2\n        /* \"backend/ABI/Forwarder.sol\":4390:4400  returndata */\n      dup2\n        /* \"backend/ABI/Forwarder.sol\":4373:4401  return (success, returndata) */\n      swap4\n      pop\n      swap4\n      pop\n      pop\n      pop\n        /* \"backend/ABI/Forwarder.sol\":3357:4408  function execute(ForwardRequest calldata req, bytes calldata signature) public payable whenNotPaused() returns (bool, bytes memory) {... */\n      swap4\n      pop\n      swap4\n      swap2\n      pop\n      pop\n      jump\t// out\n        /* \"@openzeppelin/contracts/security/Pausable.sol\":1615:1699  function paused() public view virtual returns (bool) {... */\n    tag_61:\n        /* \"@openzeppelin/contracts/security/Pausable.sol\":1662:1666  bool */\n      0x00\n        /* \"@openzeppelin/contracts/security/Pausable.sol\":1685:1692  _paused */\n      dup1\n      0x14\n      swap1\n      sload\n      swap1\n      0x0100\n      exp\n      swap1\n      div\n      0xff\n      and\n        /* \"@openzeppelin/contracts/security/Pausable.sol\":1678:1692  return _paused */\n      swap1\n      pop\n        /* \"@openzeppelin/contracts/security/Pausable.sol\":1615:1699  function paused() public view virtual returns (bool) {... */\n      swap1\n      jump\t// out\n        /* \"@openzeppelin/contracts/access/Ownable.sol\":1831:1932  function renounceOwnership() public virtual onlyOwner {... */\n    tag_65:\n        /* \"@openzeppelin/contracts/access/Ownable.sol\":1094:1107  _checkOwner() */\n      tag_134\n        /* \"@openzeppelin/contracts/access/Ownable.sol\":1094:1105  _checkOwner */\n      tag_85\n        /* \"@openzeppelin/contracts/access/Ownable.sol\":1094:1107  _checkOwner() */\n      jump\t// in\n    tag_134:\n        /* \"@openzeppelin/contracts/access/Ownable.sol\":1895:1925  _transferOwnership(address(0)) */\n      tag_136\n        /* \"@openzeppelin/contracts/access/Ownable.sol\":1922:1923  0 */\n      0x00\n        /* \"@openzeppelin/contracts/access/Ownable.sol\":1895:1913  _transferOwnership */\n      tag_137\n        /* \"@openzeppelin/contracts/access/Ownable.sol\":1895:1925  _transferOwnership(address(0)) */\n      jump\t// in\n    tag_136:\n        /* \"@openzeppelin/contracts/access/Ownable.sol\":1831:1932  function renounceOwnership() public virtual onlyOwner {... */\n      jump\t// out\n        /* \"backend/ABI/Forwarder.sol\":1932:1991  function pause() public onlyOwner {... */\n    tag_68:\n        /* \"@openzeppelin/contracts/access/Ownable.sol\":1094:1107  _checkOwner() */\n      tag_139\n        /* \"@openzeppelin/contracts/access/Ownable.sol\":1094:1105  _checkOwner */\n      tag_85\n        /* \"@openzeppelin/contracts/access/Ownable.sol\":1094:1107  _checkOwner() */\n      jump\t// in\n    tag_139:\n        /* \"backend/ABI/Forwarder.sol\":1976:1984  _pause() */\n      tag_141\n        /* \"backend/ABI/Forwarder.sol\":1976:1982  _pause */\n      tag_142\n        /* \"backend/ABI/Forwarder.sol\":1976:1984  _pause() */\n      jump\t// in\n    tag_141:\n        /* \"backend/ABI/Forwarder.sol\":1932:1991  function pause() public onlyOwner {... */\n      jump\t// out\n        /* \"@openzeppelin/contracts/access/Ownable.sol\":1201:1286  function owner() public view virtual returns (address) {... */\n    tag_71:\n        /* \"@openzeppelin/contracts/access/Ownable.sol\":1247:1254  address */\n      0x00\n        /* \"@openzeppelin/contracts/access/Ownable.sol\":1273:1279  _owner */\n      dup1\n      0x00\n      swap1\n      sload\n      swap1\n      0x0100\n      exp\n      swap1\n      div\n      0xffffffffffffffffffffffffffffffffffffffff\n      and\n        /* \"@openzeppelin/contracts/access/Ownable.sol\":1266:1279  return _owner */\n      swap1\n      pop\n        /* \"@openzeppelin/contracts/access/Ownable.sol\":1201:1286  function owner() public view virtual returns (address) {... */\n      swap1\n      jump\t// out\n        /* \"backend/ABI/Forwarder.sol\":2835:3271  function verify(ForwardRequest calldata req, bytes calldata signature) public view returns (bool) {... */\n    tag_77:\n        /* \"backend/ABI/Forwarder.sol\":2927:2931  bool */\n      0x00\n        /* \"backend/ABI/Forwarder.sol\":2943:2957  address signer */\n      dup1\n        /* \"backend/ABI/Forwarder.sol\":2960:3193  _hashTypedDataV4(keccak256(abi.encode(... */\n      tag_145\n        /* \"backend/ABI/Forwarder.sol\":3183:3192  signature */\n      dup5\n      dup5\n        /* \"backend/ABI/Forwarder.sol\":2960:3193  _hashTypedDataV4(keccak256(abi.encode(... */\n      dup1\n      dup1\n      0x1f\n      add\n      0x20\n      dup1\n      swap2\n      div\n      mul\n      0x20\n      add\n      mload(0x40)\n      swap1\n      dup2\n      add\n      0x40\n      mstore\n      dup1\n      swap4\n      swap3\n      swap2\n      swap1\n      dup2\n      dup2\n      mstore\n      0x20\n      add\n      dup4\n      dup4\n      dup1\n      dup3\n      dup5\n      calldatacopy\n      0x00\n      dup2\n      dup5\n      add\n      mstore\n      not(0x1f)\n      0x1f\n      dup3\n      add\n      and\n      swap1\n      pop\n      dup1\n      dup4\n      add\n      swap3\n      pop\n      pop\n      pop\n      pop\n      pop\n      pop\n      pop\n        /* \"backend/ABI/Forwarder.sol\":2960:3174  _hashTypedDataV4(keccak256(abi.encode(... */\n      tag_146\n        /* \"backend/ABI/Forwarder.sol\":1219:1322  keccak256(\"ForwardRequest(address from,address to,uint256 value,uint256 gas,uint256 nonce,bytes data)\") */\n      0xdd8f4b70b0f4393e889bd39128a30628a78b61816a9eb8199759e7a349657e48\n        /* \"backend/ABI/Forwarder.sol\":3034:3037  req */\n      dup9\n        /* \"backend/ABI/Forwarder.sol\":3034:3042  req.from */\n      0x00\n      add\n      0x20\n      dup2\n      add\n      swap1\n      tag_147\n      swap2\n      swap1\n      tag_22\n      jump\t// in\n    tag_147:\n        /* \"backend/ABI/Forwarder.sol\":3056:3059  req */\n      dup10\n        /* \"backend/ABI/Forwarder.sol\":3056:3062  req.to */\n      0x20\n      add\n      0x20\n      dup2\n      add\n      swap1\n      tag_148\n      swap2\n      swap1\n      tag_22\n      jump\t// in\n    tag_148:\n        /* \"backend/ABI/Forwarder.sol\":3076:3079  req */\n      dup11\n        /* \"backend/ABI/Forwarder.sol\":3076:3085  req.value */\n      0x40\n      add\n      calldataload\n        /* \"backend/ABI/Forwarder.sol\":3099:3102  req */\n      dup12\n        /* \"backend/ABI/Forwarder.sol\":3099:3106  req.gas */\n      0x60\n      add\n      calldataload\n        /* \"backend/ABI/Forwarder.sol\":3120:3123  req */\n      dup13\n        /* \"backend/ABI/Forwarder.sol\":3120:3129  req.nonce */\n      0x80\n      add\n      calldataload\n        /* \"backend/ABI/Forwarder.sol\":3153:3156  req */\n      dup14\n        /* \"backend/ABI/Forwarder.sol\":3153:3161  req.data */\n      dup1\n      0xa0\n      add\n      swap1\n      tag_149\n      swap2\n      swap1\n      tag_122\n      jump\t// in\n    tag_149:\n        /* \"backend/ABI/Forwarder.sol\":3143:3162  keccak256(req.data) */\n      mload(0x40)\n      tag_150\n      swap3\n      swap2\n      swap1\n      tag_151\n      jump\t// in\n    tag_150:\n      mload(0x40)\n      dup1\n      swap2\n      sub\n      swap1\n      keccak256\n        /* \"backend/ABI/Forwarder.sol\":2987:3172  abi.encode(... */\n      add(0x20, mload(0x40))\n      tag_152\n      swap8\n      swap7\n      swap6\n      swap5\n      swap4\n      swap3\n      swap2\n      swap1\n      tag_153\n      jump\t// in\n    tag_152:\n      mload(0x40)\n      0x20\n      dup2\n      dup4\n      sub\n      sub\n      dup2\n      mstore\n      swap1\n      0x40\n      mstore\n        /* \"backend/ABI/Forwarder.sol\":2977:3173  keccak256(abi.encode(... */\n      dup1\n      mload\n      swap1\n      0x20\n      add\n      keccak256\n        /* \"backend/ABI/Forwarder.sol\":2960:2976  _hashTypedDataV4 */\n      tag_154\n        /* \"backend/ABI/Forwarder.sol\":2960:3174  _hashTypedDataV4(keccak256(abi.encode(... */\n      jump\t// in\n    tag_146:\n        /* \"backend/ABI/Forwarder.sol\":2960:3182  _hashTypedDataV4(keccak256(abi.encode(... */\n      tag_155\n      swap1\n        /* \"backend/ABI/Forwarder.sol\":2960:3193  _hashTypedDataV4(keccak256(abi.encode(... */\n      swap2\n      swap1\n      0xffffffff\n      and\n      jump\t// in\n    tag_145:\n        /* \"backend/ABI/Forwarder.sol\":2943:3193  address signer = _hashTypedDataV4(keccak256(abi.encode(... */\n      swap1\n      pop\n        /* \"backend/ABI/Forwarder.sol\":3233:3236  req */\n      dup5\n        /* \"backend/ABI/Forwarder.sol\":3233:3242  req.nonce */\n      0x80\n      add\n      calldataload\n        /* \"backend/ABI/Forwarder.sol\":3212:3219  _nonces */\n      0x01\n        /* \"backend/ABI/Forwarder.sol\":3212:3229  _nonces[req.from] */\n      0x00\n        /* \"backend/ABI/Forwarder.sol\":3220:3223  req */\n      dup8\n        /* \"backend/ABI/Forwarder.sol\":3220:3228  req.from */\n      0x00\n      add\n      0x20\n      dup2\n      add\n      swap1\n      tag_156\n      swap2\n      swap1\n      tag_22\n      jump\t// in\n    tag_156:\n        /* \"backend/ABI/Forwarder.sol\":3212:3229  _nonces[req.from] */\n      0xffffffffffffffffffffffffffffffffffffffff\n      and\n      0xffffffffffffffffffffffffffffffffffffffff\n      and\n      dup2\n      mstore\n      0x20\n      add\n      swap1\n      dup2\n      mstore\n      0x20\n      add\n      0x00\n      keccak256\n      sload\n        /* \"backend/ABI/Forwarder.sol\":3212:3242  _nonces[req.from] == req.nonce */\n      eq\n        /* \"backend/ABI/Forwarder.sol\":3212:3264  _nonces[req.from] == req.nonce && signer == req.from */\n      dup1\n      iszero\n      tag_157\n      jumpi\n      pop\n        /* \"backend/ABI/Forwarder.sol\":3256:3259  req */\n      dup5\n        /* \"backend/ABI/Forwarder.sol\":3256:3264  req.from */\n      0x00\n      add\n      0x20\n      dup2\n      add\n      swap1\n      tag_158\n      swap2\n      swap1\n      tag_22\n      jump\t// in\n    tag_158:\n        /* \"backend/ABI/Forwarder.sol\":3246:3264  signer == req.from */\n      0xffffffffffffffffffffffffffffffffffffffff\n      and\n        /* \"backend/ABI/Forwarder.sol\":3246:3252  signer */\n      dup2\n        /* \"backend/ABI/Forwarder.sol\":3246:3264  signer == req.from */\n      0xffffffffffffffffffffffffffffffffffffffff\n      and\n      eq\n        /* \"backend/ABI/Forwarder.sol\":3212:3264  _nonces[req.from] == req.nonce && signer == req.from */\n    tag_157:\n        /* \"backend/ABI/Forwarder.sol\":3205:3264  return _nonces[req.from] == req.nonce && signer == req.from */\n      swap2\n      pop\n      pop\n        /* \"backend/ABI/Forwarder.sol\":2835:3271  function verify(ForwardRequest calldata req, bytes calldata signature) public view returns (bool) {... */\n      swap4\n      swap3\n      pop\n      pop\n      pop\n      jump\t// out\n        /* \"@openzeppelin/contracts/access/Ownable.sol\":2081:2279  function transferOwnership(address newOwner) public virtual onlyOwner {... */\n    tag_82:\n        /* \"@openzeppelin/contracts/access/Ownable.sol\":1094:1107  _checkOwner() */\n      tag_160\n        /* \"@openzeppelin/contracts/access/Ownable.sol\":1094:1105  _checkOwner */\n      tag_85\n        /* \"@openzeppelin/contracts/access/Ownable.sol\":1094:1107  _checkOwner() */\n      jump\t// in\n    tag_160:\n        /* \"@openzeppelin/contracts/access/Ownable.sol\":2189:2190  0 */\n      0x00\n        /* \"@openzeppelin/contracts/access/Ownable.sol\":2169:2191  newOwner != address(0) */\n      0xffffffffffffffffffffffffffffffffffffffff\n      and\n        /* \"@openzeppelin/contracts/access/Ownable.sol\":2169:2177  newOwner */\n      dup2\n        /* \"@openzeppelin/contracts/access/Ownable.sol\":2169:2191  newOwner != address(0) */\n      0xffffffffffffffffffffffffffffffffffffffff\n      and\n      eq\n      iszero\n        /* \"@openzeppelin/contracts/access/Ownable.sol\":2161:2234  require(newOwner != address(0), \"Ownable: new owner is the zero address\") */\n      tag_162\n      jumpi\n      mload(0x40)\n      0x08c379a000000000000000000000000000000000000000000000000000000000\n      dup2\n      mstore\n      0x04\n      add\n      tag_163\n      swap1\n      tag_164\n      jump\t// in\n    tag_163:\n      mload(0x40)\n      dup1\n      swap2\n      sub\n      swap1\n      revert\n    tag_162:\n        /* \"@openzeppelin/contracts/access/Ownable.sol\":2244:2272  _transferOwnership(newOwner) */\n      tag_165\n        /* \"@openzeppelin/contracts/access/Ownable.sol\":2263:2271  newOwner */\n      dup2\n        /* \"@openzeppelin/contracts/access/Ownable.sol\":2244:2262  _transferOwnership */\n      tag_137\n        /* \"@openzeppelin/contracts/access/Ownable.sol\":2244:2272  _transferOwnership(newOwner) */\n      jump\t// in\n    tag_165:\n        /* \"@openzeppelin/contracts/access/Ownable.sol\":2081:2279  function transferOwnership(address newOwner) public virtual onlyOwner {... */\n      pop\n      jump\t// out\n        /* \"@openzeppelin/contracts/access/Ownable.sol\":1359:1489  function _checkOwner() internal view virtual {... */\n    tag_85:\n        /* \"@openzeppelin/contracts/access/Ownable.sol\":1433:1445  _msgSender() */\n      tag_167\n        /* \"@openzeppelin/contracts/access/Ownable.sol\":1433:1443  _msgSender */\n      tag_168\n        /* \"@openzeppelin/contracts/access/Ownable.sol\":1433:1445  _msgSender() */\n      jump\t// in\n    tag_167:\n        /* \"@openzeppelin/contracts/access/Ownable.sol\":1422:1445  owner() == _msgSender() */\n      0xffffffffffffffffffffffffffffffffffffffff\n      and\n        /* \"@openzeppelin/contracts/access/Ownable.sol\":1422:1429  owner() */\n      tag_169\n        /* \"@openzeppelin/contracts/access/Ownable.sol\":1422:1427  owner */\n      tag_71\n        /* \"@openzeppelin/contracts/access/Ownable.sol\":1422:1429  owner() */\n      jump\t// in\n    tag_169:\n        /* \"@openzeppelin/contracts/access/Ownable.sol\":1422:1445  owner() == _msgSender() */\n      0xffffffffffffffffffffffffffffffffffffffff\n      and\n      eq\n        /* \"@openzeppelin/contracts/access/Ownable.sol\":1414:1482  require(owner() == _msgSender(), \"Ownable: caller is not the owner\") */\n      tag_170\n      jumpi\n      mload(0x40)\n      0x08c379a000000000000000000000000000000000000000000000000000000000\n      dup2\n      mstore\n      0x04\n      add\n      tag_171\n      swap1\n      tag_172\n      jump\t// in\n    tag_171:\n      mload(0x40)\n      dup1\n      swap2\n      sub\n      swap1\n      revert\n    tag_170:\n        /* \"@openzeppelin/contracts/access/Ownable.sol\":1359:1489  function _checkOwner() internal view virtual {... */\n      jump\t// out\n        /* \"@openzeppelin/contracts/utils/cryptography/draft-EIP712.sol\":3143:3451  function _domainSeparatorV4() internal view returns (bytes32) {... */\n    tag_95:\n        /* \"@openzeppelin/contracts/utils/cryptography/draft-EIP712.sol\":3196:3203  bytes32 */\n      0x00\n        /* \"@openzeppelin/contracts/utils/cryptography/draft-EIP712.sol\":3236:3248  _CACHED_THIS */\n      immutable(\"0xbda815a50f48336819a6391bc95cca482a76d85f1813f467db3ee63324be36d6\")\n        /* \"@openzeppelin/contracts/utils/cryptography/draft-EIP712.sol\":3219:3248  address(this) == _CACHED_THIS */\n      0xffffffffffffffffffffffffffffffffffffffff\n      and\n        /* \"@openzeppelin/contracts/utils/cryptography/draft-EIP712.sol\":3227:3231  this */\n      address\n        /* \"@openzeppelin/contracts/utils/cryptography/draft-EIP712.sol\":3219:3248  address(this) == _CACHED_THIS */\n      0xffffffffffffffffffffffffffffffffffffffff\n      and\n      eq\n        /* \"@openzeppelin/contracts/utils/cryptography/draft-EIP712.sol\":3219:3285  address(this) == _CACHED_THIS && block.chainid == _CACHED_CHAIN_ID */\n      dup1\n      iszero\n      tag_174\n      jumpi\n      pop\n        /* \"@openzeppelin/contracts/utils/cryptography/draft-EIP712.sol\":3269:3285  _CACHED_CHAIN_ID */\n      immutable(\"0x80046239d0e28cf6c0221b22ef80ce990ee03b0a35f78590284e97769d9005a4\")\n        /* \"@openzeppelin/contracts/utils/cryptography/draft-EIP712.sol\":3252:3265  block.chainid */\n      chainid\n        /* \"@openzeppelin/contracts/utils/cryptography/draft-EIP712.sol\":3252:3285  block.chainid == _CACHED_CHAIN_ID */\n      eq\n        /* \"@openzeppelin/contracts/utils/cryptography/draft-EIP712.sol\":3219:3285  address(this) == _CACHED_THIS && block.chainid == _CACHED_CHAIN_ID */\n    tag_174:\n        /* \"@openzeppelin/contracts/utils/cryptography/draft-EIP712.sol\":3215:3445  if (address(this) == _CACHED_THIS && block.chainid == _CACHED_CHAIN_ID) {... */\n      iszero\n      tag_175\n      jumpi\n        /* \"@openzeppelin/contracts/utils/cryptography/draft-EIP712.sol\":3308:3332  _CACHED_DOMAIN_SEPARATOR */\n      immutable(\"0x383baa7e6b33a701af53854870664f38896837b53952cefa54b794c13b086139\")\n        /* \"@openzeppelin/contracts/utils/cryptography/draft-EIP712.sol\":3301:3332  return _CACHED_DOMAIN_SEPARATOR */\n      swap1\n      pop\n      jump(tag_173)\n        /* \"@openzeppelin/contracts/utils/cryptography/draft-EIP712.sol\":3215:3445  if (address(this) == _CACHED_THIS && block.chainid == _CACHED_CHAIN_ID) {... */\n    tag_175:\n        /* \"@openzeppelin/contracts/utils/cryptography/draft-EIP712.sol\":3370:3434  _buildDomainSeparator(_TYPE_HASH, _HASHED_NAME, _HASHED_VERSION) */\n      tag_177\n        /* \"@openzeppelin/contracts/utils/cryptography/draft-EIP712.sol\":3392:3402  _TYPE_HASH */\n      immutable(\"0xd74e387d4432eb204e29b4c33d69dbbd245bbe36fa789e0c9387d7c3d660708c\")\n        /* \"@openzeppelin/contracts/utils/cryptography/draft-EIP712.sol\":3404:3416  _HASHED_NAME */\n      immutable(\"0x223a9960abfee9b862a549f358689d8ea993231446f3ca87ded4b2d64c88e95b\")\n        /* \"@openzeppelin/contracts/utils/cryptography/draft-EIP712.sol\":3418:3433  _HASHED_VERSION */\n      immutable(\"0x384529d05d7b418bf35f37fb665a63d99a6575ccebe6d2c5b36ee4506c5baf28\")\n        /* \"@openzeppelin/contracts/utils/cryptography/draft-EIP712.sol\":3370:3391  _buildDomainSeparator */\n      tag_178\n        /* \"@openzeppelin/contracts/utils/cryptography/draft-EIP712.sol\":3370:3434  _buildDomainSeparator(_TYPE_HASH, _HASHED_NAME, _HASHED_VERSION) */\n      jump\t// in\n    tag_177:\n        /* \"@openzeppelin/contracts/utils/cryptography/draft-EIP712.sol\":3363:3434  return _buildDomainSeparator(_TYPE_HASH, _HASHED_NAME, _HASHED_VERSION) */\n      swap1\n      pop\n        /* \"@openzeppelin/contracts/utils/cryptography/draft-EIP712.sol\":3143:3451  function _domainSeparatorV4() internal view returns (bytes32) {... */\n    tag_173:\n      swap1\n      jump\t// out\n        /* \"@openzeppelin/contracts/security/Pausable.sol\":2433:2550  function _unpause() internal virtual whenPaused {... */\n    tag_108:\n        /* \"@openzeppelin/contracts/security/Pausable.sol\":1486:1502  _requirePaused() */\n      tag_180\n        /* \"@openzeppelin/contracts/security/Pausable.sol\":1486:1500  _requirePaused */\n      tag_181\n        /* \"@openzeppelin/contracts/security/Pausable.sol\":1486:1502  _requirePaused() */\n      jump\t// in\n    tag_180:\n        /* \"@openzeppelin/contracts/security/Pausable.sol\":2501:2506  false */\n      0x00\n        /* \"@openzeppelin/contracts/security/Pausable.sol\":2491:2498  _paused */\n      dup1\n      0x14\n        /* \"@openzeppelin/contracts/security/Pausable.sol\":2491:2506  _paused = false */\n      0x0100\n      exp\n      dup2\n      sload\n      dup2\n      0xff\n      mul\n      not\n      and\n      swap1\n      dup4\n      iszero\n      iszero\n      mul\n      or\n      swap1\n      sstore\n      pop\n        /* \"@openzeppelin/contracts/security/Pausable.sol\":2521:2543  Unpaused(_msgSender()) */\n      0x5db9ee0a495bf2e6ff9c91a7834c1ba4fdd244a5e8aa4e537bd38aeae4b073aa\n        /* \"@openzeppelin/contracts/security/Pausable.sol\":2530:2542  _msgSender() */\n      tag_183\n        /* \"@openzeppelin/contracts/security/Pausable.sol\":2530:2540  _msgSender */\n      tag_168\n        /* \"@openzeppelin/contracts/security/Pausable.sol\":2530:2542  _msgSender() */\n      jump\t// in\n    tag_183:\n        /* \"@openzeppelin/contracts/security/Pausable.sol\":2521:2543  Unpaused(_msgSender()) */\n      mload(0x40)\n      tag_184\n      swap2\n      swap1\n      tag_73\n      jump\t// in\n    tag_184:\n      mload(0x40)\n      dup1\n      swap2\n      sub\n      swap1\n      log1\n        /* \"@openzeppelin/contracts/security/Pausable.sol\":2433:2550  function _unpause() internal virtual whenPaused {... */\n      jump\t// out\n        /* \"@openzeppelin/contracts/security/Pausable.sol\":1767:1873  function _requireNotPaused() internal view virtual {... */\n    tag_111:\n        /* \"@openzeppelin/contracts/security/Pausable.sol\":1837:1845  paused() */\n      tag_186\n        /* \"@openzeppelin/contracts/security/Pausable.sol\":1837:1843  paused */\n      tag_61\n        /* \"@openzeppelin/contracts/security/Pausable.sol\":1837:1845  paused() */\n      jump\t// in\n    tag_186:\n        /* \"@openzeppelin/contracts/security/Pausable.sol\":1836:1845  !paused() */\n      iszero\n        /* \"@openzeppelin/contracts/security/Pausable.sol\":1828:1866  require(!paused(), \"Pausable: paused\") */\n      tag_187\n      jumpi\n      mload(0x40)\n      0x08c379a000000000000000000000000000000000000000000000000000000000\n      dup2\n      mstore\n      0x04\n      add\n      tag_188\n      swap1\n      tag_189\n      jump\t// in\n    tag_188:\n      mload(0x40)\n      dup1\n      swap2\n      sub\n      swap1\n      revert\n    tag_187:\n        /* \"@openzeppelin/contracts/security/Pausable.sol\":1767:1873  function _requireNotPaused() internal view virtual {... */\n      jump\t// out\n        /* \"@openzeppelin/contracts/access/Ownable.sol\":2433:2620  function _transferOwnership(address newOwner) internal virtual {... */\n    tag_137:\n        /* \"@openzeppelin/contracts/access/Ownable.sol\":2506:2522  address oldOwner */\n      0x00\n        /* \"@openzeppelin/contracts/access/Ownable.sol\":2525:2531  _owner */\n      dup1\n      0x00\n      swap1\n      sload\n      swap1\n      0x0100\n      exp\n      swap1\n      div\n      0xffffffffffffffffffffffffffffffffffffffff\n      and\n        /* \"@openzeppelin/contracts/access/Ownable.sol\":2506:2531  address oldOwner = _owner */\n      swap1\n      pop\n        /* \"@openzeppelin/contracts/access/Ownable.sol\":2550:2558  newOwner */\n      dup2\n        /* \"@openzeppelin/contracts/access/Ownable.sol\":2541:2547  _owner */\n      0x00\n      dup1\n        /* \"@openzeppelin/contracts/access/Ownable.sol\":2541:2558  _owner = newOwner */\n      0x0100\n      exp\n      dup2\n      sload\n      dup2\n      0xffffffffffffffffffffffffffffffffffffffff\n      mul\n      not\n      and\n      swap1\n      dup4\n      0xffffffffffffffffffffffffffffffffffffffff\n      and\n      mul\n      or\n      swap1\n      sstore\n      pop\n        /* \"@openzeppelin/contracts/access/Ownable.sol\":2604:2612  newOwner */\n      dup2\n        /* \"@openzeppelin/contracts/access/Ownable.sol\":2573:2613  OwnershipTransferred(oldOwner, newOwner) */\n      0xffffffffffffffffffffffffffffffffffffffff\n      and\n        /* \"@openzeppelin/contracts/access/Ownable.sol\":2594:2602  oldOwner */\n      dup2\n        /* \"@openzeppelin/contracts/access/Ownable.sol\":2573:2613  OwnershipTransferred(oldOwner, newOwner) */\n      0xffffffffffffffffffffffffffffffffffffffff\n      and\n      0x8be0079c531659141344cd1fd0a4f28419497f9722a3daafe3b4186f6b6457e0\n      mload(0x40)\n      mload(0x40)\n      dup1\n      swap2\n      sub\n      swap1\n      log3\n        /* \"@openzeppelin/contracts/access/Ownable.sol\":2496:2620  {... */\n      pop\n        /* \"@openzeppelin/contracts/access/Ownable.sol\":2433:2620  function _transferOwnership(address newOwner) internal virtual {... */\n      pop\n      jump\t// out\n        /* \"@openzeppelin/contracts/security/Pausable.sol\":2186:2301  function _pause() internal virtual whenNotPaused {... */\n    tag_142:\n        /* \"@openzeppelin/contracts/security/Pausable.sol\":1239:1258  _requireNotPaused() */\n      tag_192\n        /* \"@openzeppelin/contracts/security/Pausable.sol\":1239:1256  _requireNotPaused */\n      tag_111\n        /* \"@openzeppelin/contracts/security/Pausable.sol\":1239:1258  _requireNotPaused() */\n      jump\t// in\n    tag_192:\n        /* \"@openzeppelin/contracts/security/Pausable.sol\":2255:2259  true */\n      0x01\n        /* \"@openzeppelin/contracts/security/Pausable.sol\":2245:2252  _paused */\n      0x00\n      0x14\n        /* \"@openzeppelin/contracts/security/Pausable.sol\":2245:2259  _paused = true */\n      0x0100\n      exp\n      dup2\n      sload\n      dup2\n      0xff\n      mul\n      not\n      and\n      swap1\n      dup4\n      iszero\n      iszero\n      mul\n      or\n      swap1\n      sstore\n      pop\n        /* \"@openzeppelin/contracts/security/Pausable.sol\":2274:2294  Paused(_msgSender()) */\n      0x62e78cea01bee320cd4e420270b5ea74000d11b0c9f74754ebdbfc544b05a258\n        /* \"@openzeppelin/contracts/security/Pausable.sol\":2281:2293  _msgSender() */\n      tag_194\n        /* \"@openzeppelin/contracts/security/Pausable.sol\":2281:2291  _msgSender */\n      tag_168\n        /* \"@openzeppelin/contracts/security/Pausable.sol\":2281:2293  _msgSender() */\n      jump\t// in\n    tag_194:\n        /* \"@openzeppelin/contracts/security/Pausable.sol\":2274:2294  Paused(_msgSender()) */\n      mload(0x40)\n      tag_195\n      swap2\n      swap1\n      tag_73\n      jump\t// in\n    tag_195:\n      mload(0x40)\n      dup1\n      swap2\n      sub\n      swap1\n      log1\n        /* \"@openzeppelin/contracts/security/Pausable.sol\":2186:2301  function _pause() internal virtual whenNotPaused {... */\n      jump\t// out\n        /* \"@openzeppelin/contracts/utils/cryptography/draft-EIP712.sol\":4339:4504  function _hashTypedDataV4(bytes32 structHash) internal view virtual returns (bytes32) {... */\n    tag_154:\n        /* \"@openzeppelin/contracts/utils/cryptography/draft-EIP712.sol\":4416:4423  bytes32 */\n      0x00\n        /* \"@openzeppelin/contracts/utils/cryptography/draft-EIP712.sol\":4442:4497  ECDSA.toTypedDataHash(_domainSeparatorV4(), structHash) */\n      tag_197\n        /* \"@openzeppelin/contracts/utils/cryptography/draft-EIP712.sol\":4464:4484  _domainSeparatorV4() */\n      tag_198\n        /* \"@openzeppelin/contracts/utils/cryptography/draft-EIP712.sol\":4464:4482  _domainSeparatorV4 */\n      tag_95\n        /* \"@openzeppelin/contracts/utils/cryptography/draft-EIP712.sol\":4464:4484  _domainSeparatorV4() */\n      jump\t// in\n    tag_198:\n        /* \"@openzeppelin/contracts/utils/cryptography/draft-EIP712.sol\":4486:4496  structHash */\n      dup4\n        /* \"@openzeppelin/contracts/utils/cryptography/draft-EIP712.sol\":4442:4463  ECDSA.toTypedDataHash */\n      tag_199\n        /* \"@openzeppelin/contracts/utils/cryptography/draft-EIP712.sol\":4442:4497  ECDSA.toTypedDataHash(_domainSeparatorV4(), structHash) */\n      jump\t// in\n    tag_197:\n        /* \"@openzeppelin/contracts/utils/cryptography/draft-EIP712.sol\":4435:4497  return ECDSA.toTypedDataHash(_domainSeparatorV4(), structHash) */\n      swap1\n      pop\n        /* \"@openzeppelin/contracts/utils/cryptography/draft-EIP712.sol\":4339:4504  function _hashTypedDataV4(bytes32 structHash) internal view virtual returns (bytes32) {... */\n      swap2\n      swap1\n      pop\n      jump\t// out\n        /* \"@openzeppelin/contracts/utils/cryptography/ECDSA.sol\":4402:4629  function recover(bytes32 hash, bytes memory signature) internal pure returns (address) {... */\n    tag_155:\n        /* \"@openzeppelin/contracts/utils/cryptography/ECDSA.sol\":4480:4487  address */\n      0x00\n        /* \"@openzeppelin/contracts/utils/cryptography/ECDSA.sol\":4500:4517  address recovered */\n      dup1\n        /* \"@openzeppelin/contracts/utils/cryptography/ECDSA.sol\":4519:4537  RecoverError error */\n      0x00\n        /* \"@openzeppelin/contracts/utils/cryptography/ECDSA.sol\":4541:4568  tryRecover(hash, signature) */\n      tag_201\n        /* \"@openzeppelin/contracts/utils/cryptography/ECDSA.sol\":4552:4556  hash */\n      dup6\n        /* \"@openzeppelin/contracts/utils/cryptography/ECDSA.sol\":4558:4567  signature */\n      dup6\n        /* \"@openzeppelin/contracts/utils/cryptography/ECDSA.sol\":4541:4551  tryRecover */\n      tag_202\n        /* \"@openzeppelin/contracts/utils/cryptography/ECDSA.sol\":4541:4568  tryRecover(hash, signature) */\n      jump\t// in\n    tag_201:\n        /* \"@openzeppelin/contracts/utils/cryptography/ECDSA.sol\":4499:4568  (address recovered, RecoverError error) = tryRecover(hash, signature) */\n      swap2\n      pop\n      swap2\n      pop\n        /* \"@openzeppelin/contracts/utils/cryptography/ECDSA.sol\":4578:4596  _throwError(error) */\n      tag_203\n        /* \"@openzeppelin/contracts/utils/cryptography/ECDSA.sol\":4590:4595  error */\n      dup2\n        /* \"@openzeppelin/contracts/utils/cryptography/ECDSA.sol\":4578:4589  _throwError */\n      tag_204\n        /* \"@openzeppelin/contracts/utils/cryptography/ECDSA.sol\":4578:4596  _throwError(error) */\n      jump\t// in\n    tag_203:\n        /* \"@openzeppelin/contracts/utils/cryptography/ECDSA.sol\":4613:4622  recovered */\n      dup2\n        /* \"@openzeppelin/contracts/utils/cryptography/ECDSA.sol\":4606:4622  return recovered */\n      swap3\n      pop\n      pop\n      pop\n        /* \"@openzeppelin/contracts/utils/cryptography/ECDSA.sol\":4402:4629  function recover(bytes32 hash, bytes memory signature) internal pure returns (address) {... */\n      swap3\n      swap2\n      pop\n      pop\n      jump\t// out\n        /* \"@openzeppelin/contracts/utils/Context.sol\":640:736  function _msgSender() internal view virtual returns (address) {... */\n    tag_168:\n        /* \"@openzeppelin/contracts/utils/Context.sol\":693:700  address */\n      0x00\n        /* \"@openzeppelin/contracts/utils/Context.sol\":719:729  msg.sender */\n      caller\n        /* \"@openzeppelin/contracts/utils/Context.sol\":712:729  return msg.sender */\n      swap1\n      pop\n        /* \"@openzeppelin/contracts/utils/Context.sol\":640:736  function _msgSender() internal view virtual returns (address) {... */\n      swap1\n      jump\t// out\n        /* \"@openzeppelin/contracts/utils/cryptography/draft-EIP712.sol\":3457:3714  function _buildDomainSeparator(... */\n    tag_178:\n        /* \"@openzeppelin/contracts/utils/cryptography/draft-EIP712.sol\":3597:3604  bytes32 */\n      0x00\n        /* \"@openzeppelin/contracts/utils/cryptography/draft-EIP712.sol\":3644:3652  typeHash */\n      dup4\n        /* \"@openzeppelin/contracts/utils/cryptography/draft-EIP712.sol\":3654:3662  nameHash */\n      dup4\n        /* \"@openzeppelin/contracts/utils/cryptography/draft-EIP712.sol\":3664:3675  versionHash */\n      dup4\n        /* \"@openzeppelin/contracts/utils/cryptography/draft-EIP712.sol\":3677:3690  block.chainid */\n      chainid\n        /* \"@openzeppelin/contracts/utils/cryptography/draft-EIP712.sol\":3700:3704  this */\n      address\n        /* \"@openzeppelin/contracts/utils/cryptography/draft-EIP712.sol\":3633:3706  abi.encode(typeHash, nameHash, versionHash, block.chainid, address(this)) */\n      add(0x20, mload(0x40))\n      tag_207\n      swap6\n      swap5\n      swap4\n      swap3\n      swap2\n      swap1\n      tag_208\n      jump\t// in\n    tag_207:\n      mload(0x40)\n      0x20\n      dup2\n      dup4\n      sub\n      sub\n      dup2\n      mstore\n      swap1\n      0x40\n      mstore\n        /* \"@openzeppelin/contracts/utils/cryptography/draft-EIP712.sol\":3623:3707  keccak256(abi.encode(typeHash, nameHash, versionHash, block.chainid, address(this))) */\n      dup1\n      mload\n      swap1\n      0x20\n      add\n      keccak256\n        /* \"@openzeppelin/contracts/utils/cryptography/draft-EIP712.sol\":3616:3707  return keccak256(abi.encode(typeHash, nameHash, versionHash, block.chainid, address(this))) */\n      swap1\n      pop\n        /* \"@openzeppelin/contracts/utils/cryptography/draft-EIP712.sol\":3457:3714  function _buildDomainSeparator(... */\n      swap4\n      swap3\n      pop\n      pop\n      pop\n      jump\t// out\n        /* \"@openzeppelin/contracts/security/Pausable.sol\":1945:2051  function _requirePaused() internal view virtual {... */\n    tag_181:\n        /* \"@openzeppelin/contracts/security/Pausable.sol\":2011:2019  paused() */\n      tag_210\n        /* \"@openzeppelin/contracts/security/Pausable.sol\":2011:2017  paused */\n      tag_61\n        /* \"@openzeppelin/contracts/security/Pausable.sol\":2011:2019  paused() */\n      jump\t// in\n    tag_210:\n        /* \"@openzeppelin/contracts/security/Pausable.sol\":2003:2044  require(paused(), \"Pausable: not paused\") */\n      tag_211\n      jumpi\n      mload(0x40)\n      0x08c379a000000000000000000000000000000000000000000000000000000000\n      dup2\n      mstore\n      0x04\n      add\n      tag_212\n      swap1\n      tag_213\n      jump\t// in\n    tag_212:\n      mload(0x40)\n      dup1\n      swap2\n      sub\n      swap1\n      revert\n    tag_211:\n        /* \"@openzeppelin/contracts/security/Pausable.sol\":1945:2051  function _requirePaused() internal view virtual {... */\n      jump\t// out\n        /* \"@openzeppelin/contracts/utils/cryptography/ECDSA.sol\":9191:9385  function toTypedDataHash(bytes32 domainSeparator, bytes32 structHash) internal pure returns (bytes32) {... */\n    tag_199:\n        /* \"@openzeppelin/contracts/utils/cryptography/ECDSA.sol\":9284:9291  bytes32 */\n      0x00\n        /* \"@openzeppelin/contracts/utils/cryptography/ECDSA.sol\":9349:9364  domainSeparator */\n      dup3\n        /* \"@openzeppelin/contracts/utils/cryptography/ECDSA.sol\":9366:9376  structHash */\n      dup3\n        /* \"@openzeppelin/contracts/utils/cryptography/ECDSA.sol\":9320:9377  abi.encodePacked(\"\\x19\\x01\", domainSeparator, structHash) */\n      add(0x20, mload(0x40))\n      tag_215\n      swap3\n      swap2\n      swap1\n      tag_216\n      jump\t// in\n    tag_215:\n      mload(0x40)\n      0x20\n      dup2\n      dup4\n      sub\n      sub\n      dup2\n      mstore\n      swap1\n      0x40\n      mstore\n        /* \"@openzeppelin/contracts/utils/cryptography/ECDSA.sol\":9310:9378  keccak256(abi.encodePacked(\"\\x19\\x01\", domainSeparator, structHash)) */\n      dup1\n      mload\n      swap1\n      0x20\n      add\n      keccak256\n        /* \"@openzeppelin/contracts/utils/cryptography/ECDSA.sol\":9303:9378  return keccak256(abi.encodePacked(\"\\x19\\x01\", domainSeparator, structHash)) */\n      swap1\n      pop\n        /* \"@openzeppelin/contracts/utils/cryptography/ECDSA.sol\":9191:9385  function toTypedDataHash(bytes32 domainSeparator, bytes32 structHash) internal pure returns (bytes32) {... */\n      swap3\n      swap2\n      pop\n      pop\n      jump\t// out\n        /* \"@openzeppelin/contracts/utils/cryptography/ECDSA.sol\":2243:3616  function tryRecover(bytes32 hash, bytes memory signature) internal pure returns (address, RecoverError) {... */\n    tag_202:\n        /* \"@openzeppelin/contracts/utils/cryptography/ECDSA.sol\":2324:2331  address */\n      0x00\n        /* \"@openzeppelin/contracts/utils/cryptography/ECDSA.sol\":2333:2345  RecoverError */\n      dup1\n        /* \"@openzeppelin/contracts/utils/cryptography/ECDSA.sol\":2574:2576  65 */\n      0x41\n        /* \"@openzeppelin/contracts/utils/cryptography/ECDSA.sol\":2554:2563  signature */\n      dup4\n        /* \"@openzeppelin/contracts/utils/cryptography/ECDSA.sol\":2554:2570  signature.length */\n      mload\n        /* \"@openzeppelin/contracts/utils/cryptography/ECDSA.sol\":2554:2576  signature.length == 65 */\n      eq\n        /* \"@openzeppelin/contracts/utils/cryptography/ECDSA.sol\":2550:3610  if (signature.length == 65) {... */\n      iszero\n      tag_218\n      jumpi\n        /* \"@openzeppelin/contracts/utils/cryptography/ECDSA.sol\":2592:2601  bytes32 r */\n      0x00\n        /* \"@openzeppelin/contracts/utils/cryptography/ECDSA.sol\":2615:2624  bytes32 s */\n      dup1\n        /* \"@openzeppelin/contracts/utils/cryptography/ECDSA.sol\":2638:2645  uint8 v */\n      0x00\n        /* \"@openzeppelin/contracts/utils/cryptography/ECDSA.sol\":2890:2894  0x20 */\n      0x20\n        /* \"@openzeppelin/contracts/utils/cryptography/ECDSA.sol\":2879:2888  signature */\n      dup7\n        /* \"@openzeppelin/contracts/utils/cryptography/ECDSA.sol\":2875:2895  add(signature, 0x20) */\n      add\n        /* \"@openzeppelin/contracts/utils/cryptography/ECDSA.sol\":2869:2896  mload(add(signature, 0x20)) */\n      mload\n        /* \"@openzeppelin/contracts/utils/cryptography/ECDSA.sol\":2864:2896  r := mload(add(signature, 0x20)) */\n      swap3\n      pop\n        /* \"@openzeppelin/contracts/utils/cryptography/ECDSA.sol\":2939:2943  0x40 */\n      0x40\n        /* \"@openzeppelin/contracts/utils/cryptography/ECDSA.sol\":2928:2937  signature */\n      dup7\n        /* \"@openzeppelin/contracts/utils/cryptography/ECDSA.sol\":2924:2944  add(signature, 0x40) */\n      add\n        /* \"@openzeppelin/contracts/utils/cryptography/ECDSA.sol\":2918:2945  mload(add(signature, 0x40)) */\n      mload\n        /* \"@openzeppelin/contracts/utils/cryptography/ECDSA.sol\":2913:2945  s := mload(add(signature, 0x40)) */\n      swap2\n      pop\n        /* \"@openzeppelin/contracts/utils/cryptography/ECDSA.sol\":2996:3000  0x60 */\n      0x60\n        /* \"@openzeppelin/contracts/utils/cryptography/ECDSA.sol\":2985:2994  signature */\n      dup7\n        /* \"@openzeppelin/contracts/utils/cryptography/ECDSA.sol\":2981:3001  add(signature, 0x60) */\n      add\n        /* \"@openzeppelin/contracts/utils/cryptography/ECDSA.sol\":2975:3002  mload(add(signature, 0x60)) */\n      mload\n        /* \"@openzeppelin/contracts/utils/cryptography/ECDSA.sol\":2972:2973  0 */\n      0x00\n        /* \"@openzeppelin/contracts/utils/cryptography/ECDSA.sol\":2967:3003  byte(0, mload(add(signature, 0x60))) */\n      byte\n        /* \"@openzeppelin/contracts/utils/cryptography/ECDSA.sol\":2962:3003  v := byte(0, mload(add(signature, 0x60))) */\n      swap1\n      pop\n        /* \"@openzeppelin/contracts/utils/cryptography/ECDSA.sol\":3037:3062  tryRecover(hash, v, r, s) */\n      tag_219\n        /* \"@openzeppelin/contracts/utils/cryptography/ECDSA.sol\":3048:3052  hash */\n      dup8\n        /* \"@openzeppelin/contracts/utils/cryptography/ECDSA.sol\":3054:3055  v */\n      dup3\n        /* \"@openzeppelin/contracts/utils/cryptography/ECDSA.sol\":3057:3058  r */\n      dup6\n        /* \"@openzeppelin/contracts/utils/cryptography/ECDSA.sol\":3060:3061  s */\n      dup6\n        /* \"@openzeppelin/contracts/utils/cryptography/ECDSA.sol\":3037:3047  tryRecover */\n      tag_220\n        /* \"@openzeppelin/contracts/utils/cryptography/ECDSA.sol\":3037:3062  tryRecover(hash, v, r, s) */\n      jump\t// in\n    tag_219:\n        /* \"@openzeppelin/contracts/utils/cryptography/ECDSA.sol\":3030:3062  return tryRecover(hash, v, r, s) */\n      swap5\n      pop\n      swap5\n      pop\n      pop\n      pop\n      pop\n      jump(tag_217)\n        /* \"@openzeppelin/contracts/utils/cryptography/ECDSA.sol\":2550:3610  if (signature.length == 65) {... */\n    tag_218:\n        /* \"@openzeppelin/contracts/utils/cryptography/ECDSA.sol\":3103:3105  64 */\n      0x40\n        /* \"@openzeppelin/contracts/utils/cryptography/ECDSA.sol\":3083:3092  signature */\n      dup4\n        /* \"@openzeppelin/contracts/utils/cryptography/ECDSA.sol\":3083:3099  signature.length */\n      mload\n        /* \"@openzeppelin/contracts/utils/cryptography/ECDSA.sol\":3083:3105  signature.length == 64 */\n      eq\n        /* \"@openzeppelin/contracts/utils/cryptography/ECDSA.sol\":3079:3610  if (signature.length == 64) {... */\n      iszero\n      tag_222\n      jumpi\n        /* \"@openzeppelin/contracts/utils/cryptography/ECDSA.sol\":3121:3130  bytes32 r */\n      0x00\n        /* \"@openzeppelin/contracts/utils/cryptography/ECDSA.sol\":3144:3154  bytes32 vs */\n      dup1\n        /* \"@openzeppelin/contracts/utils/cryptography/ECDSA.sol\":3399:3403  0x20 */\n      0x20\n        /* \"@openzeppelin/contracts/utils/cryptography/ECDSA.sol\":3388:3397  signature */\n      dup6\n        /* \"@openzeppelin/contracts/utils/cryptography/ECDSA.sol\":3384:3404  add(signature, 0x20) */\n      add\n        /* \"@openzeppelin/contracts/utils/cryptography/ECDSA.sol\":3378:3405  mload(add(signature, 0x20)) */\n      mload\n        /* \"@openzeppelin/contracts/utils/cryptography/ECDSA.sol\":3373:3405  r := mload(add(signature, 0x20)) */\n      swap2\n      pop\n        /* \"@openzeppelin/contracts/utils/cryptography/ECDSA.sol\":3449:3453  0x40 */\n      0x40\n        /* \"@openzeppelin/contracts/utils/cryptography/ECDSA.sol\":3438:3447  signature */\n      dup6\n        /* \"@openzeppelin/contracts/utils/cryptography/ECDSA.sol\":3434:3454  add(signature, 0x40) */\n      add\n        /* \"@openzeppelin/contracts/utils/cryptography/ECDSA.sol\":3428:3455  mload(add(signature, 0x40)) */\n      mload\n        /* \"@openzeppelin/contracts/utils/cryptography/ECDSA.sol\":3422:3455  vs := mload(add(signature, 0x40)) */\n      swap1\n      pop\n        /* \"@openzeppelin/contracts/utils/cryptography/ECDSA.sol\":3489:3512  tryRecover(hash, r, vs) */\n      tag_223\n        /* \"@openzeppelin/contracts/utils/cryptography/ECDSA.sol\":3500:3504  hash */\n      dup7\n        /* \"@openzeppelin/contracts/utils/cryptography/ECDSA.sol\":3506:3507  r */\n      dup4\n        /* \"@openzeppelin/contracts/utils/cryptography/ECDSA.sol\":3509:3511  vs */\n      dup4\n        /* \"@openzeppelin/contracts/utils/cryptography/ECDSA.sol\":3489:3499  tryRecover */\n      tag_224\n        /* \"@openzeppelin/contracts/utils/cryptography/ECDSA.sol\":3489:3512  tryRecover(hash, r, vs) */\n      jump\t// in\n    tag_223:\n        /* \"@openzeppelin/contracts/utils/cryptography/ECDSA.sol\":3482:3512  return tryRecover(hash, r, vs) */\n      swap4\n      pop\n      swap4\n      pop\n      pop\n      pop\n      jump(tag_217)\n        /* \"@openzeppelin/contracts/utils/cryptography/ECDSA.sol\":3079:3610  if (signature.length == 64) {... */\n    tag_222:\n        /* \"@openzeppelin/contracts/utils/cryptography/ECDSA.sol\":3559:3560  0 */\n      0x00\n        /* \"@openzeppelin/contracts/utils/cryptography/ECDSA.sol\":3563:3598  RecoverError.InvalidSignatureLength */\n      0x02\n        /* \"@openzeppelin/contracts/utils/cryptography/ECDSA.sol\":3543:3599  return (address(0), RecoverError.InvalidSignatureLength) */\n      swap2\n      pop\n      swap2\n      pop\n        /* \"@openzeppelin/contracts/utils/cryptography/ECDSA.sol\":2243:3616  function tryRecover(bytes32 hash, bytes memory signature) internal pure returns (address, RecoverError) {... */\n    tag_217:\n      swap3\n      pop\n      swap3\n      swap1\n      pop\n      jump\t// out\n        /* \"@openzeppelin/contracts/utils/cryptography/ECDSA.sol\":548:1179  function _throwError(RecoverError error) private pure {... */\n    tag_204:\n        /* \"@openzeppelin/contracts/utils/cryptography/ECDSA.sol\":625:645  RecoverError.NoError */\n      0x00\n        /* \"@openzeppelin/contracts/utils/cryptography/ECDSA.sol\":616:645  error == RecoverError.NoError */\n      0x04\n      dup2\n      gt\n      iszero\n      tag_227\n      jumpi\n      tag_228\n      tag_229\n      jump\t// in\n    tag_228:\n    tag_227:\n        /* \"@openzeppelin/contracts/utils/cryptography/ECDSA.sol\":616:621  error */\n      dup2\n        /* \"@openzeppelin/contracts/utils/cryptography/ECDSA.sol\":616:645  error == RecoverError.NoError */\n      0x04\n      dup2\n      gt\n      iszero\n      tag_230\n      jumpi\n      tag_231\n      tag_229\n      jump\t// in\n    tag_231:\n    tag_230:\n      eq\n        /* \"@openzeppelin/contracts/utils/cryptography/ECDSA.sol\":612:1173  if (error == RecoverError.NoError) {... */\n      iszero\n      tag_232\n      jumpi\n        /* \"@openzeppelin/contracts/utils/cryptography/ECDSA.sol\":661:668  return; */\n      jump(tag_226)\n        /* \"@openzeppelin/contracts/utils/cryptography/ECDSA.sol\":612:1173  if (error == RecoverError.NoError) {... */\n    tag_232:\n        /* \"@openzeppelin/contracts/utils/cryptography/ECDSA.sol\":721:750  RecoverError.InvalidSignature */\n      0x01\n        /* \"@openzeppelin/contracts/utils/cryptography/ECDSA.sol\":712:750  error == RecoverError.InvalidSignature */\n      0x04\n      dup2\n      gt\n      iszero\n      tag_234\n      jumpi\n      tag_235\n      tag_229\n      jump\t// in\n    tag_235:\n    tag_234:\n        /* \"@openzeppelin/contracts/utils/cryptography/ECDSA.sol\":712:717  error */\n      dup2\n        /* \"@openzeppelin/contracts/utils/cryptography/ECDSA.sol\":712:750  error == RecoverError.InvalidSignature */\n      0x04\n      dup2\n      gt\n      iszero\n      tag_236\n      jumpi\n      tag_237\n      tag_229\n      jump\t// in\n    tag_237:\n    tag_236:\n      eq\n        /* \"@openzeppelin/contracts/utils/cryptography/ECDSA.sol\":708:1173  if (error == RecoverError.InvalidSignature) {... */\n      iszero\n      tag_238\n      jumpi\n        /* \"@openzeppelin/contracts/utils/cryptography/ECDSA.sol\":766:800  revert(\"ECDSA: invalid signature\") */\n      mload(0x40)\n      0x08c379a000000000000000000000000000000000000000000000000000000000\n      dup2\n      mstore\n      0x04\n      add\n      tag_239\n      swap1\n      tag_240\n      jump\t// in\n    tag_239:\n      mload(0x40)\n      dup1\n      swap2\n      sub\n      swap1\n      revert\n        /* \"@openzeppelin/contracts/utils/cryptography/ECDSA.sol\":708:1173  if (error == RecoverError.InvalidSignature) {... */\n    tag_238:\n        /* \"@openzeppelin/contracts/utils/cryptography/ECDSA.sol\":830:865  RecoverError.InvalidSignatureLength */\n      0x02\n        /* \"@openzeppelin/contracts/utils/cryptography/ECDSA.sol\":821:865  error == RecoverError.InvalidSignatureLength */\n      0x04\n      dup2\n      gt\n      iszero\n      tag_242\n      jumpi\n      tag_243\n      tag_229\n      jump\t// in\n    tag_243:\n    tag_242:\n        /* \"@openzeppelin/contracts/utils/cryptography/ECDSA.sol\":821:826  error */\n      dup2\n        /* \"@openzeppelin/contracts/utils/cryptography/ECDSA.sol\":821:865  error == RecoverError.InvalidSignatureLength */\n      0x04\n      dup2\n      gt\n      iszero\n      tag_244\n      jumpi\n      tag_245\n      tag_229\n      jump\t// in\n    tag_245:\n    tag_244:\n      eq\n        /* \"@openzeppelin/contracts/utils/cryptography/ECDSA.sol\":817:1173  if (error == RecoverError.InvalidSignatureLength) {... */\n      iszero\n      tag_246\n      jumpi\n        /* \"@openzeppelin/contracts/utils/cryptography/ECDSA.sol\":881:922  revert(\"ECDSA: invalid signature length\") */\n      mload(0x40)\n      0x08c379a000000000000000000000000000000000000000000000000000000000\n      dup2\n      mstore\n      0x04\n      add\n      tag_247\n      swap1\n      tag_248\n      jump\t// in\n    tag_247:\n      mload(0x40)\n      dup1\n      swap2\n      sub\n      swap1\n      revert\n        /* \"@openzeppelin/contracts/utils/cryptography/ECDSA.sol\":817:1173  if (error == RecoverError.InvalidSignatureLength) {... */\n    tag_246:\n        /* \"@openzeppelin/contracts/utils/cryptography/ECDSA.sol\":952:982  RecoverError.InvalidSignatureS */\n      0x03\n        /* \"@openzeppelin/contracts/utils/cryptography/ECDSA.sol\":943:982  error == RecoverError.InvalidSignatureS */\n      0x04\n      dup2\n      gt\n      iszero\n      tag_250\n      jumpi\n      tag_251\n      tag_229\n      jump\t// in\n    tag_251:\n    tag_250:\n        /* \"@openzeppelin/contracts/utils/cryptography/ECDSA.sol\":943:948  error */\n      dup2\n        /* \"@openzeppelin/contracts/utils/cryptography/ECDSA.sol\":943:982  error == RecoverError.InvalidSignatureS */\n      0x04\n      dup2\n      gt\n      iszero\n      tag_252\n      jumpi\n      tag_253\n      tag_229\n      jump\t// in\n    tag_253:\n    tag_252:\n      eq\n        /* \"@openzeppelin/contracts/utils/cryptography/ECDSA.sol\":939:1173  if (error == RecoverError.InvalidSignatureS) {... */\n      iszero\n      tag_254\n      jumpi\n        /* \"@openzeppelin/contracts/utils/cryptography/ECDSA.sol\":998:1042  revert(\"ECDSA: invalid signature 's' value\") */\n      mload(0x40)\n      0x08c379a000000000000000000000000000000000000000000000000000000000\n      dup2\n      mstore\n      0x04\n      add\n      tag_255\n      swap1\n      tag_256\n      jump\t// in\n    tag_255:\n      mload(0x40)\n      dup1\n      swap2\n      sub\n      swap1\n      revert\n        /* \"@openzeppelin/contracts/utils/cryptography/ECDSA.sol\":939:1173  if (error == RecoverError.InvalidSignatureS) {... */\n    tag_254:\n        /* \"@openzeppelin/contracts/utils/cryptography/ECDSA.sol\":1072:1102  RecoverError.InvalidSignatureV */\n      0x04\n        /* \"@openzeppelin/contracts/utils/cryptography/ECDSA.sol\":1063:1102  error == RecoverError.InvalidSignatureV */\n      dup1\n      dup2\n      gt\n      iszero\n      tag_258\n      jumpi\n      tag_259\n      tag_229\n      jump\t// in\n    tag_259:\n    tag_258:\n        /* \"@openzeppelin/contracts/utils/cryptography/ECDSA.sol\":1063:1068  error */\n      dup2\n        /* \"@openzeppelin/contracts/utils/cryptography/ECDSA.sol\":1063:1102  error == RecoverError.InvalidSignatureV */\n      0x04\n      dup2\n      gt\n      iszero\n      tag_260\n      jumpi\n      tag_261\n      tag_229\n      jump\t// in\n    tag_261:\n    tag_260:\n      eq\n        /* \"@openzeppelin/contracts/utils/cryptography/ECDSA.sol\":1059:1173  if (error == RecoverError.InvalidSignatureV) {... */\n      iszero\n      tag_262\n      jumpi\n        /* \"@openzeppelin/contracts/utils/cryptography/ECDSA.sol\":1118:1162  revert(\"ECDSA: invalid signature 'v' value\") */\n      mload(0x40)\n      0x08c379a000000000000000000000000000000000000000000000000000000000\n      dup2\n      mstore\n      0x04\n      add\n      tag_263\n      swap1\n      tag_264\n      jump\t// in\n    tag_263:\n      mload(0x40)\n      dup1\n      swap2\n      sub\n      swap1\n      revert\n        /* \"@openzeppelin/contracts/utils/cryptography/ECDSA.sol\":1059:1173  if (error == RecoverError.InvalidSignatureV) {... */\n    tag_262:\n        /* \"@openzeppelin/contracts/utils/cryptography/ECDSA.sol\":548:1179  function _throwError(RecoverError error) private pure {... */\n    tag_226:\n      pop\n      jump\t// out\n        /* \"@openzeppelin/contracts/utils/cryptography/ECDSA.sol\":5810:7413  function tryRecover(... */\n    tag_220:\n        /* \"@openzeppelin/contracts/utils/cryptography/ECDSA.sol\":5936:5943  address */\n      0x00\n        /* \"@openzeppelin/contracts/utils/cryptography/ECDSA.sol\":5945:5957  RecoverError */\n      dup1\n        /* \"@openzeppelin/contracts/utils/cryptography/ECDSA.sol\":6860:6926  0x7FFFFFFFFFFFFFFFFFFFFFFFFFFFFFFF5D576E7357A4501DDFE92F46681B20A0 */\n      0x7fffffffffffffffffffffffffffffff5d576e7357a4501ddfe92f46681b20a0\n        /* \"@openzeppelin/contracts/utils/cryptography/ECDSA.sol\":6855:6856  s */\n      dup4\n        /* \"@openzeppelin/contracts/utils/cryptography/ECDSA.sol\":6847:6857  uint256(s) */\n      0x00\n      shr\n        /* \"@openzeppelin/contracts/utils/cryptography/ECDSA.sol\":6847:6926  uint256(s) > 0x7FFFFFFFFFFFFFFFFFFFFFFFFFFFFFFF5D576E7357A4501DDFE92F46681B20A0 */\n      gt\n        /* \"@openzeppelin/contracts/utils/cryptography/ECDSA.sol\":6843:7004  if (uint256(s) > 0x7FFFFFFFFFFFFFFFFFFFFFFFFFFFFFFF5D576E7357A4501DDFE92F46681B20A0) {... */\n      iszero\n      tag_266\n      jumpi\n        /* \"@openzeppelin/contracts/utils/cryptography/ECDSA.sol\":6958:6959  0 */\n      0x00\n        /* \"@openzeppelin/contracts/utils/cryptography/ECDSA.sol\":6962:6992  RecoverError.InvalidSignatureS */\n      0x03\n        /* \"@openzeppelin/contracts/utils/cryptography/ECDSA.sol\":6942:6993  return (address(0), RecoverError.InvalidSignatureS) */\n      swap2\n      pop\n      swap2\n      pop\n      jump(tag_265)\n        /* \"@openzeppelin/contracts/utils/cryptography/ECDSA.sol\":6843:7004  if (uint256(s) > 0x7FFFFFFFFFFFFFFFFFFFFFFFFFFFFFFF5D576E7357A4501DDFE92F46681B20A0) {... */\n    tag_266:\n        /* \"@openzeppelin/contracts/utils/cryptography/ECDSA.sol\":7022:7024  27 */\n      0x1b\n        /* \"@openzeppelin/contracts/utils/cryptography/ECDSA.sol\":7017:7018  v */\n      dup6\n        /* \"@openzeppelin/contracts/utils/cryptography/ECDSA.sol\":7017:7024  v != 27 */\n      0xff\n      and\n      eq\n      iszero\n        /* \"@openzeppelin/contracts/utils/cryptography/ECDSA.sol\":7017:7035  v != 27 && v != 28 */\n      dup1\n      iszero\n      tag_267\n      jumpi\n      pop\n        /* \"@openzeppelin/contracts/utils/cryptography/ECDSA.sol\":7033:7035  28 */\n      0x1c\n        /* \"@openzeppelin/contracts/utils/cryptography/ECDSA.sol\":7028:7029  v */\n      dup6\n        /* \"@openzeppelin/contracts/utils/cryptography/ECDSA.sol\":7028:7035  v != 28 */\n      0xff\n      and\n      eq\n      iszero\n        /* \"@openzeppelin/contracts/utils/cryptography/ECDSA.sol\":7017:7035  v != 27 && v != 28 */\n    tag_267:\n        /* \"@openzeppelin/contracts/utils/cryptography/ECDSA.sol\":7013:7113  if (v != 27 && v != 28) {... */\n      iszero\n      tag_268\n      jumpi\n        /* \"@openzeppelin/contracts/utils/cryptography/ECDSA.sol\":7067:7068  0 */\n      0x00\n        /* \"@openzeppelin/contracts/utils/cryptography/ECDSA.sol\":7071:7101  RecoverError.InvalidSignatureV */\n      0x04\n        /* \"@openzeppelin/contracts/utils/cryptography/ECDSA.sol\":7051:7102  return (address(0), RecoverError.InvalidSignatureV) */\n      swap2\n      pop\n      swap2\n      pop\n      jump(tag_265)\n        /* \"@openzeppelin/contracts/utils/cryptography/ECDSA.sol\":7013:7113  if (v != 27 && v != 28) {... */\n    tag_268:\n        /* \"@openzeppelin/contracts/utils/cryptography/ECDSA.sol\":7207:7221  address signer */\n      0x00\n        /* \"@openzeppelin/contracts/utils/cryptography/ECDSA.sol\":7224:7248  ecrecover(hash, v, r, s) */\n      0x01\n        /* \"@openzeppelin/contracts/utils/cryptography/ECDSA.sol\":7234:7238  hash */\n      dup8\n        /* \"@openzeppelin/contracts/utils/cryptography/ECDSA.sol\":7240:7241  v */\n      dup8\n        /* \"@openzeppelin/contracts/utils/cryptography/ECDSA.sol\":7243:7244  r */\n      dup8\n        /* \"@openzeppelin/contracts/utils/cryptography/ECDSA.sol\":7246:7247  s */\n      dup8\n        /* \"@openzeppelin/contracts/utils/cryptography/ECDSA.sol\":7224:7248  ecrecover(hash, v, r, s) */\n      mload(0x40)\n      0x00\n      dup2\n      mstore\n      0x20\n      add\n      0x40\n      mstore\n      mload(0x40)\n      tag_269\n      swap5\n      swap4\n      swap3\n      swap2\n      swap1\n      tag_270\n      jump\t// in\n    tag_269:\n      0x20\n      mload(0x40)\n      0x20\n      dup2\n      sub\n      swap1\n      dup1\n      dup5\n      sub\n      swap1\n      dup6\n      gas\n      staticcall\n      iszero\n      dup1\n      iszero\n      tag_272\n      jumpi\n      returndatasize\n      0x00\n      dup1\n      returndatacopy\n      revert(0x00, returndatasize)\n    tag_272:\n      pop\n      pop\n      pop\n      mload(sub(mload(0x40), 0x20))\n        /* \"@openzeppelin/contracts/utils/cryptography/ECDSA.sol\":7207:7248  address signer = ecrecover(hash, v, r, s) */\n      swap1\n      pop\n        /* \"@openzeppelin/contracts/utils/cryptography/ECDSA.sol\":7280:7281  0 */\n      0x00\n        /* \"@openzeppelin/contracts/utils/cryptography/ECDSA.sol\":7262:7282  signer == address(0) */\n      0xffffffffffffffffffffffffffffffffffffffff\n      and\n        /* \"@openzeppelin/contracts/utils/cryptography/ECDSA.sol\":7262:7268  signer */\n      dup2\n        /* \"@openzeppelin/contracts/utils/cryptography/ECDSA.sol\":7262:7282  signer == address(0) */\n      0xffffffffffffffffffffffffffffffffffffffff\n      and\n      eq\n        /* \"@openzeppelin/contracts/utils/cryptography/ECDSA.sol\":7258:7359  if (signer == address(0)) {... */\n      iszero\n      tag_273\n      jumpi\n        /* \"@openzeppelin/contracts/utils/cryptography/ECDSA.sol\":7314:7315  0 */\n      0x00\n        /* \"@openzeppelin/contracts/utils/cryptography/ECDSA.sol\":7318:7347  RecoverError.InvalidSignature */\n      0x01\n        /* \"@openzeppelin/contracts/utils/cryptography/ECDSA.sol\":7298:7348  return (address(0), RecoverError.InvalidSignature) */\n      swap3\n      pop\n      swap3\n      pop\n      pop\n      jump(tag_265)\n        /* \"@openzeppelin/contracts/utils/cryptography/ECDSA.sol\":7258:7359  if (signer == address(0)) {... */\n    tag_273:\n        /* \"@openzeppelin/contracts/utils/cryptography/ECDSA.sol\":7377:7383  signer */\n      dup1\n        /* \"@openzeppelin/contracts/utils/cryptography/ECDSA.sol\":7385:7405  RecoverError.NoError */\n      0x00\n        /* \"@openzeppelin/contracts/utils/cryptography/ECDSA.sol\":7369:7406  return (signer, RecoverError.NoError) */\n      swap3\n      pop\n      swap3\n      pop\n      pop\n        /* \"@openzeppelin/contracts/utils/cryptography/ECDSA.sol\":5810:7413  function tryRecover(... */\n    tag_265:\n      swap5\n      pop\n      swap5\n      swap3\n      pop\n      pop\n      pop\n      jump\t// out\n        /* \"@openzeppelin/contracts/utils/cryptography/ECDSA.sol\":4883:5219  function tryRecover(... */\n    tag_224:\n        /* \"@openzeppelin/contracts/utils/cryptography/ECDSA.sol\":4993:5000  address */\n      0x00\n        /* \"@openzeppelin/contracts/utils/cryptography/ECDSA.sol\":5002:5014  RecoverError */\n      dup1\n        /* \"@openzeppelin/contracts/utils/cryptography/ECDSA.sol\":5026:5035  bytes32 s */\n      0x00\n        /* \"@openzeppelin/contracts/utils/cryptography/ECDSA.sol\":5051:5117  0x7fffffffffffffffffffffffffffffffffffffffffffffffffffffffffffffff */\n      0x7fffffffffffffffffffffffffffffffffffffffffffffffffffffffffffffff\n        /* \"@openzeppelin/contracts/utils/cryptography/ECDSA.sol\":5043:5118  bytes32(0x7fffffffffffffffffffffffffffffffffffffffffffffffffffffffffffffff) */\n      0x00\n      shl\n        /* \"@openzeppelin/contracts/utils/cryptography/ECDSA.sol\":5038:5040  vs */\n      dup5\n        /* \"@openzeppelin/contracts/utils/cryptography/ECDSA.sol\":5038:5118  vs & bytes32(0x7fffffffffffffffffffffffffffffffffffffffffffffffffffffffffffffff) */\n      and\n        /* \"@openzeppelin/contracts/utils/cryptography/ECDSA.sol\":5026:5118  bytes32 s = vs & bytes32(0x7fffffffffffffffffffffffffffffffffffffffffffffffffffffffffffffff) */\n      swap1\n      pop\n        /* \"@openzeppelin/contracts/utils/cryptography/ECDSA.sol\":5128:5135  uint8 v */\n      0x00\n        /* \"@openzeppelin/contracts/utils/cryptography/ECDSA.sol\":5167:5169  27 */\n      0x1b\n        /* \"@openzeppelin/contracts/utils/cryptography/ECDSA.sol\":5160:5163  255 */\n      0xff\n        /* \"@openzeppelin/contracts/utils/cryptography/ECDSA.sol\":5153:5155  vs */\n      dup7\n        /* \"@openzeppelin/contracts/utils/cryptography/ECDSA.sol\":5145:5156  uint256(vs) */\n      0x00\n      shr\n        /* \"@openzeppelin/contracts/utils/cryptography/ECDSA.sol\":5145:5163  uint256(vs) >> 255 */\n      swap1\n      shr\n        /* \"@openzeppelin/contracts/utils/cryptography/ECDSA.sol\":5144:5169  (uint256(vs) >> 255) + 27 */\n      tag_275\n      swap2\n      swap1\n      tag_276\n      jump\t// in\n    tag_275:\n        /* \"@openzeppelin/contracts/utils/cryptography/ECDSA.sol\":5128:5170  uint8 v = uint8((uint256(vs) >> 255) + 27) */\n      swap1\n      pop\n        /* \"@openzeppelin/contracts/utils/cryptography/ECDSA.sol\":5187:5212  tryRecover(hash, v, r, s) */\n      tag_277\n        /* \"@openzeppelin/contracts/utils/cryptography/ECDSA.sol\":5198:5202  hash */\n      dup8\n        /* \"@openzeppelin/contracts/utils/cryptography/ECDSA.sol\":5204:5205  v */\n      dup3\n        /* \"@openzeppelin/contracts/utils/cryptography/ECDSA.sol\":5207:5208  r */\n      dup9\n        /* \"@openzeppelin/contracts/utils/cryptography/ECDSA.sol\":5210:5211  s */\n      dup6\n        /* \"@openzeppelin/contracts/utils/cryptography/ECDSA.sol\":5187:5197  tryRecover */\n      tag_220\n        /* \"@openzeppelin/contracts/utils/cryptography/ECDSA.sol\":5187:5212  tryRecover(hash, v, r, s) */\n      jump\t// in\n    tag_277:\n        /* \"@openzeppelin/contracts/utils/cryptography/ECDSA.sol\":5180:5212  return tryRecover(hash, v, r, s) */\n      swap4\n      pop\n      swap4\n      pop\n      pop\n      pop\n        /* \"@openzeppelin/contracts/utils/cryptography/ECDSA.sol\":4883:5219  function tryRecover(... */\n      swap4\n      pop\n      swap4\n      swap2\n      pop\n      pop\n      jump\t// out\n        /* \"#utility.yul\":7:146   */\n    tag_279:\n        /* \"#utility.yul\":53:58   */\n      0x00\n        /* \"#utility.yul\":91:97   */\n      dup2\n        /* \"#utility.yul\":78:98   */\n      calldataload\n        /* \"#utility.yul\":69:98   */\n      swap1\n      pop\n        /* \"#utility.yul\":107:140   */\n      tag_281\n        /* \"#utility.yul\":134:139   */\n      dup2\n        /* \"#utility.yul\":107:140   */\n      tag_282\n      jump\t// in\n    tag_281:\n        /* \"#utility.yul\":7:146   */\n      swap3\n      swap2\n      pop\n      pop\n      jump\t// out\n        /* \"#utility.yul\":152:307   */\n    tag_283:\n        /* \"#utility.yul\":206:211   */\n      0x00\n        /* \"#utility.yul\":244:250   */\n      dup2\n        /* \"#utility.yul\":231:251   */\n      calldataload\n        /* \"#utility.yul\":222:251   */\n      swap1\n      pop\n        /* \"#utility.yul\":260:301   */\n      tag_285\n        /* \"#utility.yul\":295:300   */\n      dup2\n        /* \"#utility.yul\":260:301   */\n      tag_286\n      jump\t// in\n    tag_285:\n        /* \"#utility.yul\":152:307   */\n      swap3\n      swap2\n      pop\n      pop\n      jump\t// out\n        /* \"#utility.yul\":326:878   */\n    tag_287:\n        /* \"#utility.yul\":383:391   */\n      0x00\n        /* \"#utility.yul\":393:399   */\n      dup1\n        /* \"#utility.yul\":443:446   */\n      dup4\n        /* \"#utility.yul\":436:440   */\n      0x1f\n        /* \"#utility.yul\":428:434   */\n      dup5\n        /* \"#utility.yul\":424:441   */\n      add\n        /* \"#utility.yul\":420:447   */\n      slt\n        /* \"#utility.yul\":410:532   */\n      tag_289\n      jumpi\n        /* \"#utility.yul\":451:530   */\n      tag_290\n      tag_291\n      jump\t// in\n    tag_290:\n        /* \"#utility.yul\":410:532   */\n    tag_289:\n        /* \"#utility.yul\":564:570   */\n      dup3\n        /* \"#utility.yul\":551:571   */\n      calldataload\n        /* \"#utility.yul\":541:571   */\n      swap1\n      pop\n        /* \"#utility.yul\":594:612   */\n      0xffffffffffffffff\n        /* \"#utility.yul\":586:592   */\n      dup2\n        /* \"#utility.yul\":583:613   */\n      gt\n        /* \"#utility.yul\":580:697   */\n      iszero\n      tag_292\n      jumpi\n        /* \"#utility.yul\":616:695   */\n      tag_293\n      tag_294\n      jump\t// in\n    tag_293:\n        /* \"#utility.yul\":580:697   */\n    tag_292:\n        /* \"#utility.yul\":730:734   */\n      0x20\n        /* \"#utility.yul\":722:728   */\n      dup4\n        /* \"#utility.yul\":718:735   */\n      add\n        /* \"#utility.yul\":706:735   */\n      swap2\n      pop\n        /* \"#utility.yul\":784:787   */\n      dup4\n        /* \"#utility.yul\":776:780   */\n      0x01\n        /* \"#utility.yul\":768:774   */\n      dup3\n        /* \"#utility.yul\":764:781   */\n      mul\n        /* \"#utility.yul\":754:762   */\n      dup4\n        /* \"#utility.yul\":750:782   */\n      add\n        /* \"#utility.yul\":747:788   */\n      gt\n        /* \"#utility.yul\":744:872   */\n      iszero\n      tag_295\n      jumpi\n        /* \"#utility.yul\":791:870   */\n      tag_296\n      tag_297\n      jump\t// in\n    tag_296:\n        /* \"#utility.yul\":744:872   */\n    tag_295:\n        /* \"#utility.yul\":326:878   */\n      swap3\n      pop\n      swap3\n      swap1\n      pop\n      jump\t// out\n        /* \"#utility.yul\":923:1162   */\n    tag_298:\n        /* \"#utility.yul\":1003:1008   */\n      0x00\n        /* \"#utility.yul\":1044:1047   */\n      0xc0\n        /* \"#utility.yul\":1035:1041   */\n      dup3\n        /* \"#utility.yul\":1030:1033   */\n      dup5\n        /* \"#utility.yul\":1026:1042   */\n      sub\n        /* \"#utility.yul\":1022:1048   */\n      slt\n        /* \"#utility.yul\":1019:1132   */\n      iszero\n      tag_300\n      jumpi\n        /* \"#utility.yul\":1051:1130   */\n      tag_301\n      tag_302\n      jump\t// in\n    tag_301:\n        /* \"#utility.yul\":1019:1132   */\n    tag_300:\n        /* \"#utility.yul\":1150:1156   */\n      dup2\n        /* \"#utility.yul\":1141:1156   */\n      swap1\n      pop\n        /* \"#utility.yul\":923:1162   */\n      swap3\n      swap2\n      pop\n      pop\n      jump\t// out\n        /* \"#utility.yul\":1168:1497   */\n    tag_22:\n        /* \"#utility.yul\":1227:1233   */\n      0x00\n        /* \"#utility.yul\":1276:1278   */\n      0x20\n        /* \"#utility.yul\":1264:1273   */\n      dup3\n        /* \"#utility.yul\":1255:1262   */\n      dup5\n        /* \"#utility.yul\":1251:1274   */\n      sub\n        /* \"#utility.yul\":1247:1279   */\n      slt\n        /* \"#utility.yul\":1244:1363   */\n      iszero\n      tag_304\n      jumpi\n        /* \"#utility.yul\":1282:1361   */\n      tag_305\n      tag_306\n      jump\t// in\n    tag_305:\n        /* \"#utility.yul\":1244:1363   */\n    tag_304:\n        /* \"#utility.yul\":1402:1403   */\n      0x00\n        /* \"#utility.yul\":1427:1480   */\n      tag_307\n        /* \"#utility.yul\":1472:1479   */\n      dup5\n        /* \"#utility.yul\":1463:1469   */\n      dup3\n        /* \"#utility.yul\":1452:1461   */\n      dup6\n        /* \"#utility.yul\":1448:1470   */\n      add\n        /* \"#utility.yul\":1427:1480   */\n      tag_279\n      jump\t// in\n    tag_307:\n        /* \"#utility.yul\":1417:1480   */\n      swap2\n      pop\n        /* \"#utility.yul\":1373:1490   */\n      pop\n        /* \"#utility.yul\":1168:1497   */\n      swap3\n      swap2\n      pop\n      pop\n      jump\t// out\n        /* \"#utility.yul\":1503:1848   */\n    tag_27:\n        /* \"#utility.yul\":1570:1576   */\n      0x00\n        /* \"#utility.yul\":1619:1621   */\n      0x20\n        /* \"#utility.yul\":1607:1616   */\n      dup3\n        /* \"#utility.yul\":1598:1605   */\n      dup5\n        /* \"#utility.yul\":1594:1617   */\n      sub\n        /* \"#utility.yul\":1590:1622   */\n      slt\n        /* \"#utility.yul\":1587:1706   */\n      iszero\n      tag_309\n      jumpi\n        /* \"#utility.yul\":1625:1704   */\n      tag_310\n      tag_306\n      jump\t// in\n    tag_310:\n        /* \"#utility.yul\":1587:1706   */\n    tag_309:\n        /* \"#utility.yul\":1745:1746   */\n      0x00\n        /* \"#utility.yul\":1770:1831   */\n      tag_311\n        /* \"#utility.yul\":1823:1830   */\n      dup5\n        /* \"#utility.yul\":1814:1820   */\n      dup3\n        /* \"#utility.yul\":1803:1812   */\n      dup6\n        /* \"#utility.yul\":1799:1821   */\n      add\n        /* \"#utility.yul\":1770:1831   */\n      tag_283\n      jump\t// in\n    tag_311:\n        /* \"#utility.yul\":1760:1831   */\n      swap2\n      pop\n        /* \"#utility.yul\":1716:1841   */\n      pop\n        /* \"#utility.yul\":1503:1848   */\n      swap3\n      swap2\n      pop\n      pop\n      jump\t// out\n        /* \"#utility.yul\":1854:2754   */\n    tag_55:\n        /* \"#utility.yul\":1967:1973   */\n      0x00\n        /* \"#utility.yul\":1975:1981   */\n      dup1\n        /* \"#utility.yul\":1983:1989   */\n      0x00\n        /* \"#utility.yul\":2032:2034   */\n      0x40\n        /* \"#utility.yul\":2020:2029   */\n      dup5\n        /* \"#utility.yul\":2011:2018   */\n      dup7\n        /* \"#utility.yul\":2007:2030   */\n      sub\n        /* \"#utility.yul\":2003:2035   */\n      slt\n        /* \"#utility.yul\":2000:2119   */\n      iszero\n      tag_313\n      jumpi\n        /* \"#utility.yul\":2038:2117   */\n      tag_314\n      tag_306\n      jump\t// in\n    tag_314:\n        /* \"#utility.yul\":2000:2119   */\n    tag_313:\n        /* \"#utility.yul\":2186:2187   */\n      0x00\n        /* \"#utility.yul\":2175:2184   */\n      dup5\n        /* \"#utility.yul\":2171:2188   */\n      add\n        /* \"#utility.yul\":2158:2189   */\n      calldataload\n        /* \"#utility.yul\":2216:2234   */\n      0xffffffffffffffff\n        /* \"#utility.yul\":2208:2214   */\n      dup2\n        /* \"#utility.yul\":2205:2235   */\n      gt\n        /* \"#utility.yul\":2202:2319   */\n      iszero\n      tag_315\n      jumpi\n        /* \"#utility.yul\":2238:2317   */\n      tag_316\n      tag_317\n      jump\t// in\n    tag_316:\n        /* \"#utility.yul\":2202:2319   */\n    tag_315:\n        /* \"#utility.yul\":2343:2430   */\n      tag_318\n        /* \"#utility.yul\":2422:2429   */\n      dup7\n        /* \"#utility.yul\":2413:2419   */\n      dup3\n        /* \"#utility.yul\":2402:2411   */\n      dup8\n        /* \"#utility.yul\":2398:2420   */\n      add\n        /* \"#utility.yul\":2343:2430   */\n      tag_298\n      jump\t// in\n    tag_318:\n        /* \"#utility.yul\":2333:2430   */\n      swap4\n      pop\n        /* \"#utility.yul\":2129:2440   */\n      pop\n        /* \"#utility.yul\":2507:2509   */\n      0x20\n        /* \"#utility.yul\":2496:2505   */\n      dup5\n        /* \"#utility.yul\":2492:2510   */\n      add\n        /* \"#utility.yul\":2479:2511   */\n      calldataload\n        /* \"#utility.yul\":2538:2556   */\n      0xffffffffffffffff\n        /* \"#utility.yul\":2530:2536   */\n      dup2\n        /* \"#utility.yul\":2527:2557   */\n      gt\n        /* \"#utility.yul\":2524:2641   */\n      iszero\n      tag_319\n      jumpi\n        /* \"#utility.yul\":2560:2639   */\n      tag_320\n      tag_317\n      jump\t// in\n    tag_320:\n        /* \"#utility.yul\":2524:2641   */\n    tag_319:\n        /* \"#utility.yul\":2673:2737   */\n      tag_321\n        /* \"#utility.yul\":2729:2736   */\n      dup7\n        /* \"#utility.yul\":2720:2726   */\n      dup3\n        /* \"#utility.yul\":2709:2718   */\n      dup8\n        /* \"#utility.yul\":2705:2727   */\n      add\n        /* \"#utility.yul\":2673:2737   */\n      tag_287\n      jump\t// in\n    tag_321:\n        /* \"#utility.yul\":2655:2737   */\n      swap3\n      pop\n      swap3\n      pop\n        /* \"#utility.yul\":2450:2747   */\n      pop\n        /* \"#utility.yul\":1854:2754   */\n      swap3\n      pop\n      swap3\n      pop\n      swap3\n      jump\t// out\n        /* \"#utility.yul\":2760:2878   */\n    tag_322:\n        /* \"#utility.yul\":2847:2871   */\n      tag_324\n        /* \"#utility.yul\":2865:2870   */\n      dup2\n        /* \"#utility.yul\":2847:2871   */\n      tag_325\n      jump\t// in\n    tag_324:\n        /* \"#utility.yul\":2842:2845   */\n      dup3\n        /* \"#utility.yul\":2835:2872   */\n      mstore\n        /* \"#utility.yul\":2760:2878   */\n      pop\n      pop\n      jump\t// out\n        /* \"#utility.yul\":2884:3041   */\n    tag_326:\n        /* \"#utility.yul\":2989:3034   */\n      tag_328\n        /* \"#utility.yul\":3009:3033   */\n      tag_329\n        /* \"#utility.yul\":3027:3032   */\n      dup3\n        /* \"#utility.yul\":3009:3033   */\n      tag_325\n      jump\t// in\n    tag_329:\n        /* \"#utility.yul\":2989:3034   */\n      tag_330\n      jump\t// in\n    tag_328:\n        /* \"#utility.yul\":2984:2987   */\n      dup3\n        /* \"#utility.yul\":2977:3035   */\n      mstore\n        /* \"#utility.yul\":2884:3041   */\n      pop\n      pop\n      jump\t// out\n        /* \"#utility.yul\":3047:3156   */\n    tag_331:\n        /* \"#utility.yul\":3128:3149   */\n      tag_333\n        /* \"#utility.yul\":3143:3148   */\n      dup2\n        /* \"#utility.yul\":3128:3149   */\n      tag_334\n      jump\t// in\n    tag_333:\n        /* \"#utility.yul\":3123:3126   */\n      dup3\n        /* \"#utility.yul\":3116:3150   */\n      mstore\n        /* \"#utility.yul\":3047:3156   */\n      pop\n      pop\n      jump\t// out\n        /* \"#utility.yul\":3162:3280   */\n    tag_335:\n        /* \"#utility.yul\":3249:3273   */\n      tag_337\n        /* \"#utility.yul\":3267:3272   */\n      dup2\n        /* \"#utility.yul\":3249:3273   */\n      tag_338\n      jump\t// in\n    tag_337:\n        /* \"#utility.yul\":3244:3247   */\n      dup3\n        /* \"#utility.yul\":3237:3274   */\n      mstore\n        /* \"#utility.yul\":3162:3280   */\n      pop\n      pop\n      jump\t// out\n        /* \"#utility.yul\":3286:3443   */\n    tag_339:\n        /* \"#utility.yul\":3391:3436   */\n      tag_341\n        /* \"#utility.yul\":3411:3435   */\n      tag_342\n        /* \"#utility.yul\":3429:3434   */\n      dup3\n        /* \"#utility.yul\":3411:3435   */\n      tag_338\n      jump\t// in\n    tag_342:\n        /* \"#utility.yul\":3391:3436   */\n      tag_343\n      jump\t// in\n    tag_341:\n        /* \"#utility.yul\":3386:3389   */\n      dup3\n        /* \"#utility.yul\":3379:3437   */\n      mstore\n        /* \"#utility.yul\":3286:3443   */\n      pop\n      pop\n      jump\t// out\n        /* \"#utility.yul\":3471:3785   */\n    tag_344:\n        /* \"#utility.yul\":3585:3588   */\n      0x00\n        /* \"#utility.yul\":3606:3694   */\n      tag_346\n        /* \"#utility.yul\":3687:3693   */\n      dup4\n        /* \"#utility.yul\":3682:3685   */\n      dup6\n        /* \"#utility.yul\":3606:3694   */\n      tag_347\n      jump\t// in\n    tag_346:\n        /* \"#utility.yul\":3599:3694   */\n      swap4\n      pop\n        /* \"#utility.yul\":3704:3747   */\n      tag_348\n        /* \"#utility.yul\":3740:3746   */\n      dup4\n        /* \"#utility.yul\":3735:3738   */\n      dup6\n        /* \"#utility.yul\":3728:3733   */\n      dup5\n        /* \"#utility.yul\":3704:3747   */\n      tag_349\n      jump\t// in\n    tag_348:\n        /* \"#utility.yul\":3772:3778   */\n      dup3\n        /* \"#utility.yul\":3767:3770   */\n      dup5\n        /* \"#utility.yul\":3763:3779   */\n      add\n        /* \"#utility.yul\":3756:3779   */\n      swap1\n      pop\n        /* \"#utility.yul\":3471:3785   */\n      swap4\n      swap3\n      pop\n      pop\n      pop\n      jump\t// out\n        /* \"#utility.yul\":3791:4151   */\n    tag_350:\n        /* \"#utility.yul\":3877:3880   */\n      0x00\n        /* \"#utility.yul\":3905:3943   */\n      tag_352\n        /* \"#utility.yul\":3937:3942   */\n      dup3\n        /* \"#utility.yul\":3905:3943   */\n      tag_353\n      jump\t// in\n    tag_352:\n        /* \"#utility.yul\":3959:4029   */\n      tag_354\n        /* \"#utility.yul\":4022:4028   */\n      dup2\n        /* \"#utility.yul\":4017:4020   */\n      dup6\n        /* \"#utility.yul\":3959:4029   */\n      tag_355\n      jump\t// in\n    tag_354:\n        /* \"#utility.yul\":3952:4029   */\n      swap4\n      pop\n        /* \"#utility.yul\":4038:4090   */\n      tag_356\n        /* \"#utility.yul\":4083:4089   */\n      dup2\n        /* \"#utility.yul\":4078:4081   */\n      dup6\n        /* \"#utility.yul\":4071:4075   */\n      0x20\n        /* \"#utility.yul\":4064:4069   */\n      dup7\n        /* \"#utility.yul\":4060:4076   */\n      add\n        /* \"#utility.yul\":4038:4090   */\n      tag_357\n      jump\t// in\n    tag_356:\n        /* \"#utility.yul\":4115:4144   */\n      tag_358\n        /* \"#utility.yul\":4137:4143   */\n      dup2\n        /* \"#utility.yul\":4115:4144   */\n      tag_359\n      jump\t// in\n    tag_358:\n        /* \"#utility.yul\":4110:4113   */\n      dup5\n        /* \"#utility.yul\":4106:4145   */\n      add\n        /* \"#utility.yul\":4099:4145   */\n      swap2\n      pop\n        /* \"#utility.yul\":3881:4151   */\n      pop\n        /* \"#utility.yul\":3791:4151   */\n      swap3\n      swap2\n      pop\n      pop\n      jump\t// out\n        /* \"#utility.yul\":4157:4530   */\n    tag_360:\n        /* \"#utility.yul\":4261:4264   */\n      0x00\n        /* \"#utility.yul\":4289:4327   */\n      tag_362\n        /* \"#utility.yul\":4321:4326   */\n      dup3\n        /* \"#utility.yul\":4289:4327   */\n      tag_353\n      jump\t// in\n    tag_362:\n        /* \"#utility.yul\":4343:4431   */\n      tag_363\n        /* \"#utility.yul\":4424:4430   */\n      dup2\n        /* \"#utility.yul\":4419:4422   */\n      dup6\n        /* \"#utility.yul\":4343:4431   */\n      tag_347\n      jump\t// in\n    tag_363:\n        /* \"#utility.yul\":4336:4431   */\n      swap4\n      pop\n        /* \"#utility.yul\":4440:4492   */\n      tag_364\n        /* \"#utility.yul\":4485:4491   */\n      dup2\n        /* \"#utility.yul\":4480:4483   */\n      dup6\n        /* \"#utility.yul\":4473:4477   */\n      0x20\n        /* \"#utility.yul\":4466:4471   */\n      dup7\n        /* \"#utility.yul\":4462:4478   */\n      add\n        /* \"#utility.yul\":4440:4492   */\n      tag_357\n      jump\t// in\n    tag_364:\n        /* \"#utility.yul\":4517:4523   */\n      dup1\n        /* \"#utility.yul\":4512:4515   */\n      dup5\n        /* \"#utility.yul\":4508:4524   */\n      add\n        /* \"#utility.yul\":4501:4524   */\n      swap2\n      pop\n        /* \"#utility.yul\":4265:4530   */\n      pop\n        /* \"#utility.yul\":4157:4530   */\n      swap3\n      swap2\n      pop\n      pop\n      jump\t// out\n        /* \"#utility.yul\":4536:4902   */\n    tag_365:\n        /* \"#utility.yul\":4678:4681   */\n      0x00\n        /* \"#utility.yul\":4699:4766   */\n      tag_367\n        /* \"#utility.yul\":4763:4765   */\n      0x18\n        /* \"#utility.yul\":4758:4761   */\n      dup4\n        /* \"#utility.yul\":4699:4766   */\n      tag_368\n      jump\t// in\n    tag_367:\n        /* \"#utility.yul\":4692:4766   */\n      swap2\n      pop\n        /* \"#utility.yul\":4775:4868   */\n      tag_369\n        /* \"#utility.yul\":4864:4867   */\n      dup3\n        /* \"#utility.yul\":4775:4868   */\n      tag_370\n      jump\t// in\n    tag_369:\n        /* \"#utility.yul\":4893:4895   */\n      0x20\n        /* \"#utility.yul\":4888:4891   */\n      dup3\n        /* \"#utility.yul\":4884:4896   */\n      add\n        /* \"#utility.yul\":4877:4896   */\n      swap1\n      pop\n        /* \"#utility.yul\":4536:4902   */\n      swap2\n      swap1\n      pop\n      jump\t// out\n        /* \"#utility.yul\":4908:5274   */\n    tag_371:\n        /* \"#utility.yul\":5050:5053   */\n      0x00\n        /* \"#utility.yul\":5071:5138   */\n      tag_373\n        /* \"#utility.yul\":5135:5137   */\n      0x14\n        /* \"#utility.yul\":5130:5133   */\n      dup4\n        /* \"#utility.yul\":5071:5138   */\n      tag_368\n      jump\t// in\n    tag_373:\n        /* \"#utility.yul\":5064:5138   */\n      swap2\n      pop\n        /* \"#utility.yul\":5147:5240   */\n      tag_374\n        /* \"#utility.yul\":5236:5239   */\n      dup3\n        /* \"#utility.yul\":5147:5240   */\n      tag_375\n      jump\t// in\n    tag_374:\n        /* \"#utility.yul\":5265:5267   */\n      0x20\n        /* \"#utility.yul\":5260:5263   */\n      dup3\n        /* \"#utility.yul\":5256:5268   */\n      add\n        /* \"#utility.yul\":5249:5268   */\n      swap1\n      pop\n        /* \"#utility.yul\":4908:5274   */\n      swap2\n      swap1\n      pop\n      jump\t// out\n        /* \"#utility.yul\":5280:5646   */\n    tag_376:\n        /* \"#utility.yul\":5422:5425   */\n      0x00\n        /* \"#utility.yul\":5443:5510   */\n      tag_378\n        /* \"#utility.yul\":5507:5509   */\n      0x1f\n        /* \"#utility.yul\":5502:5505   */\n      dup4\n        /* \"#utility.yul\":5443:5510   */\n      tag_368\n      jump\t// in\n    tag_378:\n        /* \"#utility.yul\":5436:5510   */\n      swap2\n      pop\n        /* \"#utility.yul\":5519:5612   */\n      tag_379\n        /* \"#utility.yul\":5608:5611   */\n      dup3\n        /* \"#utility.yul\":5519:5612   */\n      tag_380\n      jump\t// in\n    tag_379:\n        /* \"#utility.yul\":5637:5639   */\n      0x20\n        /* \"#utility.yul\":5632:5635   */\n      dup3\n        /* \"#utility.yul\":5628:5640   */\n      add\n        /* \"#utility.yul\":5621:5640   */\n      swap1\n      pop\n        /* \"#utility.yul\":5280:5646   */\n      swap2\n      swap1\n      pop\n      jump\t// out\n        /* \"#utility.yul\":5652:6018   */\n    tag_381:\n        /* \"#utility.yul\":5794:5797   */\n      0x00\n        /* \"#utility.yul\":5815:5882   */\n      tag_383\n        /* \"#utility.yul\":5879:5881   */\n      0x26\n        /* \"#utility.yul\":5874:5877   */\n      dup4\n        /* \"#utility.yul\":5815:5882   */\n      tag_368\n      jump\t// in\n    tag_383:\n        /* \"#utility.yul\":5808:5882   */\n      swap2\n      pop\n        /* \"#utility.yul\":5891:5984   */\n      tag_384\n        /* \"#utility.yul\":5980:5983   */\n      dup3\n        /* \"#utility.yul\":5891:5984   */\n      tag_385\n      jump\t// in\n    tag_384:\n        /* \"#utility.yul\":6009:6011   */\n      0x40\n        /* \"#utility.yul\":6004:6007   */\n      dup3\n        /* \"#utility.yul\":6000:6012   */\n      add\n        /* \"#utility.yul\":5993:6012   */\n      swap1\n      pop\n        /* \"#utility.yul\":5652:6018   */\n      swap2\n      swap1\n      pop\n      jump\t// out\n        /* \"#utility.yul\":6024:6424   */\n    tag_386:\n        /* \"#utility.yul\":6184:6187   */\n      0x00\n        /* \"#utility.yul\":6205:6289   */\n      tag_388\n        /* \"#utility.yul\":6287:6288   */\n      0x02\n        /* \"#utility.yul\":6282:6285   */\n      dup4\n        /* \"#utility.yul\":6205:6289   */\n      tag_389\n      jump\t// in\n    tag_388:\n        /* \"#utility.yul\":6198:6289   */\n      swap2\n      pop\n        /* \"#utility.yul\":6298:6391   */\n      tag_390\n        /* \"#utility.yul\":6387:6390   */\n      dup3\n        /* \"#utility.yul\":6298:6391   */\n      tag_391\n      jump\t// in\n    tag_390:\n        /* \"#utility.yul\":6416:6417   */\n      0x02\n        /* \"#utility.yul\":6411:6414   */\n      dup3\n        /* \"#utility.yul\":6407:6418   */\n      add\n        /* \"#utility.yul\":6400:6418   */\n      swap1\n      pop\n        /* \"#utility.yul\":6024:6424   */\n      swap2\n      swap1\n      pop\n      jump\t// out\n        /* \"#utility.yul\":6430:6796   */\n    tag_392:\n        /* \"#utility.yul\":6572:6575   */\n      0x00\n        /* \"#utility.yul\":6593:6660   */\n      tag_394\n        /* \"#utility.yul\":6657:6659   */\n      0x3b\n        /* \"#utility.yul\":6652:6655   */\n      dup4\n        /* \"#utility.yul\":6593:6660   */\n      tag_368\n      jump\t// in\n    tag_394:\n        /* \"#utility.yul\":6586:6660   */\n      swap2\n      pop\n        /* \"#utility.yul\":6669:6762   */\n      tag_395\n        /* \"#utility.yul\":6758:6761   */\n      dup3\n        /* \"#utility.yul\":6669:6762   */\n      tag_396\n      jump\t// in\n    tag_395:\n        /* \"#utility.yul\":6787:6789   */\n      0x40\n        /* \"#utility.yul\":6782:6785   */\n      dup3\n        /* \"#utility.yul\":6778:6790   */\n      add\n        /* \"#utility.yul\":6771:6790   */\n      swap1\n      pop\n        /* \"#utility.yul\":6430:6796   */\n      swap2\n      swap1\n      pop\n      jump\t// out\n        /* \"#utility.yul\":6802:7168   */\n    tag_397:\n        /* \"#utility.yul\":6944:6947   */\n      0x00\n        /* \"#utility.yul\":6965:7032   */\n      tag_399\n        /* \"#utility.yul\":7029:7031   */\n      0x22\n        /* \"#utility.yul\":7024:7027   */\n      dup4\n        /* \"#utility.yul\":6965:7032   */\n      tag_368\n      jump\t// in\n    tag_399:\n        /* \"#utility.yul\":6958:7032   */\n      swap2\n      pop\n        /* \"#utility.yul\":7041:7134   */\n      tag_400\n        /* \"#utility.yul\":7130:7133   */\n      dup3\n        /* \"#utility.yul\":7041:7134   */\n      tag_401\n      jump\t// in\n    tag_400:\n        /* \"#utility.yul\":7159:7161   */\n      0x40\n        /* \"#utility.yul\":7154:7157   */\n      dup3\n        /* \"#utility.yul\":7150:7162   */\n      add\n        /* \"#utility.yul\":7143:7162   */\n      swap1\n      pop\n        /* \"#utility.yul\":6802:7168   */\n      swap2\n      swap1\n      pop\n      jump\t// out\n        /* \"#utility.yul\":7174:7540   */\n    tag_402:\n        /* \"#utility.yul\":7316:7319   */\n      0x00\n        /* \"#utility.yul\":7337:7404   */\n      tag_404\n        /* \"#utility.yul\":7401:7403   */\n      0x2e\n        /* \"#utility.yul\":7396:7399   */\n      dup4\n        /* \"#utility.yul\":7337:7404   */\n      tag_368\n      jump\t// in\n    tag_404:\n        /* \"#utility.yul\":7330:7404   */\n      swap2\n      pop\n        /* \"#utility.yul\":7413:7506   */\n      tag_405\n        /* \"#utility.yul\":7502:7505   */\n      dup3\n        /* \"#utility.yul\":7413:7506   */\n      tag_406\n      jump\t// in\n    tag_405:\n        /* \"#utility.yul\":7531:7533   */\n      0x40\n        /* \"#utility.yul\":7526:7529   */\n      dup3\n        /* \"#utility.yul\":7522:7534   */\n      add\n        /* \"#utility.yul\":7515:7534   */\n      swap1\n      pop\n        /* \"#utility.yul\":7174:7540   */\n      swap2\n      swap1\n      pop\n      jump\t// out\n        /* \"#utility.yul\":7546:7912   */\n    tag_407:\n        /* \"#utility.yul\":7688:7691   */\n      0x00\n        /* \"#utility.yul\":7709:7776   */\n      tag_409\n        /* \"#utility.yul\":7773:7775   */\n      0x10\n        /* \"#utility.yul\":7768:7771   */\n      dup4\n        /* \"#utility.yul\":7709:7776   */\n      tag_368\n      jump\t// in\n    tag_409:\n        /* \"#utility.yul\":7702:7776   */\n      swap2\n      pop\n        /* \"#utility.yul\":7785:7878   */\n      tag_410\n        /* \"#utility.yul\":7874:7877   */\n      dup3\n        /* \"#utility.yul\":7785:7878   */\n      tag_411\n      jump\t// in\n    tag_410:\n        /* \"#utility.yul\":7903:7905   */\n      0x20\n        /* \"#utility.yul\":7898:7901   */\n      dup3\n        /* \"#utility.yul\":7894:7906   */\n      add\n        /* \"#utility.yul\":7887:7906   */\n      swap1\n      pop\n        /* \"#utility.yul\":7546:7912   */\n      swap2\n      swap1\n      pop\n      jump\t// out\n        /* \"#utility.yul\":7918:8284   */\n    tag_412:\n        /* \"#utility.yul\":8060:8063   */\n      0x00\n        /* \"#utility.yul\":8081:8148   */\n      tag_414\n        /* \"#utility.yul\":8145:8147   */\n      0x22\n        /* \"#utility.yul\":8140:8143   */\n      dup4\n        /* \"#utility.yul\":8081:8148   */\n      tag_368\n      jump\t// in\n    tag_414:\n        /* \"#utility.yul\":8074:8148   */\n      swap2\n      pop\n        /* \"#utility.yul\":8157:8250   */\n      tag_415\n        /* \"#utility.yul\":8246:8249   */\n      dup3\n        /* \"#utility.yul\":8157:8250   */\n      tag_416\n      jump\t// in\n    tag_415:\n        /* \"#utility.yul\":8275:8277   */\n      0x40\n        /* \"#utility.yul\":8270:8273   */\n      dup3\n        /* \"#utility.yul\":8266:8278   */\n      add\n        /* \"#utility.yul\":8259:8278   */\n      swap1\n      pop\n        /* \"#utility.yul\":7918:8284   */\n      swap2\n      swap1\n      pop\n      jump\t// out\n        /* \"#utility.yul\":8290:8656   */\n    tag_417:\n        /* \"#utility.yul\":8432:8435   */\n      0x00\n        /* \"#utility.yul\":8453:8520   */\n      tag_419\n        /* \"#utility.yul\":8517:8519   */\n      0x33\n        /* \"#utility.yul\":8512:8515   */\n      dup4\n        /* \"#utility.yul\":8453:8520   */\n      tag_368\n      jump\t// in\n    tag_419:\n        /* \"#utility.yul\":8446:8520   */\n      swap2\n      pop\n        /* \"#utility.yul\":8529:8622   */\n      tag_420\n        /* \"#utility.yul\":8618:8621   */\n      dup3\n        /* \"#utility.yul\":8529:8622   */\n      tag_421\n      jump\t// in\n    tag_420:\n        /* \"#utility.yul\":8647:8649   */\n      0x40\n        /* \"#utility.yul\":8642:8645   */\n      dup3\n        /* \"#utility.yul\":8638:8650   */\n      add\n        /* \"#utility.yul\":8631:8650   */\n      swap1\n      pop\n        /* \"#utility.yul\":8290:8656   */\n      swap2\n      swap1\n      pop\n      jump\t// out\n        /* \"#utility.yul\":8662:9028   */\n    tag_422:\n        /* \"#utility.yul\":8804:8807   */\n      0x00\n        /* \"#utility.yul\":8825:8892   */\n      tag_424\n        /* \"#utility.yul\":8889:8891   */\n      0x20\n        /* \"#utility.yul\":8884:8887   */\n      dup4\n        /* \"#utility.yul\":8825:8892   */\n      tag_368\n      jump\t// in\n    tag_424:\n        /* \"#utility.yul\":8818:8892   */\n      swap2\n      pop\n        /* \"#utility.yul\":8901:8994   */\n      tag_425\n        /* \"#utility.yul\":8990:8993   */\n      dup3\n        /* \"#utility.yul\":8901:8994   */\n      tag_426\n      jump\t// in\n    tag_425:\n        /* \"#utility.yul\":9019:9021   */\n      0x20\n        /* \"#utility.yul\":9014:9017   */\n      dup3\n        /* \"#utility.yul\":9010:9022   */\n      add\n        /* \"#utility.yul\":9003:9022   */\n      swap1\n      pop\n        /* \"#utility.yul\":8662:9028   */\n      swap2\n      swap1\n      pop\n      jump\t// out\n        /* \"#utility.yul\":9034:9152   */\n    tag_427:\n        /* \"#utility.yul\":9121:9145   */\n      tag_429\n        /* \"#utility.yul\":9139:9144   */\n      dup2\n        /* \"#utility.yul\":9121:9145   */\n      tag_430\n      jump\t// in\n    tag_429:\n        /* \"#utility.yul\":9116:9119   */\n      dup3\n        /* \"#utility.yul\":9109:9146   */\n      mstore\n        /* \"#utility.yul\":9034:9152   */\n      pop\n      pop\n      jump\t// out\n        /* \"#utility.yul\":9158:9270   */\n    tag_431:\n        /* \"#utility.yul\":9241:9263   */\n      tag_433\n        /* \"#utility.yul\":9257:9262   */\n      dup2\n        /* \"#utility.yul\":9241:9263   */\n      tag_434\n      jump\t// in\n    tag_433:\n        /* \"#utility.yul\":9236:9239   */\n      dup3\n        /* \"#utility.yul\":9229:9264   */\n      mstore\n        /* \"#utility.yul\":9158:9270   */\n      pop\n      pop\n      jump\t// out\n        /* \"#utility.yul\":9276:9567   */\n    tag_151:\n        /* \"#utility.yul\":9416:9419   */\n      0x00\n        /* \"#utility.yul\":9438:9541   */\n      tag_436\n        /* \"#utility.yul\":9537:9540   */\n      dup3\n        /* \"#utility.yul\":9528:9534   */\n      dup5\n        /* \"#utility.yul\":9520:9526   */\n      dup7\n        /* \"#utility.yul\":9438:9541   */\n      tag_344\n      jump\t// in\n    tag_436:\n        /* \"#utility.yul\":9431:9541   */\n      swap2\n      pop\n        /* \"#utility.yul\":9558:9561   */\n      dup2\n        /* \"#utility.yul\":9551:9561   */\n      swap1\n      pop\n        /* \"#utility.yul\":9276:9567   */\n      swap4\n      swap3\n      pop\n      pop\n      pop\n      jump\t// out\n        /* \"#utility.yul\":9573:10005   */\n    tag_125:\n        /* \"#utility.yul\":9741:9744   */\n      0x00\n        /* \"#utility.yul\":9763:9866   */\n      tag_438\n        /* \"#utility.yul\":9862:9865   */\n      dup3\n        /* \"#utility.yul\":9853:9859   */\n      dup6\n        /* \"#utility.yul\":9845:9851   */\n      dup8\n        /* \"#utility.yul\":9763:9866   */\n      tag_344\n      jump\t// in\n    tag_438:\n        /* \"#utility.yul\":9756:9866   */\n      swap2\n      pop\n        /* \"#utility.yul\":9876:9951   */\n      tag_439\n        /* \"#utility.yul\":9947:9950   */\n      dup3\n        /* \"#utility.yul\":9938:9944   */\n      dup5\n        /* \"#utility.yul\":9876:9951   */\n      tag_326\n      jump\t// in\n    tag_439:\n        /* \"#utility.yul\":9976:9978   */\n      0x14\n        /* \"#utility.yul\":9971:9974   */\n      dup3\n        /* \"#utility.yul\":9967:9979   */\n      add\n        /* \"#utility.yul\":9960:9979   */\n      swap2\n      pop\n        /* \"#utility.yul\":9996:9999   */\n      dup2\n        /* \"#utility.yul\":9989:9999   */\n      swap1\n      pop\n        /* \"#utility.yul\":9573:10005   */\n      swap5\n      swap4\n      pop\n      pop\n      pop\n      pop\n      jump\t// out\n        /* \"#utility.yul\":10011:10282   */\n    tag_127:\n        /* \"#utility.yul\":10141:10144   */\n      0x00\n        /* \"#utility.yul\":10163:10256   */\n      tag_441\n        /* \"#utility.yul\":10252:10255   */\n      dup3\n        /* \"#utility.yul\":10243:10249   */\n      dup5\n        /* \"#utility.yul\":10163:10256   */\n      tag_360\n      jump\t// in\n    tag_441:\n        /* \"#utility.yul\":10156:10256   */\n      swap2\n      pop\n        /* \"#utility.yul\":10273:10276   */\n      dup2\n        /* \"#utility.yul\":10266:10276   */\n      swap1\n      pop\n        /* \"#utility.yul\":10011:10282   */\n      swap3\n      swap2\n      pop\n      pop\n      jump\t// out\n        /* \"#utility.yul\":10288:10951   */\n    tag_216:\n        /* \"#utility.yul\":10529:10532   */\n      0x00\n        /* \"#utility.yul\":10551:10699   */\n      tag_443\n        /* \"#utility.yul\":10695:10698   */\n      dup3\n        /* \"#utility.yul\":10551:10699   */\n      tag_386\n      jump\t// in\n    tag_443:\n        /* \"#utility.yul\":10544:10699   */\n      swap2\n      pop\n        /* \"#utility.yul\":10709:10784   */\n      tag_444\n        /* \"#utility.yul\":10780:10783   */\n      dup3\n        /* \"#utility.yul\":10771:10777   */\n      dup6\n        /* \"#utility.yul\":10709:10784   */\n      tag_339\n      jump\t// in\n    tag_444:\n        /* \"#utility.yul\":10809:10811   */\n      0x20\n        /* \"#utility.yul\":10804:10807   */\n      dup3\n        /* \"#utility.yul\":10800:10812   */\n      add\n        /* \"#utility.yul\":10793:10812   */\n      swap2\n      pop\n        /* \"#utility.yul\":10822:10897   */\n      tag_445\n        /* \"#utility.yul\":10893:10896   */\n      dup3\n        /* \"#utility.yul\":10884:10890   */\n      dup5\n        /* \"#utility.yul\":10822:10897   */\n      tag_339\n      jump\t// in\n    tag_445:\n        /* \"#utility.yul\":10922:10924   */\n      0x20\n        /* \"#utility.yul\":10917:10920   */\n      dup3\n        /* \"#utility.yul\":10913:10925   */\n      add\n        /* \"#utility.yul\":10906:10925   */\n      swap2\n      pop\n        /* \"#utility.yul\":10942:10945   */\n      dup2\n        /* \"#utility.yul\":10935:10945   */\n      swap1\n      pop\n        /* \"#utility.yul\":10288:10951   */\n      swap4\n      swap3\n      pop\n      pop\n      pop\n      jump\t// out\n        /* \"#utility.yul\":10957:11179   */\n    tag_73:\n        /* \"#utility.yul\":11050:11054   */\n      0x00\n        /* \"#utility.yul\":11088:11090   */\n      0x20\n        /* \"#utility.yul\":11077:11086   */\n      dup3\n        /* \"#utility.yul\":11073:11091   */\n      add\n        /* \"#utility.yul\":11065:11091   */\n      swap1\n      pop\n        /* \"#utility.yul\":11101:11172   */\n      tag_447\n        /* \"#utility.yul\":11169:11170   */\n      0x00\n        /* \"#utility.yul\":11158:11167   */\n      dup4\n        /* \"#utility.yul\":11154:11171   */\n      add\n        /* \"#utility.yul\":11145:11151   */\n      dup5\n        /* \"#utility.yul\":11101:11172   */\n      tag_322\n      jump\t// in\n    tag_447:\n        /* \"#utility.yul\":10957:11179   */\n      swap3\n      swap2\n      pop\n      pop\n      jump\t// out\n        /* \"#utility.yul\":11185:11395   */\n    tag_45:\n        /* \"#utility.yul\":11272:11276   */\n      0x00\n        /* \"#utility.yul\":11310:11312   */\n      0x20\n        /* \"#utility.yul\":11299:11308   */\n      dup3\n        /* \"#utility.yul\":11295:11313   */\n      add\n        /* \"#utility.yul\":11287:11313   */\n      swap1\n      pop\n        /* \"#utility.yul\":11323:11388   */\n      tag_449\n        /* \"#utility.yul\":11385:11386   */\n      0x00\n        /* \"#utility.yul\":11374:11383   */\n      dup4\n        /* \"#utility.yul\":11370:11387   */\n      add\n        /* \"#utility.yul\":11361:11367   */\n      dup5\n        /* \"#utility.yul\":11323:11388   */\n      tag_331\n      jump\t// in\n    tag_449:\n        /* \"#utility.yul\":11185:11395   */\n      swap3\n      swap2\n      pop\n      pop\n      jump\t// out\n        /* \"#utility.yul\":11401:11808   */\n    tag_58:\n        /* \"#utility.yul\":11534:11538   */\n      0x00\n        /* \"#utility.yul\":11572:11574   */\n      0x40\n        /* \"#utility.yul\":11561:11570   */\n      dup3\n        /* \"#utility.yul\":11557:11575   */\n      add\n        /* \"#utility.yul\":11549:11575   */\n      swap1\n      pop\n        /* \"#utility.yul\":11585:11650   */\n      tag_451\n        /* \"#utility.yul\":11647:11648   */\n      0x00\n        /* \"#utility.yul\":11636:11645   */\n      dup4\n        /* \"#utility.yul\":11632:11649   */\n      add\n        /* \"#utility.yul\":11623:11629   */\n      dup6\n        /* \"#utility.yul\":11585:11650   */\n      tag_331\n      jump\t// in\n    tag_451:\n        /* \"#utility.yul\":11697:11706   */\n      dup2\n        /* \"#utility.yul\":11691:11695   */\n      dup2\n        /* \"#utility.yul\":11687:11707   */\n      sub\n        /* \"#utility.yul\":11682:11684   */\n      0x20\n        /* \"#utility.yul\":11671:11680   */\n      dup4\n        /* \"#utility.yul\":11667:11685   */\n      add\n        /* \"#utility.yul\":11660:11708   */\n      mstore\n        /* \"#utility.yul\":11725:11801   */\n      tag_452\n        /* \"#utility.yul\":11796:11800   */\n      dup2\n        /* \"#utility.yul\":11787:11793   */\n      dup5\n        /* \"#utility.yul\":11725:11801   */\n      tag_350\n      jump\t// in\n    tag_452:\n        /* \"#utility.yul\":11717:11801   */\n      swap1\n      pop\n        /* \"#utility.yul\":11401:11808   */\n      swap4\n      swap3\n      pop\n      pop\n      pop\n      jump\t// out\n        /* \"#utility.yul\":11814:12036   */\n    tag_39:\n        /* \"#utility.yul\":11907:11911   */\n      0x00\n        /* \"#utility.yul\":11945:11947   */\n      0x20\n        /* \"#utility.yul\":11934:11943   */\n      dup3\n        /* \"#utility.yul\":11930:11948   */\n      add\n        /* \"#utility.yul\":11922:11948   */\n      swap1\n      pop\n        /* \"#utility.yul\":11958:12029   */\n      tag_454\n        /* \"#utility.yul\":12026:12027   */\n      0x00\n        /* \"#utility.yul\":12015:12024   */\n      dup4\n        /* \"#utility.yul\":12011:12028   */\n      add\n        /* \"#utility.yul\":12002:12008   */\n      dup5\n        /* \"#utility.yul\":11958:12029   */\n      tag_335\n      jump\t// in\n    tag_454:\n        /* \"#utility.yul\":11814:12036   */\n      swap3\n      swap2\n      pop\n      pop\n      jump\t// out\n        /* \"#utility.yul\":12042:12928   */\n    tag_153:\n        /* \"#utility.yul\":12303:12307   */\n      0x00\n        /* \"#utility.yul\":12341:12344   */\n      0xe0\n        /* \"#utility.yul\":12330:12339   */\n      dup3\n        /* \"#utility.yul\":12326:12345   */\n      add\n        /* \"#utility.yul\":12318:12345   */\n      swap1\n      pop\n        /* \"#utility.yul\":12355:12426   */\n      tag_456\n        /* \"#utility.yul\":12423:12424   */\n      0x00\n        /* \"#utility.yul\":12412:12421   */\n      dup4\n        /* \"#utility.yul\":12408:12425   */\n      add\n        /* \"#utility.yul\":12399:12405   */\n      dup11\n        /* \"#utility.yul\":12355:12426   */\n      tag_335\n      jump\t// in\n    tag_456:\n        /* \"#utility.yul\":12436:12508   */\n      tag_457\n        /* \"#utility.yul\":12504:12506   */\n      0x20\n        /* \"#utility.yul\":12493:12502   */\n      dup4\n        /* \"#utility.yul\":12489:12507   */\n      add\n        /* \"#utility.yul\":12480:12486   */\n      dup10\n        /* \"#utility.yul\":12436:12508   */\n      tag_322\n      jump\t// in\n    tag_457:\n        /* \"#utility.yul\":12518:12590   */\n      tag_458\n        /* \"#utility.yul\":12586:12588   */\n      0x40\n        /* \"#utility.yul\":12575:12584   */\n      dup4\n        /* \"#utility.yul\":12571:12589   */\n      add\n        /* \"#utility.yul\":12562:12568   */\n      dup9\n        /* \"#utility.yul\":12518:12590   */\n      tag_322\n      jump\t// in\n    tag_458:\n        /* \"#utility.yul\":12600:12672   */\n      tag_459\n        /* \"#utility.yul\":12668:12670   */\n      0x60\n        /* \"#utility.yul\":12657:12666   */\n      dup4\n        /* \"#utility.yul\":12653:12671   */\n      add\n        /* \"#utility.yul\":12644:12650   */\n      dup8\n        /* \"#utility.yul\":12600:12672   */\n      tag_427\n      jump\t// in\n    tag_459:\n        /* \"#utility.yul\":12682:12755   */\n      tag_460\n        /* \"#utility.yul\":12750:12753   */\n      0x80\n        /* \"#utility.yul\":12739:12748   */\n      dup4\n        /* \"#utility.yul\":12735:12754   */\n      add\n        /* \"#utility.yul\":12726:12732   */\n      dup7\n        /* \"#utility.yul\":12682:12755   */\n      tag_427\n      jump\t// in\n    tag_460:\n        /* \"#utility.yul\":12765:12838   */\n      tag_461\n        /* \"#utility.yul\":12833:12836   */\n      0xa0\n        /* \"#utility.yul\":12822:12831   */\n      dup4\n        /* \"#utility.yul\":12818:12837   */\n      add\n        /* \"#utility.yul\":12809:12815   */\n      dup6\n        /* \"#utility.yul\":12765:12838   */\n      tag_427\n      jump\t// in\n    tag_461:\n        /* \"#utility.yul\":12848:12921   */\n      tag_462\n        /* \"#utility.yul\":12916:12919   */\n      0xc0\n        /* \"#utility.yul\":12905:12914   */\n      dup4\n        /* \"#utility.yul\":12901:12920   */\n      add\n        /* \"#utility.yul\":12892:12898   */\n      dup5\n        /* \"#utility.yul\":12848:12921   */\n      tag_335\n      jump\t// in\n    tag_462:\n        /* \"#utility.yul\":12042:12928   */\n      swap9\n      swap8\n      pop\n      pop\n      pop\n      pop\n      pop\n      pop\n      pop\n      pop\n      jump\t// out\n        /* \"#utility.yul\":12934:13598   */\n    tag_208:\n        /* \"#utility.yul\":13139:13143   */\n      0x00\n        /* \"#utility.yul\":13177:13180   */\n      0xa0\n        /* \"#utility.yul\":13166:13175   */\n      dup3\n        /* \"#utility.yul\":13162:13181   */\n      add\n        /* \"#utility.yul\":13154:13181   */\n      swap1\n      pop\n        /* \"#utility.yul\":13191:13262   */\n      tag_464\n        /* \"#utility.yul\":13259:13260   */\n      0x00\n        /* \"#utility.yul\":13248:13257   */\n      dup4\n        /* \"#utility.yul\":13244:13261   */\n      add\n        /* \"#utility.yul\":13235:13241   */\n      dup9\n        /* \"#utility.yul\":13191:13262   */\n      tag_335\n      jump\t// in\n    tag_464:\n        /* \"#utility.yul\":13272:13344   */\n      tag_465\n        /* \"#utility.yul\":13340:13342   */\n      0x20\n        /* \"#utility.yul\":13329:13338   */\n      dup4\n        /* \"#utility.yul\":13325:13343   */\n      add\n        /* \"#utility.yul\":13316:13322   */\n      dup8\n        /* \"#utility.yul\":13272:13344   */\n      tag_335\n      jump\t// in\n    tag_465:\n        /* \"#utility.yul\":13354:13426   */\n      tag_466\n        /* \"#utility.yul\":13422:13424   */\n      0x40\n        /* \"#utility.yul\":13411:13420   */\n      dup4\n        /* \"#utility.yul\":13407:13425   */\n      add\n        /* \"#utility.yul\":13398:13404   */\n      dup7\n        /* \"#utility.yul\":13354:13426   */\n      tag_335\n      jump\t// in\n    tag_466:\n        /* \"#utility.yul\":13436:13508   */\n      tag_467\n        /* \"#utility.yul\":13504:13506   */\n      0x60\n        /* \"#utility.yul\":13493:13502   */\n      dup4\n        /* \"#utility.yul\":13489:13507   */\n      add\n        /* \"#utility.yul\":13480:13486   */\n      dup6\n        /* \"#utility.yul\":13436:13508   */\n      tag_427\n      jump\t// in\n    tag_467:\n        /* \"#utility.yul\":13518:13591   */\n      tag_468\n        /* \"#utility.yul\":13586:13589   */\n      0x80\n        /* \"#utility.yul\":13575:13584   */\n      dup4\n        /* \"#utility.yul\":13571:13590   */\n      add\n        /* \"#utility.yul\":13562:13568   */\n      dup5\n        /* \"#utility.yul\":13518:13591   */\n      tag_322\n      jump\t// in\n    tag_468:\n        /* \"#utility.yul\":12934:13598   */\n      swap7\n      swap6\n      pop\n      pop\n      pop\n      pop\n      pop\n      pop\n      jump\t// out\n        /* \"#utility.yul\":13604:14149   */\n    tag_270:\n        /* \"#utility.yul\":13777:13781   */\n      0x00\n        /* \"#utility.yul\":13815:13818   */\n      0x80\n        /* \"#utility.yul\":13804:13813   */\n      dup3\n        /* \"#utility.yul\":13800:13819   */\n      add\n        /* \"#utility.yul\":13792:13819   */\n      swap1\n      pop\n        /* \"#utility.yul\":13829:13900   */\n      tag_470\n        /* \"#utility.yul\":13897:13898   */\n      0x00\n        /* \"#utility.yul\":13886:13895   */\n      dup4\n        /* \"#utility.yul\":13882:13899   */\n      add\n        /* \"#utility.yul\":13873:13879   */\n      dup8\n        /* \"#utility.yul\":13829:13900   */\n      tag_335\n      jump\t// in\n    tag_470:\n        /* \"#utility.yul\":13910:13978   */\n      tag_471\n        /* \"#utility.yul\":13974:13976   */\n      0x20\n        /* \"#utility.yul\":13963:13972   */\n      dup4\n        /* \"#utility.yul\":13959:13977   */\n      add\n        /* \"#utility.yul\":13950:13956   */\n      dup7\n        /* \"#utility.yul\":13910:13978   */\n      tag_431\n      jump\t// in\n    tag_471:\n        /* \"#utility.yul\":13988:14060   */\n      tag_472\n        /* \"#utility.yul\":14056:14058   */\n      0x40\n        /* \"#utility.yul\":14045:14054   */\n      dup4\n        /* \"#utility.yul\":14041:14059   */\n      add\n        /* \"#utility.yul\":14032:14038   */\n      dup6\n        /* \"#utility.yul\":13988:14060   */\n      tag_335\n      jump\t// in\n    tag_472:\n        /* \"#utility.yul\":14070:14142   */\n      tag_473\n        /* \"#utility.yul\":14138:14140   */\n      0x60\n        /* \"#utility.yul\":14127:14136   */\n      dup4\n        /* \"#utility.yul\":14123:14141   */\n      add\n        /* \"#utility.yul\":14114:14120   */\n      dup5\n        /* \"#utility.yul\":14070:14142   */\n      tag_335\n      jump\t// in\n    tag_473:\n        /* \"#utility.yul\":13604:14149   */\n      swap6\n      swap5\n      pop\n      pop\n      pop\n      pop\n      pop\n      jump\t// out\n        /* \"#utility.yul\":14155:14574   */\n    tag_240:\n        /* \"#utility.yul\":14321:14325   */\n      0x00\n        /* \"#utility.yul\":14359:14361   */\n      0x20\n        /* \"#utility.yul\":14348:14357   */\n      dup3\n        /* \"#utility.yul\":14344:14362   */\n      add\n        /* \"#utility.yul\":14336:14362   */\n      swap1\n      pop\n        /* \"#utility.yul\":14408:14417   */\n      dup2\n        /* \"#utility.yul\":14402:14406   */\n      dup2\n        /* \"#utility.yul\":14398:14418   */\n      sub\n        /* \"#utility.yul\":14394:14395   */\n      0x00\n        /* \"#utility.yul\":14383:14392   */\n      dup4\n        /* \"#utility.yul\":14379:14396   */\n      add\n        /* \"#utility.yul\":14372:14419   */\n      mstore\n        /* \"#utility.yul\":14436:14567   */\n      tag_475\n        /* \"#utility.yul\":14562:14566   */\n      dup2\n        /* \"#utility.yul\":14436:14567   */\n      tag_365\n      jump\t// in\n    tag_475:\n        /* \"#utility.yul\":14428:14567   */\n      swap1\n      pop\n        /* \"#utility.yul\":14155:14574   */\n      swap2\n      swap1\n      pop\n      jump\t// out\n        /* \"#utility.yul\":14580:14999   */\n    tag_213:\n        /* \"#utility.yul\":14746:14750   */\n      0x00\n        /* \"#utility.yul\":14784:14786   */\n      0x20\n        /* \"#utility.yul\":14773:14782   */\n      dup3\n        /* \"#utility.yul\":14769:14787   */\n      add\n        /* \"#utility.yul\":14761:14787   */\n      swap1\n      pop\n        /* \"#utility.yul\":14833:14842   */\n      dup2\n        /* \"#utility.yul\":14827:14831   */\n      dup2\n        /* \"#utility.yul\":14823:14843   */\n      sub\n        /* \"#utility.yul\":14819:14820   */\n      0x00\n        /* \"#utility.yul\":14808:14817   */\n      dup4\n        /* \"#utility.yul\":14804:14821   */\n      add\n        /* \"#utility.yul\":14797:14844   */\n      mstore\n        /* \"#utility.yul\":14861:14992   */\n      tag_477\n        /* \"#utility.yul\":14987:14991   */\n      dup2\n        /* \"#utility.yul\":14861:14992   */\n      tag_371\n      jump\t// in\n    tag_477:\n        /* \"#utility.yul\":14853:14992   */\n      swap1\n      pop\n        /* \"#utility.yul\":14580:14999   */\n      swap2\n      swap1\n      pop\n      jump\t// out\n        /* \"#utility.yul\":15005:15424   */\n    tag_248:\n        /* \"#utility.yul\":15171:15175   */\n      0x00\n        /* \"#utility.yul\":15209:15211   */\n      0x20\n        /* \"#utility.yul\":15198:15207   */\n      dup3\n        /* \"#utility.yul\":15194:15212   */\n      add\n        /* \"#utility.yul\":15186:15212   */\n      swap1\n      pop\n        /* \"#utility.yul\":15258:15267   */\n      dup2\n        /* \"#utility.yul\":15252:15256   */\n      dup2\n        /* \"#utility.yul\":15248:15268   */\n      sub\n        /* \"#utility.yul\":15244:15245   */\n      0x00\n        /* \"#utility.yul\":15233:15242   */\n      dup4\n        /* \"#utility.yul\":15229:15246   */\n      add\n        /* \"#utility.yul\":15222:15269   */\n      mstore\n        /* \"#utility.yul\":15286:15417   */\n      tag_479\n        /* \"#utility.yul\":15412:15416   */\n      dup2\n        /* \"#utility.yul\":15286:15417   */\n      tag_376\n      jump\t// in\n    tag_479:\n        /* \"#utility.yul\":15278:15417   */\n      swap1\n      pop\n        /* \"#utility.yul\":15005:15424   */\n      swap2\n      swap1\n      pop\n      jump\t// out\n        /* \"#utility.yul\":15430:15849   */\n    tag_164:\n        /* \"#utility.yul\":15596:15600   */\n      0x00\n        /* \"#utility.yul\":15634:15636   */\n      0x20\n        /* \"#utility.yul\":15623:15632   */\n      dup3\n        /* \"#utility.yul\":15619:15637   */\n      add\n        /* \"#utility.yul\":15611:15637   */\n      swap1\n      pop\n        /* \"#utility.yul\":15683:15692   */\n      dup2\n        /* \"#utility.yul\":15677:15681   */\n      dup2\n        /* \"#utility.yul\":15673:15693   */\n      sub\n        /* \"#utility.yul\":15669:15670   */\n      0x00\n        /* \"#utility.yul\":15658:15667   */\n      dup4\n        /* \"#utility.yul\":15654:15671   */\n      add\n        /* \"#utility.yul\":15647:15694   */\n      mstore\n        /* \"#utility.yul\":15711:15842   */\n      tag_481\n        /* \"#utility.yul\":15837:15841   */\n      dup2\n        /* \"#utility.yul\":15711:15842   */\n      tag_381\n      jump\t// in\n    tag_481:\n        /* \"#utility.yul\":15703:15842   */\n      swap1\n      pop\n        /* \"#utility.yul\":15430:15849   */\n      swap2\n      swap1\n      pop\n      jump\t// out\n        /* \"#utility.yul\":15855:16274   */\n    tag_115:\n        /* \"#utility.yul\":16021:16025   */\n      0x00\n        /* \"#utility.yul\":16059:16061   */\n      0x20\n        /* \"#utility.yul\":16048:16057   */\n      dup3\n        /* \"#utility.yul\":16044:16062   */\n      add\n        /* \"#utility.yul\":16036:16062   */\n      swap1\n      pop\n        /* \"#utility.yul\":16108:16117   */\n      dup2\n        /* \"#utility.yul\":16102:16106   */\n      dup2\n        /* \"#utility.yul\":16098:16118   */\n      sub\n        /* \"#utility.yul\":16094:16095   */\n      0x00\n        /* \"#utility.yul\":16083:16092   */\n      dup4\n        /* \"#utility.yul\":16079:16096   */\n      add\n        /* \"#utility.yul\":16072:16119   */\n      mstore\n        /* \"#utility.yul\":16136:16267   */\n      tag_483\n        /* \"#utility.yul\":16262:16266   */\n      dup2\n        /* \"#utility.yul\":16136:16267   */\n      tag_392\n      jump\t// in\n    tag_483:\n        /* \"#utility.yul\":16128:16267   */\n      swap1\n      pop\n        /* \"#utility.yul\":15855:16274   */\n      swap2\n      swap1\n      pop\n      jump\t// out\n        /* \"#utility.yul\":16280:16699   */\n    tag_256:\n        /* \"#utility.yul\":16446:16450   */\n      0x00\n        /* \"#utility.yul\":16484:16486   */\n      0x20\n        /* \"#utility.yul\":16473:16482   */\n      dup3\n        /* \"#utility.yul\":16469:16487   */\n      add\n        /* \"#utility.yul\":16461:16487   */\n      swap1\n      pop\n        /* \"#utility.yul\":16533:16542   */\n      dup2\n        /* \"#utility.yul\":16527:16531   */\n      dup2\n        /* \"#utility.yul\":16523:16543   */\n      sub\n        /* \"#utility.yul\":16519:16520   */\n      0x00\n        /* \"#utility.yul\":16508:16517   */\n      dup4\n        /* \"#utility.yul\":16504:16521   */\n      add\n        /* \"#utility.yul\":16497:16544   */\n      mstore\n        /* \"#utility.yul\":16561:16692   */\n      tag_485\n        /* \"#utility.yul\":16687:16691   */\n      dup2\n        /* \"#utility.yul\":16561:16692   */\n      tag_397\n      jump\t// in\n    tag_485:\n        /* \"#utility.yul\":16553:16692   */\n      swap1\n      pop\n        /* \"#utility.yul\":16280:16699   */\n      swap2\n      swap1\n      pop\n      jump\t// out\n        /* \"#utility.yul\":16705:17124   */\n    tag_119:\n        /* \"#utility.yul\":16871:16875   */\n      0x00\n        /* \"#utility.yul\":16909:16911   */\n      0x20\n        /* \"#utility.yul\":16898:16907   */\n      dup3\n        /* \"#utility.yul\":16894:16912   */\n      add\n        /* \"#utility.yul\":16886:16912   */\n      swap1\n      pop\n        /* \"#utility.yul\":16958:16967   */\n      dup2\n        /* \"#utility.yul\":16952:16956   */\n      dup2\n        /* \"#utility.yul\":16948:16968   */\n      sub\n        /* \"#utility.yul\":16944:16945   */\n      0x00\n        /* \"#utility.yul\":16933:16942   */\n      dup4\n        /* \"#utility.yul\":16929:16946   */\n      add\n        /* \"#utility.yul\":16922:16969   */\n      mstore\n        /* \"#utility.yul\":16986:17117   */\n      tag_487\n        /* \"#utility.yul\":17112:17116   */\n      dup2\n        /* \"#utility.yul\":16986:17117   */\n      tag_402\n      jump\t// in\n    tag_487:\n        /* \"#utility.yul\":16978:17117   */\n      swap1\n      pop\n        /* \"#utility.yul\":16705:17124   */\n      swap2\n      swap1\n      pop\n      jump\t// out\n        /* \"#utility.yul\":17130:17549   */\n    tag_189:\n        /* \"#utility.yul\":17296:17300   */\n      0x00\n        /* \"#utility.yul\":17334:17336   */\n      0x20\n        /* \"#utility.yul\":17323:17332   */\n      dup3\n        /* \"#utility.yul\":17319:17337   */\n      add\n        /* \"#utility.yul\":17311:17337   */\n      swap1\n      pop\n        /* \"#utility.yul\":17383:17392   */\n      dup2\n        /* \"#utility.yul\":17377:17381   */\n      dup2\n        /* \"#utility.yul\":17373:17393   */\n      sub\n        /* \"#utility.yul\":17369:17370   */\n      0x00\n        /* \"#utility.yul\":17358:17367   */\n      dup4\n        /* \"#utility.yul\":17354:17371   */\n      add\n        /* \"#utility.yul\":17347:17394   */\n      mstore\n        /* \"#utility.yul\":17411:17542   */\n      tag_489\n        /* \"#utility.yul\":17537:17541   */\n      dup2\n        /* \"#utility.yul\":17411:17542   */\n      tag_407\n      jump\t// in\n    tag_489:\n        /* \"#utility.yul\":17403:17542   */\n      swap1\n      pop\n        /* \"#utility.yul\":17130:17549   */\n      swap2\n      swap1\n      pop\n      jump\t// out\n        /* \"#utility.yul\":17555:17974   */\n    tag_264:\n        /* \"#utility.yul\":17721:17725   */\n      0x00\n        /* \"#utility.yul\":17759:17761   */\n      0x20\n        /* \"#utility.yul\":17748:17757   */\n      dup3\n        /* \"#utility.yul\":17744:17762   */\n      add\n        /* \"#utility.yul\":17736:17762   */\n      swap1\n      pop\n        /* \"#utility.yul\":17808:17817   */\n      dup2\n        /* \"#utility.yul\":17802:17806   */\n      dup2\n        /* \"#utility.yul\":17798:17818   */\n      sub\n        /* \"#utility.yul\":17794:17795   */\n      0x00\n        /* \"#utility.yul\":17783:17792   */\n      dup4\n        /* \"#utility.yul\":17779:17796   */\n      add\n        /* \"#utility.yul\":17772:17819   */\n      mstore\n        /* \"#utility.yul\":17836:17967   */\n      tag_491\n        /* \"#utility.yul\":17962:17966   */\n      dup2\n        /* \"#utility.yul\":17836:17967   */\n      tag_412\n      jump\t// in\n    tag_491:\n        /* \"#utility.yul\":17828:17967   */\n      swap1\n      pop\n        /* \"#utility.yul\":17555:17974   */\n      swap2\n      swap1\n      pop\n      jump\t// out\n        /* \"#utility.yul\":17980:18399   */\n    tag_103:\n        /* \"#utility.yul\":18146:18150   */\n      0x00\n        /* \"#utility.yul\":18184:18186   */\n      0x20\n        /* \"#utility.yul\":18173:18182   */\n      dup3\n        /* \"#utility.yul\":18169:18187   */\n      add\n        /* \"#utility.yul\":18161:18187   */\n      swap1\n      pop\n        /* \"#utility.yul\":18233:18242   */\n      dup2\n        /* \"#utility.yul\":18227:18231   */\n      dup2\n        /* \"#utility.yul\":18223:18243   */\n      sub\n        /* \"#utility.yul\":18219:18220   */\n      0x00\n        /* \"#utility.yul\":18208:18217   */\n      dup4\n        /* \"#utility.yul\":18204:18221   */\n      add\n        /* \"#utility.yul\":18197:18244   */\n      mstore\n        /* \"#utility.yul\":18261:18392   */\n      tag_493\n        /* \"#utility.yul\":18387:18391   */\n      dup2\n        /* \"#utility.yul\":18261:18392   */\n      tag_417\n      jump\t// in\n    tag_493:\n        /* \"#utility.yul\":18253:18392   */\n      swap1\n      pop\n        /* \"#utility.yul\":17980:18399   */\n      swap2\n      swap1\n      pop\n      jump\t// out\n        /* \"#utility.yul\":18405:18824   */\n    tag_172:\n        /* \"#utility.yul\":18571:18575   */\n      0x00\n        /* \"#utility.yul\":18609:18611   */\n      0x20\n        /* \"#utility.yul\":18598:18607   */\n      dup3\n        /* \"#utility.yul\":18594:18612   */\n      add\n        /* \"#utility.yul\":18586:18612   */\n      swap1\n      pop\n        /* \"#utility.yul\":18658:18667   */\n      dup2\n        /* \"#utility.yul\":18652:18656   */\n      dup2\n        /* \"#utility.yul\":18648:18668   */\n      sub\n        /* \"#utility.yul\":18644:18645   */\n      0x00\n        /* \"#utility.yul\":18633:18642   */\n      dup4\n        /* \"#utility.yul\":18629:18646   */\n      add\n        /* \"#utility.yul\":18622:18669   */\n      mstore\n        /* \"#utility.yul\":18686:18817   */\n      tag_495\n        /* \"#utility.yul\":18812:18816   */\n      dup2\n        /* \"#utility.yul\":18686:18817   */\n      tag_422\n      jump\t// in\n    tag_495:\n        /* \"#utility.yul\":18678:18817   */\n      swap1\n      pop\n        /* \"#utility.yul\":18405:18824   */\n      swap2\n      swap1\n      pop\n      jump\t// out\n        /* \"#utility.yul\":18830:19052   */\n    tag_34:\n        /* \"#utility.yul\":18923:18927   */\n      0x00\n        /* \"#utility.yul\":18961:18963   */\n      0x20\n        /* \"#utility.yul\":18950:18959   */\n      dup3\n        /* \"#utility.yul\":18946:18964   */\n      add\n        /* \"#utility.yul\":18938:18964   */\n      swap1\n      pop\n        /* \"#utility.yul\":18974:19045   */\n      tag_497\n        /* \"#utility.yul\":19042:19043   */\n      0x00\n        /* \"#utility.yul\":19031:19040   */\n      dup4\n        /* \"#utility.yul\":19027:19044   */\n      add\n        /* \"#utility.yul\":19018:19024   */\n      dup5\n        /* \"#utility.yul\":18974:19045   */\n      tag_427\n      jump\t// in\n    tag_497:\n        /* \"#utility.yul\":18830:19052   */\n      swap3\n      swap2\n      pop\n      pop\n      jump\t// out\n        /* \"#utility.yul\":19058:19782   */\n    tag_122:\n        /* \"#utility.yul\":19135:19139   */\n      0x00\n        /* \"#utility.yul\":19141:19147   */\n      dup1\n        /* \"#utility.yul\":19197:19208   */\n      dup4\n        /* \"#utility.yul\":19184:19209   */\n      calldataload\n        /* \"#utility.yul\":19297:19298   */\n      0x01\n        /* \"#utility.yul\":19291:19295   */\n      0x20\n        /* \"#utility.yul\":19287:19299   */\n      sub\n        /* \"#utility.yul\":19276:19284   */\n      dup5\n        /* \"#utility.yul\":19260:19274   */\n      calldatasize\n        /* \"#utility.yul\":19256:19285   */\n      sub\n        /* \"#utility.yul\":19252:19300   */\n      sub\n        /* \"#utility.yul\":19232:19250   */\n      dup2\n        /* \"#utility.yul\":19228:19301   */\n      slt\n        /* \"#utility.yul\":19218:19386   */\n      tag_499\n      jumpi\n        /* \"#utility.yul\":19305:19384   */\n      tag_500\n      tag_501\n      jump\t// in\n    tag_500:\n        /* \"#utility.yul\":19218:19386   */\n    tag_499:\n        /* \"#utility.yul\":19417:19435   */\n      dup1\n        /* \"#utility.yul\":19407:19415   */\n      dup5\n        /* \"#utility.yul\":19403:19436   */\n      add\n        /* \"#utility.yul\":19395:19436   */\n      swap3\n      pop\n        /* \"#utility.yul\":19469:19473   */\n      dup3\n        /* \"#utility.yul\":19456:19474   */\n      calldataload\n        /* \"#utility.yul\":19446:19474   */\n      swap2\n      pop\n        /* \"#utility.yul\":19497:19515   */\n      0xffffffffffffffff\n        /* \"#utility.yul\":19489:19495   */\n      dup3\n        /* \"#utility.yul\":19486:19516   */\n      gt\n        /* \"#utility.yul\":19483:19600   */\n      iszero\n      tag_502\n      jumpi\n        /* \"#utility.yul\":19519:19598   */\n      tag_503\n      tag_504\n      jump\t// in\n    tag_503:\n        /* \"#utility.yul\":19483:19600   */\n    tag_502:\n        /* \"#utility.yul\":19627:19629   */\n      0x20\n        /* \"#utility.yul\":19621:19625   */\n      dup4\n        /* \"#utility.yul\":19617:19630   */\n      add\n        /* \"#utility.yul\":19609:19630   */\n      swap3\n      pop\n        /* \"#utility.yul\":19684:19688   */\n      0x01\n        /* \"#utility.yul\":19676:19682   */\n      dup3\n        /* \"#utility.yul\":19672:19689   */\n      mul\n        /* \"#utility.yul\":19656:19670   */\n      calldatasize\n        /* \"#utility.yul\":19652:19690   */\n      sub\n        /* \"#utility.yul\":19646:19650   */\n      dup4\n        /* \"#utility.yul\":19642:19691   */\n      sgt\n        /* \"#utility.yul\":19639:19775   */\n      iszero\n      tag_505\n      jumpi\n        /* \"#utility.yul\":19694:19773   */\n      tag_506\n      tag_507\n      jump\t// in\n    tag_506:\n        /* \"#utility.yul\":19639:19775   */\n    tag_505:\n        /* \"#utility.yul\":19148:19782   */\n      pop\n        /* \"#utility.yul\":19058:19782   */\n      swap3\n      pop\n      swap3\n      swap1\n      pop\n      jump\t// out\n        /* \"#utility.yul\":19869:19967   */\n    tag_353:\n        /* \"#utility.yul\":19920:19926   */\n      0x00\n        /* \"#utility.yul\":19954:19959   */\n      dup2\n        /* \"#utility.yul\":19948:19960   */\n      mload\n        /* \"#utility.yul\":19938:19960   */\n      swap1\n      pop\n        /* \"#utility.yul\":19869:19967   */\n      swap2\n      swap1\n      pop\n      jump\t// out\n        /* \"#utility.yul\":19973:20141   */\n    tag_355:\n        /* \"#utility.yul\":20056:20067   */\n      0x00\n        /* \"#utility.yul\":20090:20096   */\n      dup3\n        /* \"#utility.yul\":20085:20088   */\n      dup3\n        /* \"#utility.yul\":20078:20097   */\n      mstore\n        /* \"#utility.yul\":20130:20134   */\n      0x20\n        /* \"#utility.yul\":20125:20128   */\n      dup3\n        /* \"#utility.yul\":20121:20135   */\n      add\n        /* \"#utility.yul\":20106:20135   */\n      swap1\n      pop\n        /* \"#utility.yul\":19973:20141   */\n      swap3\n      swap2\n      pop\n      pop\n      jump\t// out\n        /* \"#utility.yul\":20147:20294   */\n    tag_347:\n        /* \"#utility.yul\":20248:20259   */\n      0x00\n        /* \"#utility.yul\":20285:20288   */\n      dup2\n        /* \"#utility.yul\":20270:20288   */\n      swap1\n      pop\n        /* \"#utility.yul\":20147:20294   */\n      swap3\n      swap2\n      pop\n      pop\n      jump\t// out\n        /* \"#utility.yul\":20300:20469   */\n    tag_368:\n        /* \"#utility.yul\":20384:20395   */\n      0x00\n        /* \"#utility.yul\":20418:20424   */\n      dup3\n        /* \"#utility.yul\":20413:20416   */\n      dup3\n        /* \"#utility.yul\":20406:20425   */\n      mstore\n        /* \"#utility.yul\":20458:20462   */\n      0x20\n        /* \"#utility.yul\":20453:20456   */\n      dup3\n        /* \"#utility.yul\":20449:20463   */\n      add\n        /* \"#utility.yul\":20434:20463   */\n      swap1\n      pop\n        /* \"#utility.yul\":20300:20469   */\n      swap3\n      swap2\n      pop\n      pop\n      jump\t// out\n        /* \"#utility.yul\":20475:20623   */\n    tag_389:\n        /* \"#utility.yul\":20577:20588   */\n      0x00\n        /* \"#utility.yul\":20614:20617   */\n      dup2\n        /* \"#utility.yul\":20599:20617   */\n      swap1\n      pop\n        /* \"#utility.yul\":20475:20623   */\n      swap3\n      swap2\n      pop\n      pop\n      jump\t// out\n        /* \"#utility.yul\":20629:20934   */\n    tag_276:\n        /* \"#utility.yul\":20669:20672   */\n      0x00\n        /* \"#utility.yul\":20688:20708   */\n      tag_516\n        /* \"#utility.yul\":20706:20707   */\n      dup3\n        /* \"#utility.yul\":20688:20708   */\n      tag_430\n      jump\t// in\n    tag_516:\n        /* \"#utility.yul\":20683:20708   */\n      swap2\n      pop\n        /* \"#utility.yul\":20722:20742   */\n      tag_517\n        /* \"#utility.yul\":20740:20741   */\n      dup4\n        /* \"#utility.yul\":20722:20742   */\n      tag_430\n      jump\t// in\n    tag_517:\n        /* \"#utility.yul\":20717:20742   */\n      swap3\n      pop\n        /* \"#utility.yul\":20876:20877   */\n      dup3\n        /* \"#utility.yul\":20808:20874   */\n      0xffffffffffffffffffffffffffffffffffffffffffffffffffffffffffffffff\n        /* \"#utility.yul\":20804:20878   */\n      sub\n        /* \"#utility.yul\":20801:20802   */\n      dup3\n        /* \"#utility.yul\":20798:20879   */\n      gt\n        /* \"#utility.yul\":20795:20902   */\n      iszero\n      tag_518\n      jumpi\n        /* \"#utility.yul\":20882:20900   */\n      tag_519\n      tag_520\n      jump\t// in\n    tag_519:\n        /* \"#utility.yul\":20795:20902   */\n    tag_518:\n        /* \"#utility.yul\":20926:20927   */\n      dup3\n        /* \"#utility.yul\":20923:20924   */\n      dup3\n        /* \"#utility.yul\":20919:20928   */\n      add\n        /* \"#utility.yul\":20912:20928   */\n      swap1\n      pop\n        /* \"#utility.yul\":20629:20934   */\n      swap3\n      swap2\n      pop\n      pop\n      jump\t// out\n        /* \"#utility.yul\":20940:21036   */\n    tag_325:\n        /* \"#utility.yul\":20977:20984   */\n      0x00\n        /* \"#utility.yul\":21006:21030   */\n      tag_522\n        /* \"#utility.yul\":21024:21029   */\n      dup3\n        /* \"#utility.yul\":21006:21030   */\n      tag_523\n      jump\t// in\n    tag_522:\n        /* \"#utility.yul\":20995:21030   */\n      swap1\n      pop\n        /* \"#utility.yul\":20940:21036   */\n      swap2\n      swap1\n      pop\n      jump\t// out\n        /* \"#utility.yul\":21042:21146   */\n    tag_524:\n        /* \"#utility.yul\":21087:21094   */\n      0x00\n        /* \"#utility.yul\":21116:21140   */\n      tag_526\n        /* \"#utility.yul\":21134:21139   */\n      dup3\n        /* \"#utility.yul\":21116:21140   */\n      tag_523\n      jump\t// in\n    tag_526:\n        /* \"#utility.yul\":21105:21140   */\n      swap1\n      pop\n        /* \"#utility.yul\":21042:21146   */\n      swap2\n      swap1\n      pop\n      jump\t// out\n        /* \"#utility.yul\":21152:21242   */\n    tag_334:\n        /* \"#utility.yul\":21186:21193   */\n      0x00\n        /* \"#utility.yul\":21229:21234   */\n      dup2\n        /* \"#utility.yul\":21222:21235   */\n      iszero\n        /* \"#utility.yul\":21215:21236   */\n      iszero\n        /* \"#utility.yul\":21204:21236   */\n      swap1\n      pop\n        /* \"#utility.yul\":21152:21242   */\n      swap2\n      swap1\n      pop\n      jump\t// out\n        /* \"#utility.yul\":21248:21325   */\n    tag_338:\n        /* \"#utility.yul\":21285:21292   */\n      0x00\n        /* \"#utility.yul\":21314:21319   */\n      dup2\n        /* \"#utility.yul\":21303:21319   */\n      swap1\n      pop\n        /* \"#utility.yul\":21248:21325   */\n      swap2\n      swap1\n      pop\n      jump\t// out\n        /* \"#utility.yul\":21331:21457   */\n    tag_523:\n        /* \"#utility.yul\":21368:21375   */\n      0x00\n        /* \"#utility.yul\":21408:21450   */\n      0xffffffffffffffffffffffffffffffffffffffff\n        /* \"#utility.yul\":21401:21406   */\n      dup3\n        /* \"#utility.yul\":21397:21451   */\n      and\n        /* \"#utility.yul\":21386:21451   */\n      swap1\n      pop\n        /* \"#utility.yul\":21331:21457   */\n      swap2\n      swap1\n      pop\n      jump\t// out\n        /* \"#utility.yul\":21463:21540   */\n    tag_430:\n        /* \"#utility.yul\":21500:21507   */\n      0x00\n        /* \"#utility.yul\":21529:21534   */\n      dup2\n        /* \"#utility.yul\":21518:21534   */\n      swap1\n      pop\n        /* \"#utility.yul\":21463:21540   */\n      swap2\n      swap1\n      pop\n      jump\t// out\n        /* \"#utility.yul\":21546:21632   */\n    tag_434:\n        /* \"#utility.yul\":21581:21588   */\n      0x00\n        /* \"#utility.yul\":21621:21625   */\n      0xff\n        /* \"#utility.yul\":21614:21619   */\n      dup3\n        /* \"#utility.yul\":21610:21626   */\n      and\n        /* \"#utility.yul\":21599:21626   */\n      swap1\n      pop\n        /* \"#utility.yul\":21546:21632   */\n      swap2\n      swap1\n      pop\n      jump\t// out\n        /* \"#utility.yul\":21638:21792   */\n    tag_349:\n        /* \"#utility.yul\":21722:21728   */\n      dup3\n        /* \"#utility.yul\":21717:21720   */\n      dup2\n        /* \"#utility.yul\":21712:21715   */\n      dup4\n        /* \"#utility.yul\":21699:21729   */\n      calldatacopy\n        /* \"#utility.yul\":21784:21785   */\n      0x00\n        /* \"#utility.yul\":21775:21781   */\n      dup4\n        /* \"#utility.yul\":21770:21773   */\n      dup4\n        /* \"#utility.yul\":21766:21782   */\n      add\n        /* \"#utility.yul\":21759:21786   */\n      mstore\n        /* \"#utility.yul\":21638:21792   */\n      pop\n      pop\n      pop\n      jump\t// out\n        /* \"#utility.yul\":21798:22105   */\n    tag_357:\n        /* \"#utility.yul\":21866:21867   */\n      0x00\n        /* \"#utility.yul\":21876:21989   */\n    tag_534:\n        /* \"#utility.yul\":21890:21896   */\n      dup4\n        /* \"#utility.yul\":21887:21888   */\n      dup2\n        /* \"#utility.yul\":21884:21897   */\n      lt\n        /* \"#utility.yul\":21876:21989   */\n      iszero\n      tag_536\n      jumpi\n        /* \"#utility.yul\":21975:21976   */\n      dup1\n        /* \"#utility.yul\":21970:21973   */\n      dup3\n        /* \"#utility.yul\":21966:21977   */\n      add\n        /* \"#utility.yul\":21960:21978   */\n      mload\n        /* \"#utility.yul\":21956:21957   */\n      dup2\n        /* \"#utility.yul\":21951:21954   */\n      dup5\n        /* \"#utility.yul\":21947:21958   */\n      add\n        /* \"#utility.yul\":21940:21979   */\n      mstore\n        /* \"#utility.yul\":21912:21914   */\n      0x20\n        /* \"#utility.yul\":21909:21910   */\n      dup2\n        /* \"#utility.yul\":21905:21915   */\n      add\n        /* \"#utility.yul\":21900:21915   */\n      swap1\n      pop\n        /* \"#utility.yul\":21876:21989   */\n      jump(tag_534)\n    tag_536:\n        /* \"#utility.yul\":22007:22013   */\n      dup4\n        /* \"#utility.yul\":22004:22005   */\n      dup2\n        /* \"#utility.yul\":22001:22014   */\n      gt\n        /* \"#utility.yul\":21998:22099   */\n      iszero\n      tag_537\n      jumpi\n        /* \"#utility.yul\":22087:22088   */\n      0x00\n        /* \"#utility.yul\":22078:22084   */\n      dup5\n        /* \"#utility.yul\":22073:22076   */\n      dup5\n        /* \"#utility.yul\":22069:22085   */\n      add\n        /* \"#utility.yul\":22062:22089   */\n      mstore\n        /* \"#utility.yul\":21998:22099   */\n    tag_537:\n        /* \"#utility.yul\":21847:22105   */\n      pop\n        /* \"#utility.yul\":21798:22105   */\n      pop\n      pop\n      pop\n      jump\t// out\n        /* \"#utility.yul\":22111:22211   */\n    tag_330:\n        /* \"#utility.yul\":22150:22157   */\n      0x00\n        /* \"#utility.yul\":22179:22205   */\n      tag_539\n        /* \"#utility.yul\":22199:22204   */\n      dup3\n        /* \"#utility.yul\":22179:22205   */\n      tag_540\n      jump\t// in\n    tag_539:\n        /* \"#utility.yul\":22168:22205   */\n      swap1\n      pop\n        /* \"#utility.yul\":22111:22211   */\n      swap2\n      swap1\n      pop\n      jump\t// out\n        /* \"#utility.yul\":22217:22296   */\n    tag_343:\n        /* \"#utility.yul\":22256:22263   */\n      0x00\n        /* \"#utility.yul\":22285:22290   */\n      dup2\n        /* \"#utility.yul\":22274:22290   */\n      swap1\n      pop\n        /* \"#utility.yul\":22217:22296   */\n      swap2\n      swap1\n      pop\n      jump\t// out\n        /* \"#utility.yul\":22302:22396   */\n    tag_540:\n        /* \"#utility.yul\":22341:22348   */\n      0x00\n        /* \"#utility.yul\":22370:22390   */\n      tag_543\n        /* \"#utility.yul\":22384:22389   */\n      dup3\n        /* \"#utility.yul\":22370:22390   */\n      tag_544\n      jump\t// in\n    tag_543:\n        /* \"#utility.yul\":22359:22390   */\n      swap1\n      pop\n        /* \"#utility.yul\":22302:22396   */\n      swap2\n      swap1\n      pop\n      jump\t// out\n        /* \"#utility.yul\":22402:22582   */\n    tag_520:\n        /* \"#utility.yul\":22450:22527   */\n      0x4e487b7100000000000000000000000000000000000000000000000000000000\n        /* \"#utility.yul\":22447:22448   */\n      0x00\n        /* \"#utility.yul\":22440:22528   */\n      mstore\n        /* \"#utility.yul\":22547:22551   */\n      0x11\n        /* \"#utility.yul\":22544:22545   */\n      0x04\n        /* \"#utility.yul\":22537:22552   */\n      mstore\n        /* \"#utility.yul\":22571:22575   */\n      0x24\n        /* \"#utility.yul\":22568:22569   */\n      0x00\n        /* \"#utility.yul\":22561:22576   */\n      revert\n        /* \"#utility.yul\":22588:22768   */\n    tag_229:\n        /* \"#utility.yul\":22636:22713   */\n      0x4e487b7100000000000000000000000000000000000000000000000000000000\n        /* \"#utility.yul\":22633:22634   */\n      0x00\n        /* \"#utility.yul\":22626:22714   */\n      mstore\n        /* \"#utility.yul\":22733:22737   */\n      0x21\n        /* \"#utility.yul\":22730:22731   */\n      0x04\n        /* \"#utility.yul\":22723:22738   */\n      mstore\n        /* \"#utility.yul\":22757:22761   */\n      0x24\n        /* \"#utility.yul\":22754:22755   */\n      0x00\n        /* \"#utility.yul\":22747:22762   */\n      revert\n        /* \"#utility.yul\":22774:22891   */\n    tag_294:\n        /* \"#utility.yul\":22883:22884   */\n      0x00\n        /* \"#utility.yul\":22880:22881   */\n      dup1\n        /* \"#utility.yul\":22873:22885   */\n      revert\n        /* \"#utility.yul\":22897:23014   */\n    tag_291:\n        /* \"#utility.yul\":23006:23007   */\n      0x00\n        /* \"#utility.yul\":23003:23004   */\n      dup1\n        /* \"#utility.yul\":22996:23008   */\n      revert\n        /* \"#utility.yul\":23020:23137   */\n    tag_504:\n        /* \"#utility.yul\":23129:23130   */\n      0x00\n        /* \"#utility.yul\":23126:23127   */\n      dup1\n        /* \"#utility.yul\":23119:23131   */\n      revert\n        /* \"#utility.yul\":23143:23260   */\n    tag_302:\n        /* \"#utility.yul\":23252:23253   */\n      0x00\n        /* \"#utility.yul\":23249:23250   */\n      dup1\n        /* \"#utility.yul\":23242:23254   */\n      revert\n        /* \"#utility.yul\":23266:23383   */\n    tag_501:\n        /* \"#utility.yul\":23375:23376   */\n      0x00\n        /* \"#utility.yul\":23372:23373   */\n      dup1\n        /* \"#utility.yul\":23365:23377   */\n      revert\n        /* \"#utility.yul\":23389:23506   */\n    tag_297:\n        /* \"#utility.yul\":23498:23499   */\n      0x00\n        /* \"#utility.yul\":23495:23496   */\n      dup1\n        /* \"#utility.yul\":23488:23500   */\n      revert\n        /* \"#utility.yul\":23512:23629   */\n    tag_507:\n        /* \"#utility.yul\":23621:23622   */\n      0x00\n        /* \"#utility.yul\":23618:23619   */\n      dup1\n        /* \"#utility.yul\":23611:23623   */\n      revert\n        /* \"#utility.yul\":23635:23752   */\n    tag_317:\n        /* \"#utility.yul\":23744:23745   */\n      0x00\n        /* \"#utility.yul\":23741:23742   */\n      dup1\n        /* \"#utility.yul\":23734:23746   */\n      revert\n        /* \"#utility.yul\":23758:23875   */\n    tag_306:\n        /* \"#utility.yul\":23867:23868   */\n      0x00\n        /* \"#utility.yul\":23864:23865   */\n      dup1\n        /* \"#utility.yul\":23857:23869   */\n      revert\n        /* \"#utility.yul\":23881:23983   */\n    tag_359:\n        /* \"#utility.yul\":23922:23928   */\n      0x00\n        /* \"#utility.yul\":23973:23975   */\n      0x1f\n        /* \"#utility.yul\":23969:23976   */\n      not\n        /* \"#utility.yul\":23964:23966   */\n      0x1f\n        /* \"#utility.yul\":23957:23962   */\n      dup4\n        /* \"#utility.yul\":23953:23967   */\n      add\n        /* \"#utility.yul\":23949:23977   */\n      and\n        /* \"#utility.yul\":23939:23977   */\n      swap1\n      pop\n        /* \"#utility.yul\":23881:23983   */\n      swap2\n      swap1\n      pop\n      jump\t// out\n        /* \"#utility.yul\":23989:24083   */\n    tag_544:\n        /* \"#utility.yul\":24022:24030   */\n      0x00\n        /* \"#utility.yul\":24070:24075   */\n      dup2\n        /* \"#utility.yul\":24066:24068   */\n      0x60\n        /* \"#utility.yul\":24062:24076   */\n      shl\n        /* \"#utility.yul\":24041:24076   */\n      swap1\n      pop\n        /* \"#utility.yul\":23989:24083   */\n      swap2\n      swap1\n      pop\n      jump\t// out\n        /* \"#utility.yul\":24089:24263   */\n    tag_370:\n        /* \"#utility.yul\":24229:24255   */\n      0x45434453413a20696e76616c6964207369676e61747572650000000000000000\n        /* \"#utility.yul\":24225:24226   */\n      0x00\n        /* \"#utility.yul\":24217:24223   */\n      dup3\n        /* \"#utility.yul\":24213:24227   */\n      add\n        /* \"#utility.yul\":24206:24256   */\n      mstore\n        /* \"#utility.yul\":24089:24263   */\n      pop\n      jump\t// out\n        /* \"#utility.yul\":24269:24439   */\n    tag_375:\n        /* \"#utility.yul\":24409:24431   */\n      0x5061757361626c653a206e6f7420706175736564000000000000000000000000\n        /* \"#utility.yul\":24405:24406   */\n      0x00\n        /* \"#utility.yul\":24397:24403   */\n      dup3\n        /* \"#utility.yul\":24393:24407   */\n      add\n        /* \"#utility.yul\":24386:24432   */\n      mstore\n        /* \"#utility.yul\":24269:24439   */\n      pop\n      jump\t// out\n        /* \"#utility.yul\":24445:24626   */\n    tag_380:\n        /* \"#utility.yul\":24585:24618   */\n      0x45434453413a20696e76616c6964207369676e6174757265206c656e67746800\n        /* \"#utility.yul\":24581:24582   */\n      0x00\n        /* \"#utility.yul\":24573:24579   */\n      dup3\n        /* \"#utility.yul\":24569:24583   */\n      add\n        /* \"#utility.yul\":24562:24619   */\n      mstore\n        /* \"#utility.yul\":24445:24626   */\n      pop\n      jump\t// out\n        /* \"#utility.yul\":24632:24857   */\n    tag_385:\n        /* \"#utility.yul\":24772:24806   */\n      0x4f776e61626c653a206e6577206f776e657220697320746865207a65726f2061\n        /* \"#utility.yul\":24768:24769   */\n      0x00\n        /* \"#utility.yul\":24760:24766   */\n      dup3\n        /* \"#utility.yul\":24756:24770   */\n      add\n        /* \"#utility.yul\":24749:24807   */\n      mstore\n        /* \"#utility.yul\":24841:24849   */\n      0x6464726573730000000000000000000000000000000000000000000000000000\n        /* \"#utility.yul\":24836:24838   */\n      0x20\n        /* \"#utility.yul\":24828:24834   */\n      dup3\n        /* \"#utility.yul\":24824:24839   */\n      add\n        /* \"#utility.yul\":24817:24850   */\n      mstore\n        /* \"#utility.yul\":24632:24857   */\n      pop\n      jump\t// out\n        /* \"#utility.yul\":24863:25077   */\n    tag_391:\n        /* \"#utility.yul\":25003:25069   */\n      0x1901000000000000000000000000000000000000000000000000000000000000\n        /* \"#utility.yul\":24999:25000   */\n      0x00\n        /* \"#utility.yul\":24991:24997   */\n      dup3\n        /* \"#utility.yul\":24987:25001   */\n      add\n        /* \"#utility.yul\":24980:25070   */\n      mstore\n        /* \"#utility.yul\":24863:25077   */\n      pop\n      jump\t// out\n        /* \"#utility.yul\":25083:25329   */\n    tag_396:\n        /* \"#utility.yul\":25223:25257   */\n      0x41776c466f727761726465723a2073656e646572206f66206d6574612d747261\n        /* \"#utility.yul\":25219:25220   */\n      0x00\n        /* \"#utility.yul\":25211:25217   */\n      dup3\n        /* \"#utility.yul\":25207:25221   */\n      add\n        /* \"#utility.yul\":25200:25258   */\n      mstore\n        /* \"#utility.yul\":25292:25321   */\n      0x6e73616374696f6e206973206e6f742077686974656c69737465640000000000\n        /* \"#utility.yul\":25287:25289   */\n      0x20\n        /* \"#utility.yul\":25279:25285   */\n      dup3\n        /* \"#utility.yul\":25275:25290   */\n      add\n        /* \"#utility.yul\":25268:25322   */\n      mstore\n        /* \"#utility.yul\":25083:25329   */\n      pop\n      jump\t// out\n        /* \"#utility.yul\":25335:25556   */\n    tag_401:\n        /* \"#utility.yul\":25475:25509   */\n      0x45434453413a20696e76616c6964207369676e6174757265202773272076616c\n        /* \"#utility.yul\":25471:25472   */\n      0x00\n        /* \"#utility.yul\":25463:25469   */\n      dup3\n        /* \"#utility.yul\":25459:25473   */\n      add\n        /* \"#utility.yul\":25452:25510   */\n      mstore\n        /* \"#utility.yul\":25544:25548   */\n      0x7565000000000000000000000000000000000000000000000000000000000000\n        /* \"#utility.yul\":25539:25541   */\n      0x20\n        /* \"#utility.yul\":25531:25537   */\n      dup3\n        /* \"#utility.yul\":25527:25542   */\n      add\n        /* \"#utility.yul\":25520:25549   */\n      mstore\n        /* \"#utility.yul\":25335:25556   */\n      pop\n      jump\t// out\n        /* \"#utility.yul\":25562:25795   */\n    tag_406:\n        /* \"#utility.yul\":25702:25736   */\n      0x41776c466f727761726465723a207369676e617475726520646f6573206e6f74\n        /* \"#utility.yul\":25698:25699   */\n      0x00\n        /* \"#utility.yul\":25690:25696   */\n      dup3\n        /* \"#utility.yul\":25686:25700   */\n      add\n        /* \"#utility.yul\":25679:25737   */\n      mstore\n        /* \"#utility.yul\":25771:25787   */\n      0x206d617463682072657175657374000000000000000000000000000000000000\n        /* \"#utility.yul\":25766:25768   */\n      0x20\n        /* \"#utility.yul\":25758:25764   */\n      dup3\n        /* \"#utility.yul\":25754:25769   */\n      add\n        /* \"#utility.yul\":25747:25788   */\n      mstore\n        /* \"#utility.yul\":25562:25795   */\n      pop\n      jump\t// out\n        /* \"#utility.yul\":25801:25967   */\n    tag_411:\n        /* \"#utility.yul\":25941:25959   */\n      0x5061757361626c653a2070617573656400000000000000000000000000000000\n        /* \"#utility.yul\":25937:25938   */\n      0x00\n        /* \"#utility.yul\":25929:25935   */\n      dup3\n        /* \"#utility.yul\":25925:25939   */\n      add\n        /* \"#utility.yul\":25918:25960   */\n      mstore\n        /* \"#utility.yul\":25801:25967   */\n      pop\n      jump\t// out\n        /* \"#utility.yul\":25973:26194   */\n    tag_416:\n        /* \"#utility.yul\":26113:26147   */\n      0x45434453413a20696e76616c6964207369676e6174757265202776272076616c\n        /* \"#utility.yul\":26109:26110   */\n      0x00\n        /* \"#utility.yul\":26101:26107   */\n      dup3\n        /* \"#utility.yul\":26097:26111   */\n      add\n        /* \"#utility.yul\":26090:26148   */\n      mstore\n        /* \"#utility.yul\":26182:26186   */\n      0x7565000000000000000000000000000000000000000000000000000000000000\n        /* \"#utility.yul\":26177:26179   */\n      0x20\n        /* \"#utility.yul\":26169:26175   */\n      dup3\n        /* \"#utility.yul\":26165:26180   */\n      add\n        /* \"#utility.yul\":26158:26187   */\n      mstore\n        /* \"#utility.yul\":25973:26194   */\n      pop\n      jump\t// out\n        /* \"#utility.yul\":26200:26438   */\n    tag_421:\n        /* \"#utility.yul\":26340:26374   */\n      0x41776c466f727761726465723a2073656e646572206164647265737320697320\n        /* \"#utility.yul\":26336:26337   */\n      0x00\n        /* \"#utility.yul\":26328:26334   */\n      dup3\n        /* \"#utility.yul\":26324:26338   */\n      add\n        /* \"#utility.yul\":26317:26375   */\n      mstore\n        /* \"#utility.yul\":26409:26430   */\n      0x616c72656164792077686974656c697374656400000000000000000000000000\n        /* \"#utility.yul\":26404:26406   */\n      0x20\n        /* \"#utility.yul\":26396:26402   */\n      dup3\n        /* \"#utility.yul\":26392:26407   */\n      add\n        /* \"#utility.yul\":26385:26431   */\n      mstore\n        /* \"#utility.yul\":26200:26438   */\n      pop\n      jump\t// out\n        /* \"#utility.yul\":26444:26626   */\n    tag_426:\n        /* \"#utility.yul\":26584:26618   */\n      0x4f776e61626c653a2063616c6c6572206973206e6f7420746865206f776e6572\n        /* \"#utility.yul\":26580:26581   */\n      0x00\n        /* \"#utility.yul\":26572:26578   */\n      dup3\n        /* \"#utility.yul\":26568:26582   */\n      add\n        /* \"#utility.yul\":26561:26619   */\n      mstore\n        /* \"#utility.yul\":26444:26626   */\n      pop\n      jump\t// out\n        /* \"#utility.yul\":26632:26754   */\n    tag_282:\n        /* \"#utility.yul\":26705:26729   */\n      tag_571\n        /* \"#utility.yul\":26723:26728   */\n      dup2\n        /* \"#utility.yul\":26705:26729   */\n      tag_325\n      jump\t// in\n    tag_571:\n        /* \"#utility.yul\":26698:26703   */\n      dup2\n        /* \"#utility.yul\":26695:26730   */\n      eq\n        /* \"#utility.yul\":26685:26748   */\n      tag_572\n      jumpi\n        /* \"#utility.yul\":26744:26745   */\n      0x00\n        /* \"#utility.yul\":26741:26742   */\n      dup1\n        /* \"#utility.yul\":26734:26746   */\n      revert\n        /* \"#utility.yul\":26685:26748   */\n    tag_572:\n        /* \"#utility.yul\":26632:26754   */\n      pop\n      jump\t// out\n        /* \"#utility.yul\":26760:26898   */\n    tag_286:\n        /* \"#utility.yul\":26841:26873   */\n      tag_574\n        /* \"#utility.yul\":26867:26872   */\n      dup2\n        /* \"#utility.yul\":26841:26873   */\n      tag_524\n      jump\t// in\n    tag_574:\n        /* \"#utility.yul\":26834:26839   */\n      dup2\n        /* \"#utility.yul\":26831:26874   */\n      eq\n        /* \"#utility.yul\":26821:26892   */\n      tag_575\n      jumpi\n        /* \"#utility.yul\":26888:26889   */\n      0x00\n        /* \"#utility.yul\":26885:26886   */\n      dup1\n        /* \"#utility.yul\":26878:26890   */\n      revert\n        /* \"#utility.yul\":26821:26892   */\n    tag_575:\n        /* \"#utility.yul\":26760:26898   */\n      pop\n      jump\t// out\n\n    auxdata: 0xa26469706673582212204830d694849b2df2f06669731c9db890b506af5ac10146269d9d659a4824e35164736f6c63430008070033\n}\n",
				"bytecode": {
					"linkReferences": {},
					"object": "6101406040523480156200001257600080fd5b50604051620028c7380380620028c78339818101604052810190620000389190620004e0565b81816200005a6200004e6200014860201b60201c565b6200015060201b60201c565b60008060146101000a81548160ff02191690831515021790555060008280519060200120905060008280519060200120905060007f8b73c3c69bb8fe3d512ecc4cf759cc79239f7b179b0ffacaa9a75d522b39400f90508260e081815250508161010081815250504660a08181525050620000dd8184846200021460201b60201c565b608081815250503073ffffffffffffffffffffffffffffffffffffffff1660c08173ffffffffffffffffffffffffffffffffffffffff1660601b81525050806101208181525050505050505060003390506200013f816200025060201b60201c565b50505062000877565b600033905090565b60008060009054906101000a900473ffffffffffffffffffffffffffffffffffffffff169050816000806101000a81548173ffffffffffffffffffffffffffffffffffffffff021916908373ffffffffffffffffffffffffffffffffffffffff1602179055508173ffffffffffffffffffffffffffffffffffffffff168173ffffffffffffffffffffffffffffffffffffffff167f8be0079c531659141344cd1fd0a4f28419497f9722a3daafe3b4186f6b6457e060405160405180910390a35050565b6000838383463060405160200162000231959493929190620005e6565b6040516020818303038152906040528051906020012090509392505050565b620002606200035260201b60201c565b6200027181620003e360201b60201c565b15620002b4576040517f08c379a0000000000000000000000000000000000000000000000000000000008152600401620002ab9062000643565b60405180910390fd5b6001600260008373ffffffffffffffffffffffffffffffffffffffff1673ffffffffffffffffffffffffffffffffffffffff16815260200190815260200160002060006101000a81548160ff0219169083151502179055508073ffffffffffffffffffffffffffffffffffffffff167f4f783c179409b4127238bc9c990bc99b9a651666a0d20b51d6c42849eb88466d60405160405180910390a250565b620003626200014860201b60201c565b73ffffffffffffffffffffffffffffffffffffffff16620003886200043960201b60201c565b73ffffffffffffffffffffffffffffffffffffffff1614620003e1576040517f08c379a0000000000000000000000000000000000000000000000000000000008152600401620003d89062000665565b60405180910390fd5b565b6000600260008373ffffffffffffffffffffffffffffffffffffffff1673ffffffffffffffffffffffffffffffffffffffff16815260200190815260200160002060009054906101000a900460ff169050919050565b60008060009054906101000a900473ffffffffffffffffffffffffffffffffffffffff16905090565b6000620004796200047384620006b0565b62000687565b905082815260208101848484011115620004985762000497620007df565b5b620004a58482856200073f565b509392505050565b600082601f830112620004c557620004c4620007da565b5b8151620004d784826020860162000462565b91505092915050565b60008060408385031215620004fa57620004f9620007e9565b5b600083015167ffffffffffffffff8111156200051b576200051a620007e4565b5b6200052985828601620004ad565b925050602083015167ffffffffffffffff8111156200054d576200054c620007e4565b5b6200055b85828601620004ad565b9150509250929050565b6200057081620006f7565b82525050565b62000581816200070b565b82525050565b600062000596603383620006e6565b9150620005a382620007ff565b604082019050919050565b6000620005bd602083620006e6565b9150620005ca826200084e565b602082019050919050565b620005e08162000735565b82525050565b600060a082019050620005fd600083018862000576565b6200060c602083018762000576565b6200061b604083018662000576565b6200062a6060830185620005d5565b62000639608083018462000565565b9695505050505050565b600060208201905081810360008301526200065e8162000587565b9050919050565b600060208201905081810360008301526200068081620005ae565b9050919050565b600062000693620006a6565b9050620006a1828262000775565b919050565b6000604051905090565b600067ffffffffffffffff821115620006ce57620006cd620007ab565b5b620006d982620007ee565b9050602081019050919050565b600082825260208201905092915050565b6000620007048262000715565b9050919050565b6000819050919050565b600073ffffffffffffffffffffffffffffffffffffffff82169050919050565b6000819050919050565b60005b838110156200075f57808201518184015260208101905062000742565b838111156200076f576000848401525b50505050565b6200078082620007ee565b810181811067ffffffffffffffff82111715620007a257620007a1620007ab565b5b80604052505050565b7f4e487b7100000000000000000000000000000000000000000000000000000000600052604160045260246000fd5b600080fd5b600080fd5b600080fd5b600080fd5b6000601f19601f8301169050919050565b7f41776c466f727761726465723a2073656e64657220616464726573732069732060008201527f616c72656164792077686974656c697374656400000000000000000000000000602082015250565b7f4f776e61626c653a2063616c6c6572206973206e6f7420746865206f776e6572600082015250565b60805160a05160c05160601c60e0516101005161012051611ffd620008ca6000396000610b8c01526000610bce01526000610bad01526000610ae201526000610b3801526000610b610152611ffd6000f3fe6080604052600436106100dd5760003560e01c806347153f821161007f5780638456cb59116100595780638456cb591461028c5780638da5cb5b146102a3578063bf5d3bdb146102ce578063f2fde38b1461030b576100dd565b806347153f82146102195780635c975abb1461024a578063715018a614610275576100dd565b80633644e515116100bb5780633644e515146101715780633af32abf1461019c5780633f113a61146101d95780633f4ba83a14610202576100dd565b806301a9a352146100e25780632978cb401461010b5780632d0335ab14610134575b600080fd5b3480156100ee57600080fd5b506101096004803603810190610104919061132d565b610334565b005b34801561011757600080fd5b50610132600480360381019061012d919061135a565b6103da565b005b34801561014057600080fd5b5061015b6004803603810190610156919061132d565b610442565b6040516101689190611a28565b60405180910390f35b34801561017d57600080fd5b5061018661048b565b60405161019391906117a6565b60405180910390f35b3480156101a857600080fd5b506101c360048036038101906101be919061132d565b61049a565b6040516101d0919061175b565b60405180910390f35b3480156101e557600080fd5b5061020060048036038101906101fb919061132d565b6104f0565b005b34801561020e57600080fd5b506102176105df565b005b610233600480360381019061022e9190611387565b6105f1565b604051610241929190611776565b60405180910390f35b34801561025657600080fd5b5061025f6107c1565b60405161026c919061175b565b60405180910390f35b34801561028157600080fd5b5061028a6107d7565b005b34801561029857600080fd5b506102a16107eb565b005b3480156102af57600080fd5b506102b86107fd565b6040516102c59190611740565b60405180910390f35b3480156102da57600080fd5b506102f560048036038101906102f09190611387565b610826565b604051610302919061175b565b60405180910390f35b34801561031757600080fd5b50610332600480360381019061032d919061132d565b6109dc565b005b61033c610a60565b6000600260008373ffffffffffffffffffffffffffffffffffffffff1673ffffffffffffffffffffffffffffffffffffffff16815260200190815260200160002060006101000a81548160ff0219169083151502179055508073ffffffffffffffffffffffffffffffffffffffff167f535611fb62fa2a833988f283b779e417e996813e44046f521d76c17b5943b08c60405160405180910390a250565b6103e2610a60565b8073ffffffffffffffffffffffffffffffffffffffff166108fc479081150290604051600060405180830381858888f19350505050158015610428573d6000803e3d6000fd5b508073ffffffffffffffffffffffffffffffffffffffff16ff5b6000600160008373ffffffffffffffffffffffffffffffffffffffff1673ffffffffffffffffffffffffffffffffffffffff168152602001908152602001600020549050919050565b6000610495610ade565b905090565b6000600260008373ffffffffffffffffffffffffffffffffffffffff1673ffffffffffffffffffffffffffffffffffffffff16815260200190815260200160002060009054906101000a900460ff169050919050565b6104f8610a60565b6105018161049a565b15610541576040517f08c379a0000000000000000000000000000000000000000000000000000000008152600401610538906119e8565b60405180910390fd5b6001600260008373ffffffffffffffffffffffffffffffffffffffff1673ffffffffffffffffffffffffffffffffffffffff16815260200190815260200160002060006101000a81548160ff0219169083151502179055508073ffffffffffffffffffffffffffffffffffffffff167f4f783c179409b4127238bc9c990bc99b9a651666a0d20b51d6c42849eb88466d60405160405180910390a250565b6105e7610a60565b6105ef610bf8565b565b600060606105fd610c5a565b600260003373ffffffffffffffffffffffffffffffffffffffff1673ffffffffffffffffffffffffffffffffffffffff16815260200190815260200160002060009054906101000a900460ff16610689576040517f08c379a000000000000000000000000000000000000000000000000000000000815260040161068090611948565b60405180910390fd5b610694858585610826565b6106d3576040517f08c379a00000000000000000000000000000000000000000000000000000000081526004016106ca90611988565b60405180910390fd5b6000808660200160208101906106e9919061132d565b73ffffffffffffffffffffffffffffffffffffffff1687606001358860400135898060a001906107199190611a43565b8b600001602081019061072c919061132d565b60405160200161073e939291906116c8565b60405160208183030381529060405260405161075a91906116f2565b600060405180830381858888f193505050503d8060008114610798576040519150601f19603f3d011682016040523d82523d6000602084013e61079d565b606091505b5091509150816107b1573d6000803e3d6000fd5b8181935093505050935093915050565b60008060149054906101000a900460ff16905090565b6107df610a60565b6107e96000610ca4565b565b6107f3610a60565b6107fb610d68565b565b60008060009054906101000a900473ffffffffffffffffffffffffffffffffffffffff16905090565b60008061092f84848080601f016020809104026020016040519081016040528093929190818152602001838380828437600081840152601f19601f820116905080830192505050505050506109217fdd8f4b70b0f4393e889bd39128a30628a78b61816a9eb8199759e7a349657e488860000160208101906108a8919061132d565b8960200160208101906108bb919061132d565b8a604001358b606001358c608001358d8060a001906108da9190611a43565b6040516108e89291906116af565b604051809103902060405160200161090697969594939291906117c1565b60405160208183030381529060405280519060200120610dcb565b610de590919063ffffffff16565b905084608001356001600087600001602081019061094d919061132d565b73ffffffffffffffffffffffffffffffffffffffff1673ffffffffffffffffffffffffffffffffffffffff168152602001908152602001600020541480156109d257508460000160208101906109a3919061132d565b73ffffffffffffffffffffffffffffffffffffffff168173ffffffffffffffffffffffffffffffffffffffff16145b9150509392505050565b6109e4610a60565b600073ffffffffffffffffffffffffffffffffffffffff168173ffffffffffffffffffffffffffffffffffffffff161415610a54576040517f08c379a0000000000000000000000000000000000000000000000000000000008152600401610a4b90611928565b60405180910390fd5b610a5d81610ca4565b50565b610a68610e0c565b73ffffffffffffffffffffffffffffffffffffffff16610a866107fd565b73ffffffffffffffffffffffffffffffffffffffff1614610adc576040517f08c379a0000000000000000000000000000000000000000000000000000000008152600401610ad390611a08565b60405180910390fd5b565b60007f000000000000000000000000000000000000000000000000000000000000000073ffffffffffffffffffffffffffffffffffffffff163073ffffffffffffffffffffffffffffffffffffffff16148015610b5a57507f000000000000000000000000000000000000000000000000000000000000000046145b15610b87577f00000000000000000000000000000000000000000000000000000000000000009050610bf5565b610bf27f00000000000000000000000000000000000000000000000000000000000000007f00000000000000000000000000000000000000000000000000000000000000007f0000000000000000000000000000000000000000000000000000000000000000610e14565b90505b90565b610c00610e4e565b60008060146101000a81548160ff0219169083151502179055507f5db9ee0a495bf2e6ff9c91a7834c1ba4fdd244a5e8aa4e537bd38aeae4b073aa610c43610e0c565b604051610c509190611740565b60405180910390a1565b610c626107c1565b15610ca2576040517f08c379a0000000000000000000000000000000000000000000000000000000008152600401610c99906119a8565b60405180910390fd5b565b60008060009054906101000a900473ffffffffffffffffffffffffffffffffffffffff169050816000806101000a81548173ffffffffffffffffffffffffffffffffffffffff021916908373ffffffffffffffffffffffffffffffffffffffff1602179055508173ffffffffffffffffffffffffffffffffffffffff168173ffffffffffffffffffffffffffffffffffffffff167f8be0079c531659141344cd1fd0a4f28419497f9722a3daafe3b4186f6b6457e060405160405180910390a35050565b610d70610c5a565b6001600060146101000a81548160ff0219169083151502179055507f62e78cea01bee320cd4e420270b5ea74000d11b0c9f74754ebdbfc544b05a258610db4610e0c565b604051610dc19190611740565b60405180910390a1565b6000610dde610dd8610ade565b83610e97565b9050919050565b6000806000610df48585610eca565b91509150610e0181610f4d565b819250505092915050565b600033905090565b60008383834630604051602001610e2f959493929190611830565b6040516020818303038152906040528051906020012090509392505050565b610e566107c1565b610e95576040517f08c379a0000000000000000000000000000000000000000000000000000000008152600401610e8c906118e8565b60405180910390fd5b565b60008282604051602001610eac929190611709565b60405160208183030381529060405280519060200120905092915050565b600080604183511415610f0c5760008060006020860151925060408601519150606086015160001a9050610f0087828585611122565b94509450505050610f46565b604083511415610f3d576000806020850151915060408501519050610f3286838361122f565b935093505050610f46565b60006002915091505b9250929050565b60006004811115610f6157610f60611c4f565b5b816004811115610f7457610f73611c4f565b5b1415610f7f5761111f565b60016004811115610f9357610f92611c4f565b5b816004811115610fa657610fa5611c4f565b5b1415610fe7576040517f08c379a0000000000000000000000000000000000000000000000000000000008152600401610fde906118c8565b60405180910390fd5b60026004811115610ffb57610ffa611c4f565b5b81600481111561100e5761100d611c4f565b5b141561104f576040517f08c379a000000000000000000000000000000000000000000000000000000000815260040161104690611908565b60405180910390fd5b6003600481111561106357611062611c4f565b5b81600481111561107657611075611c4f565b5b14156110b7576040517f08c379a00000000000000000000000000000000000000000000000000000000081526004016110ae90611968565b60405180910390fd5b6004808111156110ca576110c9611c4f565b5b8160048111156110dd576110dc611c4f565b5b141561111e576040517f08c379a0000000000000000000000000000000000000000000000000000000008152600401611115906119c8565b60405180910390fd5b5b50565b6000807f7fffffffffffffffffffffffffffffff5d576e7357a4501ddfe92f46681b20a08360001c111561115d576000600391509150611226565b601b8560ff16141580156111755750601c8560ff1614155b15611187576000600491509150611226565b6000600187878787604051600081526020016040526040516111ac9493929190611883565b6020604051602081039080840390855afa1580156111ce573d6000803e3d6000fd5b505050602060405103519050600073ffffffffffffffffffffffffffffffffffffffff168173ffffffffffffffffffffffffffffffffffffffff16141561121d57600060019250925050611226565b80600092509250505b94509492505050565b60008060007f7fffffffffffffffffffffffffffffffffffffffffffffffffffffffffffffff60001b841690506000601b60ff8660001c901c6112729190611ae9565b905061128087828885611122565b935093505050935093915050565b60008135905061129d81611f99565b92915050565b6000813590506112b281611fb0565b92915050565b60008083601f8401126112ce576112cd611c83565b5b8235905067ffffffffffffffff8111156112eb576112ea611c7e565b5b60208301915083600182028301111561130757611306611c97565b5b9250929050565b600060c0828403121561132457611323611c8d565b5b81905092915050565b60006020828403121561134357611342611ca6565b5b60006113518482850161128e565b91505092915050565b6000602082840312156113705761136f611ca6565b5b600061137e848285016112a3565b91505092915050565b6000806000604084860312156113a05761139f611ca6565b5b600084013567ffffffffffffffff8111156113be576113bd611ca1565b5b6113ca8682870161130e565b935050602084013567ffffffffffffffff8111156113eb576113ea611ca1565b5b6113f7868287016112b8565b92509250509250925092565b61140c81611b3f565b82525050565b61142361141e82611b3f565b611bf2565b82525050565b61143281611b63565b82525050565b61144181611b6f565b82525050565b61145861145382611b6f565b611c04565b82525050565b600061146a8385611ac2565b9350611477838584611bb0565b82840190509392505050565b600061148e82611aa6565b6114988185611ab1565b93506114a8818560208601611bbf565b6114b181611cab565b840191505092915050565b60006114c782611aa6565b6114d18185611ac2565b93506114e1818560208601611bbf565b80840191505092915050565b60006114fa601883611acd565b915061150582611cc9565b602082019050919050565b600061151d601483611acd565b915061152882611cf2565b602082019050919050565b6000611540601f83611acd565b915061154b82611d1b565b602082019050919050565b6000611563602683611acd565b915061156e82611d44565b604082019050919050565b6000611586600283611ade565b915061159182611d93565b600282019050919050565b60006115a9603b83611acd565b91506115b482611dbc565b604082019050919050565b60006115cc602283611acd565b91506115d782611e0b565b604082019050919050565b60006115ef602e83611acd565b91506115fa82611e5a565b604082019050919050565b6000611612601083611acd565b915061161d82611ea9565b602082019050919050565b6000611635602283611acd565b915061164082611ed2565b604082019050919050565b6000611658603383611acd565b915061166382611f21565b604082019050919050565b600061167b602083611acd565b915061168682611f70565b602082019050919050565b61169a81611b99565b82525050565b6116a981611ba3565b82525050565b60006116bc82848661145e565b91508190509392505050565b60006116d582858761145e565b91506116e18284611412565b601482019150819050949350505050565b60006116fe82846114bc565b915081905092915050565b600061171482611579565b91506117208285611447565b6020820191506117308284611447565b6020820191508190509392505050565b60006020820190506117556000830184611403565b92915050565b60006020820190506117706000830184611429565b92915050565b600060408201905061178b6000830185611429565b818103602083015261179d8184611483565b90509392505050565b60006020820190506117bb6000830184611438565b92915050565b600060e0820190506117d6600083018a611438565b6117e36020830189611403565b6117f06040830188611403565b6117fd6060830187611691565b61180a6080830186611691565b61181760a0830185611691565b61182460c0830184611438565b98975050505050505050565b600060a0820190506118456000830188611438565b6118526020830187611438565b61185f6040830186611438565b61186c6060830185611691565b6118796080830184611403565b9695505050505050565b60006080820190506118986000830187611438565b6118a560208301866116a0565b6118b26040830185611438565b6118bf6060830184611438565b95945050505050565b600060208201905081810360008301526118e1816114ed565b9050919050565b6000602082019050818103600083015261190181611510565b9050919050565b6000602082019050818103600083015261192181611533565b9050919050565b6000602082019050818103600083015261194181611556565b9050919050565b600060208201905081810360008301526119618161159c565b9050919050565b60006020820190508181036000830152611981816115bf565b9050919050565b600060208201905081810360008301526119a1816115e2565b9050919050565b600060208201905081810360008301526119c181611605565b9050919050565b600060208201905081810360008301526119e181611628565b9050919050565b60006020820190508181036000830152611a018161164b565b9050919050565b60006020820190508181036000830152611a218161166e565b9050919050565b6000602082019050611a3d6000830184611691565b92915050565b60008083356001602003843603038112611a6057611a5f611c92565b5b80840192508235915067ffffffffffffffff821115611a8257611a81611c88565b5b602083019250600182023603831315611a9e57611a9d611c9c565b5b509250929050565b600081519050919050565b600082825260208201905092915050565b600081905092915050565b600082825260208201905092915050565b600081905092915050565b6000611af482611b99565b9150611aff83611b99565b9250827fffffffffffffffffffffffffffffffffffffffffffffffffffffffffffffffff03821115611b3457611b33611c20565b5b828201905092915050565b6000611b4a82611b79565b9050919050565b6000611b5c82611b79565b9050919050565b60008115159050919050565b6000819050919050565b600073ffffffffffffffffffffffffffffffffffffffff82169050919050565b6000819050919050565b600060ff82169050919050565b82818337600083830152505050565b60005b83811015611bdd578082015181840152602081019050611bc2565b83811115611bec576000848401525b50505050565b6000611bfd82611c0e565b9050919050565b6000819050919050565b6000611c1982611cbc565b9050919050565b7f4e487b7100000000000000000000000000000000000000000000000000000000600052601160045260246000fd5b7f4e487b7100000000000000000000000000000000000000000000000000000000600052602160045260246000fd5b600080fd5b600080fd5b600080fd5b600080fd5b600080fd5b600080fd5b600080fd5b600080fd5b600080fd5b6000601f19601f8301169050919050565b60008160601b9050919050565b7f45434453413a20696e76616c6964207369676e61747572650000000000000000600082015250565b7f5061757361626c653a206e6f7420706175736564000000000000000000000000600082015250565b7f45434453413a20696e76616c6964207369676e6174757265206c656e67746800600082015250565b7f4f776e61626c653a206e6577206f776e657220697320746865207a65726f206160008201527f6464726573730000000000000000000000000000000000000000000000000000602082015250565b7f1901000000000000000000000000000000000000000000000000000000000000600082015250565b7f41776c466f727761726465723a2073656e646572206f66206d6574612d74726160008201527f6e73616374696f6e206973206e6f742077686974656c69737465640000000000602082015250565b7f45434453413a20696e76616c6964207369676e6174757265202773272076616c60008201527f7565000000000000000000000000000000000000000000000000000000000000602082015250565b7f41776c466f727761726465723a207369676e617475726520646f6573206e6f7460008201527f206d617463682072657175657374000000000000000000000000000000000000602082015250565b7f5061757361626c653a2070617573656400000000000000000000000000000000600082015250565b7f45434453413a20696e76616c6964207369676e6174757265202776272076616c60008201527f7565000000000000000000000000000000000000000000000000000000000000602082015250565b7f41776c466f727761726465723a2073656e64657220616464726573732069732060008201527f616c72656164792077686974656c697374656400000000000000000000000000602082015250565b7f4f776e61626c653a2063616c6c6572206973206e6f7420746865206f776e6572600082015250565b611fa281611b3f565b8114611fad57600080fd5b50565b611fb981611b51565b8114611fc457600080fd5b5056fea26469706673582212204830d694849b2df2f06669731c9db890b506af5ac10146269d9d659a4824e35164736f6c63430008070033",
					"opcodes": "PUSH2 0x140 PUSH1 0x40 MSTORE CALLVALUE DUP1 ISZERO PUSH3 0x12 JUMPI PUSH1 0x0 DUP1 REVERT JUMPDEST POP PUSH1 0x40 MLOAD PUSH3 0x28C7 CODESIZE SUB DUP1 PUSH3 0x28C7 DUP4 CODECOPY DUP2 DUP2 ADD PUSH1 0x40 MSTORE DUP2 ADD SWAP1 PUSH3 0x38 SWAP2 SWAP1 PUSH3 0x4E0 JUMP JUMPDEST DUP2 DUP2 PUSH3 0x5A PUSH3 0x4E PUSH3 0x148 PUSH1 0x20 SHL PUSH1 0x20 SHR JUMP JUMPDEST PUSH3 0x150 PUSH1 0x20 SHL PUSH1 0x20 SHR JUMP JUMPDEST PUSH1 0x0 DUP1 PUSH1 0x14 PUSH2 0x100 EXP DUP2 SLOAD DUP2 PUSH1 0xFF MUL NOT AND SWAP1 DUP4 ISZERO ISZERO MUL OR SWAP1 SSTORE POP PUSH1 0x0 DUP3 DUP1 MLOAD SWAP1 PUSH1 0x20 ADD KECCAK256 SWAP1 POP PUSH1 0x0 DUP3 DUP1 MLOAD SWAP1 PUSH1 0x20 ADD KECCAK256 SWAP1 POP PUSH1 0x0 PUSH32 0x8B73C3C69BB8FE3D512ECC4CF759CC79239F7B179B0FFACAA9A75D522B39400F SWAP1 POP DUP3 PUSH1 0xE0 DUP2 DUP2 MSTORE POP POP DUP2 PUSH2 0x100 DUP2 DUP2 MSTORE POP POP CHAINID PUSH1 0xA0 DUP2 DUP2 MSTORE POP POP PUSH3 0xDD DUP2 DUP5 DUP5 PUSH3 0x214 PUSH1 0x20 SHL PUSH1 0x20 SHR JUMP JUMPDEST PUSH1 0x80 DUP2 DUP2 MSTORE POP POP ADDRESS PUSH20 0xFFFFFFFFFFFFFFFFFFFFFFFFFFFFFFFFFFFFFFFF AND PUSH1 0xC0 DUP2 PUSH20 0xFFFFFFFFFFFFFFFFFFFFFFFFFFFFFFFFFFFFFFFF AND PUSH1 0x60 SHL DUP2 MSTORE POP POP DUP1 PUSH2 0x120 DUP2 DUP2 MSTORE POP POP POP POP POP POP POP PUSH1 0x0 CALLER SWAP1 POP PUSH3 0x13F DUP2 PUSH3 0x250 PUSH1 0x20 SHL PUSH1 0x20 SHR JUMP JUMPDEST POP POP POP PUSH3 0x877 JUMP JUMPDEST PUSH1 0x0 CALLER SWAP1 POP SWAP1 JUMP JUMPDEST PUSH1 0x0 DUP1 PUSH1 0x0 SWAP1 SLOAD SWAP1 PUSH2 0x100 EXP SWAP1 DIV PUSH20 0xFFFFFFFFFFFFFFFFFFFFFFFFFFFFFFFFFFFFFFFF AND SWAP1 POP DUP2 PUSH1 0x0 DUP1 PUSH2 0x100 EXP DUP2 SLOAD DUP2 PUSH20 0xFFFFFFFFFFFFFFFFFFFFFFFFFFFFFFFFFFFFFFFF MUL NOT AND SWAP1 DUP4 PUSH20 0xFFFFFFFFFFFFFFFFFFFFFFFFFFFFFFFFFFFFFFFF AND MUL OR SWAP1 SSTORE POP DUP2 PUSH20 0xFFFFFFFFFFFFFFFFFFFFFFFFFFFFFFFFFFFFFFFF AND DUP2 PUSH20 0xFFFFFFFFFFFFFFFFFFFFFFFFFFFFFFFFFFFFFFFF AND PUSH32 0x8BE0079C531659141344CD1FD0A4F28419497F9722A3DAAFE3B4186F6B6457E0 PUSH1 0x40 MLOAD PUSH1 0x40 MLOAD DUP1 SWAP2 SUB SWAP1 LOG3 POP POP JUMP JUMPDEST PUSH1 0x0 DUP4 DUP4 DUP4 CHAINID ADDRESS PUSH1 0x40 MLOAD PUSH1 0x20 ADD PUSH3 0x231 SWAP6 SWAP5 SWAP4 SWAP3 SWAP2 SWAP1 PUSH3 0x5E6 JUMP JUMPDEST PUSH1 0x40 MLOAD PUSH1 0x20 DUP2 DUP4 SUB SUB DUP2 MSTORE SWAP1 PUSH1 0x40 MSTORE DUP1 MLOAD SWAP1 PUSH1 0x20 ADD KECCAK256 SWAP1 POP SWAP4 SWAP3 POP POP POP JUMP JUMPDEST PUSH3 0x260 PUSH3 0x352 PUSH1 0x20 SHL PUSH1 0x20 SHR JUMP JUMPDEST PUSH3 0x271 DUP2 PUSH3 0x3E3 PUSH1 0x20 SHL PUSH1 0x20 SHR JUMP JUMPDEST ISZERO PUSH3 0x2B4 JUMPI PUSH1 0x40 MLOAD PUSH32 0x8C379A000000000000000000000000000000000000000000000000000000000 DUP2 MSTORE PUSH1 0x4 ADD PUSH3 0x2AB SWAP1 PUSH3 0x643 JUMP JUMPDEST PUSH1 0x40 MLOAD DUP1 SWAP2 SUB SWAP1 REVERT JUMPDEST PUSH1 0x1 PUSH1 0x2 PUSH1 0x0 DUP4 PUSH20 0xFFFFFFFFFFFFFFFFFFFFFFFFFFFFFFFFFFFFFFFF AND PUSH20 0xFFFFFFFFFFFFFFFFFFFFFFFFFFFFFFFFFFFFFFFF AND DUP2 MSTORE PUSH1 0x20 ADD SWAP1 DUP2 MSTORE PUSH1 0x20 ADD PUSH1 0x0 KECCAK256 PUSH1 0x0 PUSH2 0x100 EXP DUP2 SLOAD DUP2 PUSH1 0xFF MUL NOT AND SWAP1 DUP4 ISZERO ISZERO MUL OR SWAP1 SSTORE POP DUP1 PUSH20 0xFFFFFFFFFFFFFFFFFFFFFFFFFFFFFFFFFFFFFFFF AND PUSH32 0x4F783C179409B4127238BC9C990BC99B9A651666A0D20B51D6C42849EB88466D PUSH1 0x40 MLOAD PUSH1 0x40 MLOAD DUP1 SWAP2 SUB SWAP1 LOG2 POP JUMP JUMPDEST PUSH3 0x362 PUSH3 0x148 PUSH1 0x20 SHL PUSH1 0x20 SHR JUMP JUMPDEST PUSH20 0xFFFFFFFFFFFFFFFFFFFFFFFFFFFFFFFFFFFFFFFF AND PUSH3 0x388 PUSH3 0x439 PUSH1 0x20 SHL PUSH1 0x20 SHR JUMP JUMPDEST PUSH20 0xFFFFFFFFFFFFFFFFFFFFFFFFFFFFFFFFFFFFFFFF AND EQ PUSH3 0x3E1 JUMPI PUSH1 0x40 MLOAD PUSH32 0x8C379A000000000000000000000000000000000000000000000000000000000 DUP2 MSTORE PUSH1 0x4 ADD PUSH3 0x3D8 SWAP1 PUSH3 0x665 JUMP JUMPDEST PUSH1 0x40 MLOAD DUP1 SWAP2 SUB SWAP1 REVERT JUMPDEST JUMP JUMPDEST PUSH1 0x0 PUSH1 0x2 PUSH1 0x0 DUP4 PUSH20 0xFFFFFFFFFFFFFFFFFFFFFFFFFFFFFFFFFFFFFFFF AND PUSH20 0xFFFFFFFFFFFFFFFFFFFFFFFFFFFFFFFFFFFFFFFF AND DUP2 MSTORE PUSH1 0x20 ADD SWAP1 DUP2 MSTORE PUSH1 0x20 ADD PUSH1 0x0 KECCAK256 PUSH1 0x0 SWAP1 SLOAD SWAP1 PUSH2 0x100 EXP SWAP1 DIV PUSH1 0xFF AND SWAP1 POP SWAP2 SWAP1 POP JUMP JUMPDEST PUSH1 0x0 DUP1 PUSH1 0x0 SWAP1 SLOAD SWAP1 PUSH2 0x100 EXP SWAP1 DIV PUSH20 0xFFFFFFFFFFFFFFFFFFFFFFFFFFFFFFFFFFFFFFFF AND SWAP1 POP SWAP1 JUMP JUMPDEST PUSH1 0x0 PUSH3 0x479 PUSH3 0x473 DUP5 PUSH3 0x6B0 JUMP JUMPDEST PUSH3 0x687 JUMP JUMPDEST SWAP1 POP DUP3 DUP2 MSTORE PUSH1 0x20 DUP2 ADD DUP5 DUP5 DUP5 ADD GT ISZERO PUSH3 0x498 JUMPI PUSH3 0x497 PUSH3 0x7DF JUMP JUMPDEST JUMPDEST PUSH3 0x4A5 DUP5 DUP3 DUP6 PUSH3 0x73F JUMP JUMPDEST POP SWAP4 SWAP3 POP POP POP JUMP JUMPDEST PUSH1 0x0 DUP3 PUSH1 0x1F DUP4 ADD SLT PUSH3 0x4C5 JUMPI PUSH3 0x4C4 PUSH3 0x7DA JUMP JUMPDEST JUMPDEST DUP2 MLOAD PUSH3 0x4D7 DUP5 DUP3 PUSH1 0x20 DUP7 ADD PUSH3 0x462 JUMP JUMPDEST SWAP2 POP POP SWAP3 SWAP2 POP POP JUMP JUMPDEST PUSH1 0x0 DUP1 PUSH1 0x40 DUP4 DUP6 SUB SLT ISZERO PUSH3 0x4FA JUMPI PUSH3 0x4F9 PUSH3 0x7E9 JUMP JUMPDEST JUMPDEST PUSH1 0x0 DUP4 ADD MLOAD PUSH8 0xFFFFFFFFFFFFFFFF DUP2 GT ISZERO PUSH3 0x51B JUMPI PUSH3 0x51A PUSH3 0x7E4 JUMP JUMPDEST JUMPDEST PUSH3 0x529 DUP6 DUP3 DUP7 ADD PUSH3 0x4AD JUMP JUMPDEST SWAP3 POP POP PUSH1 0x20 DUP4 ADD MLOAD PUSH8 0xFFFFFFFFFFFFFFFF DUP2 GT ISZERO PUSH3 0x54D JUMPI PUSH3 0x54C PUSH3 0x7E4 JUMP JUMPDEST JUMPDEST PUSH3 0x55B DUP6 DUP3 DUP7 ADD PUSH3 0x4AD JUMP JUMPDEST SWAP2 POP POP SWAP3 POP SWAP3 SWAP1 POP JUMP JUMPDEST PUSH3 0x570 DUP2 PUSH3 0x6F7 JUMP JUMPDEST DUP3 MSTORE POP POP JUMP JUMPDEST PUSH3 0x581 DUP2 PUSH3 0x70B JUMP JUMPDEST DUP3 MSTORE POP POP JUMP JUMPDEST PUSH1 0x0 PUSH3 0x596 PUSH1 0x33 DUP4 PUSH3 0x6E6 JUMP JUMPDEST SWAP2 POP PUSH3 0x5A3 DUP3 PUSH3 0x7FF JUMP JUMPDEST PUSH1 0x40 DUP3 ADD SWAP1 POP SWAP2 SWAP1 POP JUMP JUMPDEST PUSH1 0x0 PUSH3 0x5BD PUSH1 0x20 DUP4 PUSH3 0x6E6 JUMP JUMPDEST SWAP2 POP PUSH3 0x5CA DUP3 PUSH3 0x84E JUMP JUMPDEST PUSH1 0x20 DUP3 ADD SWAP1 POP SWAP2 SWAP1 POP JUMP JUMPDEST PUSH3 0x5E0 DUP2 PUSH3 0x735 JUMP JUMPDEST DUP3 MSTORE POP POP JUMP JUMPDEST PUSH1 0x0 PUSH1 0xA0 DUP3 ADD SWAP1 POP PUSH3 0x5FD PUSH1 0x0 DUP4 ADD DUP9 PUSH3 0x576 JUMP JUMPDEST PUSH3 0x60C PUSH1 0x20 DUP4 ADD DUP8 PUSH3 0x576 JUMP JUMPDEST PUSH3 0x61B PUSH1 0x40 DUP4 ADD DUP7 PUSH3 0x576 JUMP JUMPDEST PUSH3 0x62A PUSH1 0x60 DUP4 ADD DUP6 PUSH3 0x5D5 JUMP JUMPDEST PUSH3 0x639 PUSH1 0x80 DUP4 ADD DUP5 PUSH3 0x565 JUMP JUMPDEST SWAP7 SWAP6 POP POP POP POP POP POP JUMP JUMPDEST PUSH1 0x0 PUSH1 0x20 DUP3 ADD SWAP1 POP DUP2 DUP2 SUB PUSH1 0x0 DUP4 ADD MSTORE PUSH3 0x65E DUP2 PUSH3 0x587 JUMP JUMPDEST SWAP1 POP SWAP2 SWAP1 POP JUMP JUMPDEST PUSH1 0x0 PUSH1 0x20 DUP3 ADD SWAP1 POP DUP2 DUP2 SUB PUSH1 0x0 DUP4 ADD MSTORE PUSH3 0x680 DUP2 PUSH3 0x5AE JUMP JUMPDEST SWAP1 POP SWAP2 SWAP1 POP JUMP JUMPDEST PUSH1 0x0 PUSH3 0x693 PUSH3 0x6A6 JUMP JUMPDEST SWAP1 POP PUSH3 0x6A1 DUP3 DUP3 PUSH3 0x775 JUMP JUMPDEST SWAP2 SWAP1 POP JUMP JUMPDEST PUSH1 0x0 PUSH1 0x40 MLOAD SWAP1 POP SWAP1 JUMP JUMPDEST PUSH1 0x0 PUSH8 0xFFFFFFFFFFFFFFFF DUP3 GT ISZERO PUSH3 0x6CE JUMPI PUSH3 0x6CD PUSH3 0x7AB JUMP JUMPDEST JUMPDEST PUSH3 0x6D9 DUP3 PUSH3 0x7EE JUMP JUMPDEST SWAP1 POP PUSH1 0x20 DUP2 ADD SWAP1 POP SWAP2 SWAP1 POP JUMP JUMPDEST PUSH1 0x0 DUP3 DUP3 MSTORE PUSH1 0x20 DUP3 ADD SWAP1 POP SWAP3 SWAP2 POP POP JUMP JUMPDEST PUSH1 0x0 PUSH3 0x704 DUP3 PUSH3 0x715 JUMP JUMPDEST SWAP1 POP SWAP2 SWAP1 POP JUMP JUMPDEST PUSH1 0x0 DUP2 SWAP1 POP SWAP2 SWAP1 POP JUMP JUMPDEST PUSH1 0x0 PUSH20 0xFFFFFFFFFFFFFFFFFFFFFFFFFFFFFFFFFFFFFFFF DUP3 AND SWAP1 POP SWAP2 SWAP1 POP JUMP JUMPDEST PUSH1 0x0 DUP2 SWAP1 POP SWAP2 SWAP1 POP JUMP JUMPDEST PUSH1 0x0 JUMPDEST DUP4 DUP2 LT ISZERO PUSH3 0x75F JUMPI DUP1 DUP3 ADD MLOAD DUP2 DUP5 ADD MSTORE PUSH1 0x20 DUP2 ADD SWAP1 POP PUSH3 0x742 JUMP JUMPDEST DUP4 DUP2 GT ISZERO PUSH3 0x76F JUMPI PUSH1 0x0 DUP5 DUP5 ADD MSTORE JUMPDEST POP POP POP POP JUMP JUMPDEST PUSH3 0x780 DUP3 PUSH3 0x7EE JUMP JUMPDEST DUP2 ADD DUP2 DUP2 LT PUSH8 0xFFFFFFFFFFFFFFFF DUP3 GT OR ISZERO PUSH3 0x7A2 JUMPI PUSH3 0x7A1 PUSH3 0x7AB JUMP JUMPDEST JUMPDEST DUP1 PUSH1 0x40 MSTORE POP POP POP JUMP JUMPDEST PUSH32 0x4E487B7100000000000000000000000000000000000000000000000000000000 PUSH1 0x0 MSTORE PUSH1 0x41 PUSH1 0x4 MSTORE PUSH1 0x24 PUSH1 0x0 REVERT JUMPDEST PUSH1 0x0 DUP1 REVERT JUMPDEST PUSH1 0x0 DUP1 REVERT JUMPDEST PUSH1 0x0 DUP1 REVERT JUMPDEST PUSH1 0x0 DUP1 REVERT JUMPDEST PUSH1 0x0 PUSH1 0x1F NOT PUSH1 0x1F DUP4 ADD AND SWAP1 POP SWAP2 SWAP1 POP JUMP JUMPDEST PUSH32 0x41776C466F727761726465723A2073656E646572206164647265737320697320 PUSH1 0x0 DUP3 ADD MSTORE PUSH32 0x616C72656164792077686974656C697374656400000000000000000000000000 PUSH1 0x20 DUP3 ADD MSTORE POP JUMP JUMPDEST PUSH32 0x4F776E61626C653A2063616C6C6572206973206E6F7420746865206F776E6572 PUSH1 0x0 DUP3 ADD MSTORE POP JUMP JUMPDEST PUSH1 0x80 MLOAD PUSH1 0xA0 MLOAD PUSH1 0xC0 MLOAD PUSH1 0x60 SHR PUSH1 0xE0 MLOAD PUSH2 0x100 MLOAD PUSH2 0x120 MLOAD PUSH2 0x1FFD PUSH3 0x8CA PUSH1 0x0 CODECOPY PUSH1 0x0 PUSH2 0xB8C ADD MSTORE PUSH1 0x0 PUSH2 0xBCE ADD MSTORE PUSH1 0x0 PUSH2 0xBAD ADD MSTORE PUSH1 0x0 PUSH2 0xAE2 ADD MSTORE PUSH1 0x0 PUSH2 0xB38 ADD MSTORE PUSH1 0x0 PUSH2 0xB61 ADD MSTORE PUSH2 0x1FFD PUSH1 0x0 RETURN INVALID PUSH1 0x80 PUSH1 0x40 MSTORE PUSH1 0x4 CALLDATASIZE LT PUSH2 0xDD JUMPI PUSH1 0x0 CALLDATALOAD PUSH1 0xE0 SHR DUP1 PUSH4 0x47153F82 GT PUSH2 0x7F JUMPI DUP1 PUSH4 0x8456CB59 GT PUSH2 0x59 JUMPI DUP1 PUSH4 0x8456CB59 EQ PUSH2 0x28C JUMPI DUP1 PUSH4 0x8DA5CB5B EQ PUSH2 0x2A3 JUMPI DUP1 PUSH4 0xBF5D3BDB EQ PUSH2 0x2CE JUMPI DUP1 PUSH4 0xF2FDE38B EQ PUSH2 0x30B JUMPI PUSH2 0xDD JUMP JUMPDEST DUP1 PUSH4 0x47153F82 EQ PUSH2 0x219 JUMPI DUP1 PUSH4 0x5C975ABB EQ PUSH2 0x24A JUMPI DUP1 PUSH4 0x715018A6 EQ PUSH2 0x275 JUMPI PUSH2 0xDD JUMP JUMPDEST DUP1 PUSH4 0x3644E515 GT PUSH2 0xBB JUMPI DUP1 PUSH4 0x3644E515 EQ PUSH2 0x171 JUMPI DUP1 PUSH4 0x3AF32ABF EQ PUSH2 0x19C JUMPI DUP1 PUSH4 0x3F113A61 EQ PUSH2 0x1D9 JUMPI DUP1 PUSH4 0x3F4BA83A EQ PUSH2 0x202 JUMPI PUSH2 0xDD JUMP JUMPDEST DUP1 PUSH4 0x1A9A352 EQ PUSH2 0xE2 JUMPI DUP1 PUSH4 0x2978CB40 EQ PUSH2 0x10B JUMPI DUP1 PUSH4 0x2D0335AB EQ PUSH2 0x134 JUMPI JUMPDEST PUSH1 0x0 DUP1 REVERT JUMPDEST CALLVALUE DUP1 ISZERO PUSH2 0xEE JUMPI PUSH1 0x0 DUP1 REVERT JUMPDEST POP PUSH2 0x109 PUSH1 0x4 DUP1 CALLDATASIZE SUB DUP2 ADD SWAP1 PUSH2 0x104 SWAP2 SWAP1 PUSH2 0x132D JUMP JUMPDEST PUSH2 0x334 JUMP JUMPDEST STOP JUMPDEST CALLVALUE DUP1 ISZERO PUSH2 0x117 JUMPI PUSH1 0x0 DUP1 REVERT JUMPDEST POP PUSH2 0x132 PUSH1 0x4 DUP1 CALLDATASIZE SUB DUP2 ADD SWAP1 PUSH2 0x12D SWAP2 SWAP1 PUSH2 0x135A JUMP JUMPDEST PUSH2 0x3DA JUMP JUMPDEST STOP JUMPDEST CALLVALUE DUP1 ISZERO PUSH2 0x140 JUMPI PUSH1 0x0 DUP1 REVERT JUMPDEST POP PUSH2 0x15B PUSH1 0x4 DUP1 CALLDATASIZE SUB DUP2 ADD SWAP1 PUSH2 0x156 SWAP2 SWAP1 PUSH2 0x132D JUMP JUMPDEST PUSH2 0x442 JUMP JUMPDEST PUSH1 0x40 MLOAD PUSH2 0x168 SWAP2 SWAP1 PUSH2 0x1A28 JUMP JUMPDEST PUSH1 0x40 MLOAD DUP1 SWAP2 SUB SWAP1 RETURN JUMPDEST CALLVALUE DUP1 ISZERO PUSH2 0x17D JUMPI PUSH1 0x0 DUP1 REVERT JUMPDEST POP PUSH2 0x186 PUSH2 0x48B JUMP JUMPDEST PUSH1 0x40 MLOAD PUSH2 0x193 SWAP2 SWAP1 PUSH2 0x17A6 JUMP JUMPDEST PUSH1 0x40 MLOAD DUP1 SWAP2 SUB SWAP1 RETURN JUMPDEST CALLVALUE DUP1 ISZERO PUSH2 0x1A8 JUMPI PUSH1 0x0 DUP1 REVERT JUMPDEST POP PUSH2 0x1C3 PUSH1 0x4 DUP1 CALLDATASIZE SUB DUP2 ADD SWAP1 PUSH2 0x1BE SWAP2 SWAP1 PUSH2 0x132D JUMP JUMPDEST PUSH2 0x49A JUMP JUMPDEST PUSH1 0x40 MLOAD PUSH2 0x1D0 SWAP2 SWAP1 PUSH2 0x175B JUMP JUMPDEST PUSH1 0x40 MLOAD DUP1 SWAP2 SUB SWAP1 RETURN JUMPDEST CALLVALUE DUP1 ISZERO PUSH2 0x1E5 JUMPI PUSH1 0x0 DUP1 REVERT JUMPDEST POP PUSH2 0x200 PUSH1 0x4 DUP1 CALLDATASIZE SUB DUP2 ADD SWAP1 PUSH2 0x1FB SWAP2 SWAP1 PUSH2 0x132D JUMP JUMPDEST PUSH2 0x4F0 JUMP JUMPDEST STOP JUMPDEST CALLVALUE DUP1 ISZERO PUSH2 0x20E JUMPI PUSH1 0x0 DUP1 REVERT JUMPDEST POP PUSH2 0x217 PUSH2 0x5DF JUMP JUMPDEST STOP JUMPDEST PUSH2 0x233 PUSH1 0x4 DUP1 CALLDATASIZE SUB DUP2 ADD SWAP1 PUSH2 0x22E SWAP2 SWAP1 PUSH2 0x1387 JUMP JUMPDEST PUSH2 0x5F1 JUMP JUMPDEST PUSH1 0x40 MLOAD PUSH2 0x241 SWAP3 SWAP2 SWAP1 PUSH2 0x1776 JUMP JUMPDEST PUSH1 0x40 MLOAD DUP1 SWAP2 SUB SWAP1 RETURN JUMPDEST CALLVALUE DUP1 ISZERO PUSH2 0x256 JUMPI PUSH1 0x0 DUP1 REVERT JUMPDEST POP PUSH2 0x25F PUSH2 0x7C1 JUMP JUMPDEST PUSH1 0x40 MLOAD PUSH2 0x26C SWAP2 SWAP1 PUSH2 0x175B JUMP JUMPDEST PUSH1 0x40 MLOAD DUP1 SWAP2 SUB SWAP1 RETURN JUMPDEST CALLVALUE DUP1 ISZERO PUSH2 0x281 JUMPI PUSH1 0x0 DUP1 REVERT JUMPDEST POP PUSH2 0x28A PUSH2 0x7D7 JUMP JUMPDEST STOP JUMPDEST CALLVALUE DUP1 ISZERO PUSH2 0x298 JUMPI PUSH1 0x0 DUP1 REVERT JUMPDEST POP PUSH2 0x2A1 PUSH2 0x7EB JUMP JUMPDEST STOP JUMPDEST CALLVALUE DUP1 ISZERO PUSH2 0x2AF JUMPI PUSH1 0x0 DUP1 REVERT JUMPDEST POP PUSH2 0x2B8 PUSH2 0x7FD JUMP JUMPDEST PUSH1 0x40 MLOAD PUSH2 0x2C5 SWAP2 SWAP1 PUSH2 0x1740 JUMP JUMPDEST PUSH1 0x40 MLOAD DUP1 SWAP2 SUB SWAP1 RETURN JUMPDEST CALLVALUE DUP1 ISZERO PUSH2 0x2DA JUMPI PUSH1 0x0 DUP1 REVERT JUMPDEST POP PUSH2 0x2F5 PUSH1 0x4 DUP1 CALLDATASIZE SUB DUP2 ADD SWAP1 PUSH2 0x2F0 SWAP2 SWAP1 PUSH2 0x1387 JUMP JUMPDEST PUSH2 0x826 JUMP JUMPDEST PUSH1 0x40 MLOAD PUSH2 0x302 SWAP2 SWAP1 PUSH2 0x175B JUMP JUMPDEST PUSH1 0x40 MLOAD DUP1 SWAP2 SUB SWAP1 RETURN JUMPDEST CALLVALUE DUP1 ISZERO PUSH2 0x317 JUMPI PUSH1 0x0 DUP1 REVERT JUMPDEST POP PUSH2 0x332 PUSH1 0x4 DUP1 CALLDATASIZE SUB DUP2 ADD SWAP1 PUSH2 0x32D SWAP2 SWAP1 PUSH2 0x132D JUMP JUMPDEST PUSH2 0x9DC JUMP JUMPDEST STOP JUMPDEST PUSH2 0x33C PUSH2 0xA60 JUMP JUMPDEST PUSH1 0x0 PUSH1 0x2 PUSH1 0x0 DUP4 PUSH20 0xFFFFFFFFFFFFFFFFFFFFFFFFFFFFFFFFFFFFFFFF AND PUSH20 0xFFFFFFFFFFFFFFFFFFFFFFFFFFFFFFFFFFFFFFFF AND DUP2 MSTORE PUSH1 0x20 ADD SWAP1 DUP2 MSTORE PUSH1 0x20 ADD PUSH1 0x0 KECCAK256 PUSH1 0x0 PUSH2 0x100 EXP DUP2 SLOAD DUP2 PUSH1 0xFF MUL NOT AND SWAP1 DUP4 ISZERO ISZERO MUL OR SWAP1 SSTORE POP DUP1 PUSH20 0xFFFFFFFFFFFFFFFFFFFFFFFFFFFFFFFFFFFFFFFF AND PUSH32 0x535611FB62FA2A833988F283B779E417E996813E44046F521D76C17B5943B08C PUSH1 0x40 MLOAD PUSH1 0x40 MLOAD DUP1 SWAP2 SUB SWAP1 LOG2 POP JUMP JUMPDEST PUSH2 0x3E2 PUSH2 0xA60 JUMP JUMPDEST DUP1 PUSH20 0xFFFFFFFFFFFFFFFFFFFFFFFFFFFFFFFFFFFFFFFF AND PUSH2 0x8FC SELFBALANCE SWAP1 DUP2 ISZERO MUL SWAP1 PUSH1 0x40 MLOAD PUSH1 0x0 PUSH1 0x40 MLOAD DUP1 DUP4 SUB DUP2 DUP6 DUP9 DUP9 CALL SWAP4 POP POP POP POP ISZERO DUP1 ISZERO PUSH2 0x428 JUMPI RETURNDATASIZE PUSH1 0x0 DUP1 RETURNDATACOPY RETURNDATASIZE PUSH1 0x0 REVERT JUMPDEST POP DUP1 PUSH20 0xFFFFFFFFFFFFFFFFFFFFFFFFFFFFFFFFFFFFFFFF AND SELFDESTRUCT JUMPDEST PUSH1 0x0 PUSH1 0x1 PUSH1 0x0 DUP4 PUSH20 0xFFFFFFFFFFFFFFFFFFFFFFFFFFFFFFFFFFFFFFFF AND PUSH20 0xFFFFFFFFFFFFFFFFFFFFFFFFFFFFFFFFFFFFFFFF AND DUP2 MSTORE PUSH1 0x20 ADD SWAP1 DUP2 MSTORE PUSH1 0x20 ADD PUSH1 0x0 KECCAK256 SLOAD SWAP1 POP SWAP2 SWAP1 POP JUMP JUMPDEST PUSH1 0x0 PUSH2 0x495 PUSH2 0xADE JUMP JUMPDEST SWAP1 POP SWAP1 JUMP JUMPDEST PUSH1 0x0 PUSH1 0x2 PUSH1 0x0 DUP4 PUSH20 0xFFFFFFFFFFFFFFFFFFFFFFFFFFFFFFFFFFFFFFFF AND PUSH20 0xFFFFFFFFFFFFFFFFFFFFFFFFFFFFFFFFFFFFFFFF AND DUP2 MSTORE PUSH1 0x20 ADD SWAP1 DUP2 MSTORE PUSH1 0x20 ADD PUSH1 0x0 KECCAK256 PUSH1 0x0 SWAP1 SLOAD SWAP1 PUSH2 0x100 EXP SWAP1 DIV PUSH1 0xFF AND SWAP1 POP SWAP2 SWAP1 POP JUMP JUMPDEST PUSH2 0x4F8 PUSH2 0xA60 JUMP JUMPDEST PUSH2 0x501 DUP2 PUSH2 0x49A JUMP JUMPDEST ISZERO PUSH2 0x541 JUMPI PUSH1 0x40 MLOAD PUSH32 0x8C379A000000000000000000000000000000000000000000000000000000000 DUP2 MSTORE PUSH1 0x4 ADD PUSH2 0x538 SWAP1 PUSH2 0x19E8 JUMP JUMPDEST PUSH1 0x40 MLOAD DUP1 SWAP2 SUB SWAP1 REVERT JUMPDEST PUSH1 0x1 PUSH1 0x2 PUSH1 0x0 DUP4 PUSH20 0xFFFFFFFFFFFFFFFFFFFFFFFFFFFFFFFFFFFFFFFF AND PUSH20 0xFFFFFFFFFFFFFFFFFFFFFFFFFFFFFFFFFFFFFFFF AND DUP2 MSTORE PUSH1 0x20 ADD SWAP1 DUP2 MSTORE PUSH1 0x20 ADD PUSH1 0x0 KECCAK256 PUSH1 0x0 PUSH2 0x100 EXP DUP2 SLOAD DUP2 PUSH1 0xFF MUL NOT AND SWAP1 DUP4 ISZERO ISZERO MUL OR SWAP1 SSTORE POP DUP1 PUSH20 0xFFFFFFFFFFFFFFFFFFFFFFFFFFFFFFFFFFFFFFFF AND PUSH32 0x4F783C179409B4127238BC9C990BC99B9A651666A0D20B51D6C42849EB88466D PUSH1 0x40 MLOAD PUSH1 0x40 MLOAD DUP1 SWAP2 SUB SWAP1 LOG2 POP JUMP JUMPDEST PUSH2 0x5E7 PUSH2 0xA60 JUMP JUMPDEST PUSH2 0x5EF PUSH2 0xBF8 JUMP JUMPDEST JUMP JUMPDEST PUSH1 0x0 PUSH1 0x60 PUSH2 0x5FD PUSH2 0xC5A JUMP JUMPDEST PUSH1 0x2 PUSH1 0x0 CALLER PUSH20 0xFFFFFFFFFFFFFFFFFFFFFFFFFFFFFFFFFFFFFFFF AND PUSH20 0xFFFFFFFFFFFFFFFFFFFFFFFFFFFFFFFFFFFFFFFF AND DUP2 MSTORE PUSH1 0x20 ADD SWAP1 DUP2 MSTORE PUSH1 0x20 ADD PUSH1 0x0 KECCAK256 PUSH1 0x0 SWAP1 SLOAD SWAP1 PUSH2 0x100 EXP SWAP1 DIV PUSH1 0xFF AND PUSH2 0x689 JUMPI PUSH1 0x40 MLOAD PUSH32 0x8C379A000000000000000000000000000000000000000000000000000000000 DUP2 MSTORE PUSH1 0x4 ADD PUSH2 0x680 SWAP1 PUSH2 0x1948 JUMP JUMPDEST PUSH1 0x40 MLOAD DUP1 SWAP2 SUB SWAP1 REVERT JUMPDEST PUSH2 0x694 DUP6 DUP6 DUP6 PUSH2 0x826 JUMP JUMPDEST PUSH2 0x6D3 JUMPI PUSH1 0x40 MLOAD PUSH32 0x8C379A000000000000000000000000000000000000000000000000000000000 DUP2 MSTORE PUSH1 0x4 ADD PUSH2 0x6CA SWAP1 PUSH2 0x1988 JUMP JUMPDEST PUSH1 0x40 MLOAD DUP1 SWAP2 SUB SWAP1 REVERT JUMPDEST PUSH1 0x0 DUP1 DUP7 PUSH1 0x20 ADD PUSH1 0x20 DUP2 ADD SWAP1 PUSH2 0x6E9 SWAP2 SWAP1 PUSH2 0x132D JUMP JUMPDEST PUSH20 0xFFFFFFFFFFFFFFFFFFFFFFFFFFFFFFFFFFFFFFFF AND DUP8 PUSH1 0x60 ADD CALLDATALOAD DUP9 PUSH1 0x40 ADD CALLDATALOAD DUP10 DUP1 PUSH1 0xA0 ADD SWAP1 PUSH2 0x719 SWAP2 SWAP1 PUSH2 0x1A43 JUMP JUMPDEST DUP12 PUSH1 0x0 ADD PUSH1 0x20 DUP2 ADD SWAP1 PUSH2 0x72C SWAP2 SWAP1 PUSH2 0x132D JUMP JUMPDEST PUSH1 0x40 MLOAD PUSH1 0x20 ADD PUSH2 0x73E SWAP4 SWAP3 SWAP2 SWAP1 PUSH2 0x16C8 JUMP JUMPDEST PUSH1 0x40 MLOAD PUSH1 0x20 DUP2 DUP4 SUB SUB DUP2 MSTORE SWAP1 PUSH1 0x40 MSTORE PUSH1 0x40 MLOAD PUSH2 0x75A SWAP2 SWAP1 PUSH2 0x16F2 JUMP JUMPDEST PUSH1 0x0 PUSH1 0x40 MLOAD DUP1 DUP4 SUB DUP2 DUP6 DUP9 DUP9 CALL SWAP4 POP POP POP POP RETURNDATASIZE DUP1 PUSH1 0x0 DUP2 EQ PUSH2 0x798 JUMPI PUSH1 0x40 MLOAD SWAP2 POP PUSH1 0x1F NOT PUSH1 0x3F RETURNDATASIZE ADD AND DUP3 ADD PUSH1 0x40 MSTORE RETURNDATASIZE DUP3 MSTORE RETURNDATASIZE PUSH1 0x0 PUSH1 0x20 DUP5 ADD RETURNDATACOPY PUSH2 0x79D JUMP JUMPDEST PUSH1 0x60 SWAP2 POP JUMPDEST POP SWAP2 POP SWAP2 POP DUP2 PUSH2 0x7B1 JUMPI RETURNDATASIZE PUSH1 0x0 DUP1 RETURNDATACOPY RETURNDATASIZE PUSH1 0x0 REVERT JUMPDEST DUP2 DUP2 SWAP4 POP SWAP4 POP POP POP SWAP4 POP SWAP4 SWAP2 POP POP JUMP JUMPDEST PUSH1 0x0 DUP1 PUSH1 0x14 SWAP1 SLOAD SWAP1 PUSH2 0x100 EXP SWAP1 DIV PUSH1 0xFF AND SWAP1 POP SWAP1 JUMP JUMPDEST PUSH2 0x7DF PUSH2 0xA60 JUMP JUMPDEST PUSH2 0x7E9 PUSH1 0x0 PUSH2 0xCA4 JUMP JUMPDEST JUMP JUMPDEST PUSH2 0x7F3 PUSH2 0xA60 JUMP JUMPDEST PUSH2 0x7FB PUSH2 0xD68 JUMP JUMPDEST JUMP JUMPDEST PUSH1 0x0 DUP1 PUSH1 0x0 SWAP1 SLOAD SWAP1 PUSH2 0x100 EXP SWAP1 DIV PUSH20 0xFFFFFFFFFFFFFFFFFFFFFFFFFFFFFFFFFFFFFFFF AND SWAP1 POP SWAP1 JUMP JUMPDEST PUSH1 0x0 DUP1 PUSH2 0x92F DUP5 DUP5 DUP1 DUP1 PUSH1 0x1F ADD PUSH1 0x20 DUP1 SWAP2 DIV MUL PUSH1 0x20 ADD PUSH1 0x40 MLOAD SWAP1 DUP2 ADD PUSH1 0x40 MSTORE DUP1 SWAP4 SWAP3 SWAP2 SWAP1 DUP2 DUP2 MSTORE PUSH1 0x20 ADD DUP4 DUP4 DUP1 DUP3 DUP5 CALLDATACOPY PUSH1 0x0 DUP2 DUP5 ADD MSTORE PUSH1 0x1F NOT PUSH1 0x1F DUP3 ADD AND SWAP1 POP DUP1 DUP4 ADD SWAP3 POP POP POP POP POP POP POP PUSH2 0x921 PUSH32 0xDD8F4B70B0F4393E889BD39128A30628A78B61816A9EB8199759E7A349657E48 DUP9 PUSH1 0x0 ADD PUSH1 0x20 DUP2 ADD SWAP1 PUSH2 0x8A8 SWAP2 SWAP1 PUSH2 0x132D JUMP JUMPDEST DUP10 PUSH1 0x20 ADD PUSH1 0x20 DUP2 ADD SWAP1 PUSH2 0x8BB SWAP2 SWAP1 PUSH2 0x132D JUMP JUMPDEST DUP11 PUSH1 0x40 ADD CALLDATALOAD DUP12 PUSH1 0x60 ADD CALLDATALOAD DUP13 PUSH1 0x80 ADD CALLDATALOAD DUP14 DUP1 PUSH1 0xA0 ADD SWAP1 PUSH2 0x8DA SWAP2 SWAP1 PUSH2 0x1A43 JUMP JUMPDEST PUSH1 0x40 MLOAD PUSH2 0x8E8 SWAP3 SWAP2 SWAP1 PUSH2 0x16AF JUMP JUMPDEST PUSH1 0x40 MLOAD DUP1 SWAP2 SUB SWAP1 KECCAK256 PUSH1 0x40 MLOAD PUSH1 0x20 ADD PUSH2 0x906 SWAP8 SWAP7 SWAP6 SWAP5 SWAP4 SWAP3 SWAP2 SWAP1 PUSH2 0x17C1 JUMP JUMPDEST PUSH1 0x40 MLOAD PUSH1 0x20 DUP2 DUP4 SUB SUB DUP2 MSTORE SWAP1 PUSH1 0x40 MSTORE DUP1 MLOAD SWAP1 PUSH1 0x20 ADD KECCAK256 PUSH2 0xDCB JUMP JUMPDEST PUSH2 0xDE5 SWAP1 SWAP2 SWAP1 PUSH4 0xFFFFFFFF AND JUMP JUMPDEST SWAP1 POP DUP5 PUSH1 0x80 ADD CALLDATALOAD PUSH1 0x1 PUSH1 0x0 DUP8 PUSH1 0x0 ADD PUSH1 0x20 DUP2 ADD SWAP1 PUSH2 0x94D SWAP2 SWAP1 PUSH2 0x132D JUMP JUMPDEST PUSH20 0xFFFFFFFFFFFFFFFFFFFFFFFFFFFFFFFFFFFFFFFF AND PUSH20 0xFFFFFFFFFFFFFFFFFFFFFFFFFFFFFFFFFFFFFFFF AND DUP2 MSTORE PUSH1 0x20 ADD SWAP1 DUP2 MSTORE PUSH1 0x20 ADD PUSH1 0x0 KECCAK256 SLOAD EQ DUP1 ISZERO PUSH2 0x9D2 JUMPI POP DUP5 PUSH1 0x0 ADD PUSH1 0x20 DUP2 ADD SWAP1 PUSH2 0x9A3 SWAP2 SWAP1 PUSH2 0x132D JUMP JUMPDEST PUSH20 0xFFFFFFFFFFFFFFFFFFFFFFFFFFFFFFFFFFFFFFFF AND DUP2 PUSH20 0xFFFFFFFFFFFFFFFFFFFFFFFFFFFFFFFFFFFFFFFF AND EQ JUMPDEST SWAP2 POP POP SWAP4 SWAP3 POP POP POP JUMP JUMPDEST PUSH2 0x9E4 PUSH2 0xA60 JUMP JUMPDEST PUSH1 0x0 PUSH20 0xFFFFFFFFFFFFFFFFFFFFFFFFFFFFFFFFFFFFFFFF AND DUP2 PUSH20 0xFFFFFFFFFFFFFFFFFFFFFFFFFFFFFFFFFFFFFFFF AND EQ ISZERO PUSH2 0xA54 JUMPI PUSH1 0x40 MLOAD PUSH32 0x8C379A000000000000000000000000000000000000000000000000000000000 DUP2 MSTORE PUSH1 0x4 ADD PUSH2 0xA4B SWAP1 PUSH2 0x1928 JUMP JUMPDEST PUSH1 0x40 MLOAD DUP1 SWAP2 SUB SWAP1 REVERT JUMPDEST PUSH2 0xA5D DUP2 PUSH2 0xCA4 JUMP JUMPDEST POP JUMP JUMPDEST PUSH2 0xA68 PUSH2 0xE0C JUMP JUMPDEST PUSH20 0xFFFFFFFFFFFFFFFFFFFFFFFFFFFFFFFFFFFFFFFF AND PUSH2 0xA86 PUSH2 0x7FD JUMP JUMPDEST PUSH20 0xFFFFFFFFFFFFFFFFFFFFFFFFFFFFFFFFFFFFFFFF AND EQ PUSH2 0xADC JUMPI PUSH1 0x40 MLOAD PUSH32 0x8C379A000000000000000000000000000000000000000000000000000000000 DUP2 MSTORE PUSH1 0x4 ADD PUSH2 0xAD3 SWAP1 PUSH2 0x1A08 JUMP JUMPDEST PUSH1 0x40 MLOAD DUP1 SWAP2 SUB SWAP1 REVERT JUMPDEST JUMP JUMPDEST PUSH1 0x0 PUSH32 0x0 PUSH20 0xFFFFFFFFFFFFFFFFFFFFFFFFFFFFFFFFFFFFFFFF AND ADDRESS PUSH20 0xFFFFFFFFFFFFFFFFFFFFFFFFFFFFFFFFFFFFFFFF AND EQ DUP1 ISZERO PUSH2 0xB5A JUMPI POP PUSH32 0x0 CHAINID EQ JUMPDEST ISZERO PUSH2 0xB87 JUMPI PUSH32 0x0 SWAP1 POP PUSH2 0xBF5 JUMP JUMPDEST PUSH2 0xBF2 PUSH32 0x0 PUSH32 0x0 PUSH32 0x0 PUSH2 0xE14 JUMP JUMPDEST SWAP1 POP JUMPDEST SWAP1 JUMP JUMPDEST PUSH2 0xC00 PUSH2 0xE4E JUMP JUMPDEST PUSH1 0x0 DUP1 PUSH1 0x14 PUSH2 0x100 EXP DUP2 SLOAD DUP2 PUSH1 0xFF MUL NOT AND SWAP1 DUP4 ISZERO ISZERO MUL OR SWAP1 SSTORE POP PUSH32 0x5DB9EE0A495BF2E6FF9C91A7834C1BA4FDD244A5E8AA4E537BD38AEAE4B073AA PUSH2 0xC43 PUSH2 0xE0C JUMP JUMPDEST PUSH1 0x40 MLOAD PUSH2 0xC50 SWAP2 SWAP1 PUSH2 0x1740 JUMP JUMPDEST PUSH1 0x40 MLOAD DUP1 SWAP2 SUB SWAP1 LOG1 JUMP JUMPDEST PUSH2 0xC62 PUSH2 0x7C1 JUMP JUMPDEST ISZERO PUSH2 0xCA2 JUMPI PUSH1 0x40 MLOAD PUSH32 0x8C379A000000000000000000000000000000000000000000000000000000000 DUP2 MSTORE PUSH1 0x4 ADD PUSH2 0xC99 SWAP1 PUSH2 0x19A8 JUMP JUMPDEST PUSH1 0x40 MLOAD DUP1 SWAP2 SUB SWAP1 REVERT JUMPDEST JUMP JUMPDEST PUSH1 0x0 DUP1 PUSH1 0x0 SWAP1 SLOAD SWAP1 PUSH2 0x100 EXP SWAP1 DIV PUSH20 0xFFFFFFFFFFFFFFFFFFFFFFFFFFFFFFFFFFFFFFFF AND SWAP1 POP DUP2 PUSH1 0x0 DUP1 PUSH2 0x100 EXP DUP2 SLOAD DUP2 PUSH20 0xFFFFFFFFFFFFFFFFFFFFFFFFFFFFFFFFFFFFFFFF MUL NOT AND SWAP1 DUP4 PUSH20 0xFFFFFFFFFFFFFFFFFFFFFFFFFFFFFFFFFFFFFFFF AND MUL OR SWAP1 SSTORE POP DUP2 PUSH20 0xFFFFFFFFFFFFFFFFFFFFFFFFFFFFFFFFFFFFFFFF AND DUP2 PUSH20 0xFFFFFFFFFFFFFFFFFFFFFFFFFFFFFFFFFFFFFFFF AND PUSH32 0x8BE0079C531659141344CD1FD0A4F28419497F9722A3DAAFE3B4186F6B6457E0 PUSH1 0x40 MLOAD PUSH1 0x40 MLOAD DUP1 SWAP2 SUB SWAP1 LOG3 POP POP JUMP JUMPDEST PUSH2 0xD70 PUSH2 0xC5A JUMP JUMPDEST PUSH1 0x1 PUSH1 0x0 PUSH1 0x14 PUSH2 0x100 EXP DUP2 SLOAD DUP2 PUSH1 0xFF MUL NOT AND SWAP1 DUP4 ISZERO ISZERO MUL OR SWAP1 SSTORE POP PUSH32 0x62E78CEA01BEE320CD4E420270B5EA74000D11B0C9F74754EBDBFC544B05A258 PUSH2 0xDB4 PUSH2 0xE0C JUMP JUMPDEST PUSH1 0x40 MLOAD PUSH2 0xDC1 SWAP2 SWAP1 PUSH2 0x1740 JUMP JUMPDEST PUSH1 0x40 MLOAD DUP1 SWAP2 SUB SWAP1 LOG1 JUMP JUMPDEST PUSH1 0x0 PUSH2 0xDDE PUSH2 0xDD8 PUSH2 0xADE JUMP JUMPDEST DUP4 PUSH2 0xE97 JUMP JUMPDEST SWAP1 POP SWAP2 SWAP1 POP JUMP JUMPDEST PUSH1 0x0 DUP1 PUSH1 0x0 PUSH2 0xDF4 DUP6 DUP6 PUSH2 0xECA JUMP JUMPDEST SWAP2 POP SWAP2 POP PUSH2 0xE01 DUP2 PUSH2 0xF4D JUMP JUMPDEST DUP2 SWAP3 POP POP POP SWAP3 SWAP2 POP POP JUMP JUMPDEST PUSH1 0x0 CALLER SWAP1 POP SWAP1 JUMP JUMPDEST PUSH1 0x0 DUP4 DUP4 DUP4 CHAINID ADDRESS PUSH1 0x40 MLOAD PUSH1 0x20 ADD PUSH2 0xE2F SWAP6 SWAP5 SWAP4 SWAP3 SWAP2 SWAP1 PUSH2 0x1830 JUMP JUMPDEST PUSH1 0x40 MLOAD PUSH1 0x20 DUP2 DUP4 SUB SUB DUP2 MSTORE SWAP1 PUSH1 0x40 MSTORE DUP1 MLOAD SWAP1 PUSH1 0x20 ADD KECCAK256 SWAP1 POP SWAP4 SWAP3 POP POP POP JUMP JUMPDEST PUSH2 0xE56 PUSH2 0x7C1 JUMP JUMPDEST PUSH2 0xE95 JUMPI PUSH1 0x40 MLOAD PUSH32 0x8C379A000000000000000000000000000000000000000000000000000000000 DUP2 MSTORE PUSH1 0x4 ADD PUSH2 0xE8C SWAP1 PUSH2 0x18E8 JUMP JUMPDEST PUSH1 0x40 MLOAD DUP1 SWAP2 SUB SWAP1 REVERT JUMPDEST JUMP JUMPDEST PUSH1 0x0 DUP3 DUP3 PUSH1 0x40 MLOAD PUSH1 0x20 ADD PUSH2 0xEAC SWAP3 SWAP2 SWAP1 PUSH2 0x1709 JUMP JUMPDEST PUSH1 0x40 MLOAD PUSH1 0x20 DUP2 DUP4 SUB SUB DUP2 MSTORE SWAP1 PUSH1 0x40 MSTORE DUP1 MLOAD SWAP1 PUSH1 0x20 ADD KECCAK256 SWAP1 POP SWAP3 SWAP2 POP POP JUMP JUMPDEST PUSH1 0x0 DUP1 PUSH1 0x41 DUP4 MLOAD EQ ISZERO PUSH2 0xF0C JUMPI PUSH1 0x0 DUP1 PUSH1 0x0 PUSH1 0x20 DUP7 ADD MLOAD SWAP3 POP PUSH1 0x40 DUP7 ADD MLOAD SWAP2 POP PUSH1 0x60 DUP7 ADD MLOAD PUSH1 0x0 BYTE SWAP1 POP PUSH2 0xF00 DUP8 DUP3 DUP6 DUP6 PUSH2 0x1122 JUMP JUMPDEST SWAP5 POP SWAP5 POP POP POP POP PUSH2 0xF46 JUMP JUMPDEST PUSH1 0x40 DUP4 MLOAD EQ ISZERO PUSH2 0xF3D JUMPI PUSH1 0x0 DUP1 PUSH1 0x20 DUP6 ADD MLOAD SWAP2 POP PUSH1 0x40 DUP6 ADD MLOAD SWAP1 POP PUSH2 0xF32 DUP7 DUP4 DUP4 PUSH2 0x122F JUMP JUMPDEST SWAP4 POP SWAP4 POP POP POP PUSH2 0xF46 JUMP JUMPDEST PUSH1 0x0 PUSH1 0x2 SWAP2 POP SWAP2 POP JUMPDEST SWAP3 POP SWAP3 SWAP1 POP JUMP JUMPDEST PUSH1 0x0 PUSH1 0x4 DUP2 GT ISZERO PUSH2 0xF61 JUMPI PUSH2 0xF60 PUSH2 0x1C4F JUMP JUMPDEST JUMPDEST DUP2 PUSH1 0x4 DUP2 GT ISZERO PUSH2 0xF74 JUMPI PUSH2 0xF73 PUSH2 0x1C4F JUMP JUMPDEST JUMPDEST EQ ISZERO PUSH2 0xF7F JUMPI PUSH2 0x111F JUMP JUMPDEST PUSH1 0x1 PUSH1 0x4 DUP2 GT ISZERO PUSH2 0xF93 JUMPI PUSH2 0xF92 PUSH2 0x1C4F JUMP JUMPDEST JUMPDEST DUP2 PUSH1 0x4 DUP2 GT ISZERO PUSH2 0xFA6 JUMPI PUSH2 0xFA5 PUSH2 0x1C4F JUMP JUMPDEST JUMPDEST EQ ISZERO PUSH2 0xFE7 JUMPI PUSH1 0x40 MLOAD PUSH32 0x8C379A000000000000000000000000000000000000000000000000000000000 DUP2 MSTORE PUSH1 0x4 ADD PUSH2 0xFDE SWAP1 PUSH2 0x18C8 JUMP JUMPDEST PUSH1 0x40 MLOAD DUP1 SWAP2 SUB SWAP1 REVERT JUMPDEST PUSH1 0x2 PUSH1 0x4 DUP2 GT ISZERO PUSH2 0xFFB JUMPI PUSH2 0xFFA PUSH2 0x1C4F JUMP JUMPDEST JUMPDEST DUP2 PUSH1 0x4 DUP2 GT ISZERO PUSH2 0x100E JUMPI PUSH2 0x100D PUSH2 0x1C4F JUMP JUMPDEST JUMPDEST EQ ISZERO PUSH2 0x104F JUMPI PUSH1 0x40 MLOAD PUSH32 0x8C379A000000000000000000000000000000000000000000000000000000000 DUP2 MSTORE PUSH1 0x4 ADD PUSH2 0x1046 SWAP1 PUSH2 0x1908 JUMP JUMPDEST PUSH1 0x40 MLOAD DUP1 SWAP2 SUB SWAP1 REVERT JUMPDEST PUSH1 0x3 PUSH1 0x4 DUP2 GT ISZERO PUSH2 0x1063 JUMPI PUSH2 0x1062 PUSH2 0x1C4F JUMP JUMPDEST JUMPDEST DUP2 PUSH1 0x4 DUP2 GT ISZERO PUSH2 0x1076 JUMPI PUSH2 0x1075 PUSH2 0x1C4F JUMP JUMPDEST JUMPDEST EQ ISZERO PUSH2 0x10B7 JUMPI PUSH1 0x40 MLOAD PUSH32 0x8C379A000000000000000000000000000000000000000000000000000000000 DUP2 MSTORE PUSH1 0x4 ADD PUSH2 0x10AE SWAP1 PUSH2 0x1968 JUMP JUMPDEST PUSH1 0x40 MLOAD DUP1 SWAP2 SUB SWAP1 REVERT JUMPDEST PUSH1 0x4 DUP1 DUP2 GT ISZERO PUSH2 0x10CA JUMPI PUSH2 0x10C9 PUSH2 0x1C4F JUMP JUMPDEST JUMPDEST DUP2 PUSH1 0x4 DUP2 GT ISZERO PUSH2 0x10DD JUMPI PUSH2 0x10DC PUSH2 0x1C4F JUMP JUMPDEST JUMPDEST EQ ISZERO PUSH2 0x111E JUMPI PUSH1 0x40 MLOAD PUSH32 0x8C379A000000000000000000000000000000000000000000000000000000000 DUP2 MSTORE PUSH1 0x4 ADD PUSH2 0x1115 SWAP1 PUSH2 0x19C8 JUMP JUMPDEST PUSH1 0x40 MLOAD DUP1 SWAP2 SUB SWAP1 REVERT JUMPDEST JUMPDEST POP JUMP JUMPDEST PUSH1 0x0 DUP1 PUSH32 0x7FFFFFFFFFFFFFFFFFFFFFFFFFFFFFFF5D576E7357A4501DDFE92F46681B20A0 DUP4 PUSH1 0x0 SHR GT ISZERO PUSH2 0x115D JUMPI PUSH1 0x0 PUSH1 0x3 SWAP2 POP SWAP2 POP PUSH2 0x1226 JUMP JUMPDEST PUSH1 0x1B DUP6 PUSH1 0xFF AND EQ ISZERO DUP1 ISZERO PUSH2 0x1175 JUMPI POP PUSH1 0x1C DUP6 PUSH1 0xFF AND EQ ISZERO JUMPDEST ISZERO PUSH2 0x1187 JUMPI PUSH1 0x0 PUSH1 0x4 SWAP2 POP SWAP2 POP PUSH2 0x1226 JUMP JUMPDEST PUSH1 0x0 PUSH1 0x1 DUP8 DUP8 DUP8 DUP8 PUSH1 0x40 MLOAD PUSH1 0x0 DUP2 MSTORE PUSH1 0x20 ADD PUSH1 0x40 MSTORE PUSH1 0x40 MLOAD PUSH2 0x11AC SWAP5 SWAP4 SWAP3 SWAP2 SWAP1 PUSH2 0x1883 JUMP JUMPDEST PUSH1 0x20 PUSH1 0x40 MLOAD PUSH1 0x20 DUP2 SUB SWAP1 DUP1 DUP5 SUB SWAP1 DUP6 GAS STATICCALL ISZERO DUP1 ISZERO PUSH2 0x11CE JUMPI RETURNDATASIZE PUSH1 0x0 DUP1 RETURNDATACOPY RETURNDATASIZE PUSH1 0x0 REVERT JUMPDEST POP POP POP PUSH1 0x20 PUSH1 0x40 MLOAD SUB MLOAD SWAP1 POP PUSH1 0x0 PUSH20 0xFFFFFFFFFFFFFFFFFFFFFFFFFFFFFFFFFFFFFFFF AND DUP2 PUSH20 0xFFFFFFFFFFFFFFFFFFFFFFFFFFFFFFFFFFFFFFFF AND EQ ISZERO PUSH2 0x121D JUMPI PUSH1 0x0 PUSH1 0x1 SWAP3 POP SWAP3 POP POP PUSH2 0x1226 JUMP JUMPDEST DUP1 PUSH1 0x0 SWAP3 POP SWAP3 POP POP JUMPDEST SWAP5 POP SWAP5 SWAP3 POP POP POP JUMP JUMPDEST PUSH1 0x0 DUP1 PUSH1 0x0 PUSH32 0x7FFFFFFFFFFFFFFFFFFFFFFFFFFFFFFFFFFFFFFFFFFFFFFFFFFFFFFFFFFFFFFF PUSH1 0x0 SHL DUP5 AND SWAP1 POP PUSH1 0x0 PUSH1 0x1B PUSH1 0xFF DUP7 PUSH1 0x0 SHR SWAP1 SHR PUSH2 0x1272 SWAP2 SWAP1 PUSH2 0x1AE9 JUMP JUMPDEST SWAP1 POP PUSH2 0x1280 DUP8 DUP3 DUP9 DUP6 PUSH2 0x1122 JUMP JUMPDEST SWAP4 POP SWAP4 POP POP POP SWAP4 POP SWAP4 SWAP2 POP POP JUMP JUMPDEST PUSH1 0x0 DUP2 CALLDATALOAD SWAP1 POP PUSH2 0x129D DUP2 PUSH2 0x1F99 JUMP JUMPDEST SWAP3 SWAP2 POP POP JUMP JUMPDEST PUSH1 0x0 DUP2 CALLDATALOAD SWAP1 POP PUSH2 0x12B2 DUP2 PUSH2 0x1FB0 JUMP JUMPDEST SWAP3 SWAP2 POP POP JUMP JUMPDEST PUSH1 0x0 DUP1 DUP4 PUSH1 0x1F DUP5 ADD SLT PUSH2 0x12CE JUMPI PUSH2 0x12CD PUSH2 0x1C83 JUMP JUMPDEST JUMPDEST DUP3 CALLDATALOAD SWAP1 POP PUSH8 0xFFFFFFFFFFFFFFFF DUP2 GT ISZERO PUSH2 0x12EB JUMPI PUSH2 0x12EA PUSH2 0x1C7E JUMP JUMPDEST JUMPDEST PUSH1 0x20 DUP4 ADD SWAP2 POP DUP4 PUSH1 0x1 DUP3 MUL DUP4 ADD GT ISZERO PUSH2 0x1307 JUMPI PUSH2 0x1306 PUSH2 0x1C97 JUMP JUMPDEST JUMPDEST SWAP3 POP SWAP3 SWAP1 POP JUMP JUMPDEST PUSH1 0x0 PUSH1 0xC0 DUP3 DUP5 SUB SLT ISZERO PUSH2 0x1324 JUMPI PUSH2 0x1323 PUSH2 0x1C8D JUMP JUMPDEST JUMPDEST DUP2 SWAP1 POP SWAP3 SWAP2 POP POP JUMP JUMPDEST PUSH1 0x0 PUSH1 0x20 DUP3 DUP5 SUB SLT ISZERO PUSH2 0x1343 JUMPI PUSH2 0x1342 PUSH2 0x1CA6 JUMP JUMPDEST JUMPDEST PUSH1 0x0 PUSH2 0x1351 DUP5 DUP3 DUP6 ADD PUSH2 0x128E JUMP JUMPDEST SWAP2 POP POP SWAP3 SWAP2 POP POP JUMP JUMPDEST PUSH1 0x0 PUSH1 0x20 DUP3 DUP5 SUB SLT ISZERO PUSH2 0x1370 JUMPI PUSH2 0x136F PUSH2 0x1CA6 JUMP JUMPDEST JUMPDEST PUSH1 0x0 PUSH2 0x137E DUP5 DUP3 DUP6 ADD PUSH2 0x12A3 JUMP JUMPDEST SWAP2 POP POP SWAP3 SWAP2 POP POP JUMP JUMPDEST PUSH1 0x0 DUP1 PUSH1 0x0 PUSH1 0x40 DUP5 DUP7 SUB SLT ISZERO PUSH2 0x13A0 JUMPI PUSH2 0x139F PUSH2 0x1CA6 JUMP JUMPDEST JUMPDEST PUSH1 0x0 DUP5 ADD CALLDATALOAD PUSH8 0xFFFFFFFFFFFFFFFF DUP2 GT ISZERO PUSH2 0x13BE JUMPI PUSH2 0x13BD PUSH2 0x1CA1 JUMP JUMPDEST JUMPDEST PUSH2 0x13CA DUP7 DUP3 DUP8 ADD PUSH2 0x130E JUMP JUMPDEST SWAP4 POP POP PUSH1 0x20 DUP5 ADD CALLDATALOAD PUSH8 0xFFFFFFFFFFFFFFFF DUP2 GT ISZERO PUSH2 0x13EB JUMPI PUSH2 0x13EA PUSH2 0x1CA1 JUMP JUMPDEST JUMPDEST PUSH2 0x13F7 DUP7 DUP3 DUP8 ADD PUSH2 0x12B8 JUMP JUMPDEST SWAP3 POP SWAP3 POP POP SWAP3 POP SWAP3 POP SWAP3 JUMP JUMPDEST PUSH2 0x140C DUP2 PUSH2 0x1B3F JUMP JUMPDEST DUP3 MSTORE POP POP JUMP JUMPDEST PUSH2 0x1423 PUSH2 0x141E DUP3 PUSH2 0x1B3F JUMP JUMPDEST PUSH2 0x1BF2 JUMP JUMPDEST DUP3 MSTORE POP POP JUMP JUMPDEST PUSH2 0x1432 DUP2 PUSH2 0x1B63 JUMP JUMPDEST DUP3 MSTORE POP POP JUMP JUMPDEST PUSH2 0x1441 DUP2 PUSH2 0x1B6F JUMP JUMPDEST DUP3 MSTORE POP POP JUMP JUMPDEST PUSH2 0x1458 PUSH2 0x1453 DUP3 PUSH2 0x1B6F JUMP JUMPDEST PUSH2 0x1C04 JUMP JUMPDEST DUP3 MSTORE POP POP JUMP JUMPDEST PUSH1 0x0 PUSH2 0x146A DUP4 DUP6 PUSH2 0x1AC2 JUMP JUMPDEST SWAP4 POP PUSH2 0x1477 DUP4 DUP6 DUP5 PUSH2 0x1BB0 JUMP JUMPDEST DUP3 DUP5 ADD SWAP1 POP SWAP4 SWAP3 POP POP POP JUMP JUMPDEST PUSH1 0x0 PUSH2 0x148E DUP3 PUSH2 0x1AA6 JUMP JUMPDEST PUSH2 0x1498 DUP2 DUP6 PUSH2 0x1AB1 JUMP JUMPDEST SWAP4 POP PUSH2 0x14A8 DUP2 DUP6 PUSH1 0x20 DUP7 ADD PUSH2 0x1BBF JUMP JUMPDEST PUSH2 0x14B1 DUP2 PUSH2 0x1CAB JUMP JUMPDEST DUP5 ADD SWAP2 POP POP SWAP3 SWAP2 POP POP JUMP JUMPDEST PUSH1 0x0 PUSH2 0x14C7 DUP3 PUSH2 0x1AA6 JUMP JUMPDEST PUSH2 0x14D1 DUP2 DUP6 PUSH2 0x1AC2 JUMP JUMPDEST SWAP4 POP PUSH2 0x14E1 DUP2 DUP6 PUSH1 0x20 DUP7 ADD PUSH2 0x1BBF JUMP JUMPDEST DUP1 DUP5 ADD SWAP2 POP POP SWAP3 SWAP2 POP POP JUMP JUMPDEST PUSH1 0x0 PUSH2 0x14FA PUSH1 0x18 DUP4 PUSH2 0x1ACD JUMP JUMPDEST SWAP2 POP PUSH2 0x1505 DUP3 PUSH2 0x1CC9 JUMP JUMPDEST PUSH1 0x20 DUP3 ADD SWAP1 POP SWAP2 SWAP1 POP JUMP JUMPDEST PUSH1 0x0 PUSH2 0x151D PUSH1 0x14 DUP4 PUSH2 0x1ACD JUMP JUMPDEST SWAP2 POP PUSH2 0x1528 DUP3 PUSH2 0x1CF2 JUMP JUMPDEST PUSH1 0x20 DUP3 ADD SWAP1 POP SWAP2 SWAP1 POP JUMP JUMPDEST PUSH1 0x0 PUSH2 0x1540 PUSH1 0x1F DUP4 PUSH2 0x1ACD JUMP JUMPDEST SWAP2 POP PUSH2 0x154B DUP3 PUSH2 0x1D1B JUMP JUMPDEST PUSH1 0x20 DUP3 ADD SWAP1 POP SWAP2 SWAP1 POP JUMP JUMPDEST PUSH1 0x0 PUSH2 0x1563 PUSH1 0x26 DUP4 PUSH2 0x1ACD JUMP JUMPDEST SWAP2 POP PUSH2 0x156E DUP3 PUSH2 0x1D44 JUMP JUMPDEST PUSH1 0x40 DUP3 ADD SWAP1 POP SWAP2 SWAP1 POP JUMP JUMPDEST PUSH1 0x0 PUSH2 0x1586 PUSH1 0x2 DUP4 PUSH2 0x1ADE JUMP JUMPDEST SWAP2 POP PUSH2 0x1591 DUP3 PUSH2 0x1D93 JUMP JUMPDEST PUSH1 0x2 DUP3 ADD SWAP1 POP SWAP2 SWAP1 POP JUMP JUMPDEST PUSH1 0x0 PUSH2 0x15A9 PUSH1 0x3B DUP4 PUSH2 0x1ACD JUMP JUMPDEST SWAP2 POP PUSH2 0x15B4 DUP3 PUSH2 0x1DBC JUMP JUMPDEST PUSH1 0x40 DUP3 ADD SWAP1 POP SWAP2 SWAP1 POP JUMP JUMPDEST PUSH1 0x0 PUSH2 0x15CC PUSH1 0x22 DUP4 PUSH2 0x1ACD JUMP JUMPDEST SWAP2 POP PUSH2 0x15D7 DUP3 PUSH2 0x1E0B JUMP JUMPDEST PUSH1 0x40 DUP3 ADD SWAP1 POP SWAP2 SWAP1 POP JUMP JUMPDEST PUSH1 0x0 PUSH2 0x15EF PUSH1 0x2E DUP4 PUSH2 0x1ACD JUMP JUMPDEST SWAP2 POP PUSH2 0x15FA DUP3 PUSH2 0x1E5A JUMP JUMPDEST PUSH1 0x40 DUP3 ADD SWAP1 POP SWAP2 SWAP1 POP JUMP JUMPDEST PUSH1 0x0 PUSH2 0x1612 PUSH1 0x10 DUP4 PUSH2 0x1ACD JUMP JUMPDEST SWAP2 POP PUSH2 0x161D DUP3 PUSH2 0x1EA9 JUMP JUMPDEST PUSH1 0x20 DUP3 ADD SWAP1 POP SWAP2 SWAP1 POP JUMP JUMPDEST PUSH1 0x0 PUSH2 0x1635 PUSH1 0x22 DUP4 PUSH2 0x1ACD JUMP JUMPDEST SWAP2 POP PUSH2 0x1640 DUP3 PUSH2 0x1ED2 JUMP JUMPDEST PUSH1 0x40 DUP3 ADD SWAP1 POP SWAP2 SWAP1 POP JUMP JUMPDEST PUSH1 0x0 PUSH2 0x1658 PUSH1 0x33 DUP4 PUSH2 0x1ACD JUMP JUMPDEST SWAP2 POP PUSH2 0x1663 DUP3 PUSH2 0x1F21 JUMP JUMPDEST PUSH1 0x40 DUP3 ADD SWAP1 POP SWAP2 SWAP1 POP JUMP JUMPDEST PUSH1 0x0 PUSH2 0x167B PUSH1 0x20 DUP4 PUSH2 0x1ACD JUMP JUMPDEST SWAP2 POP PUSH2 0x1686 DUP3 PUSH2 0x1F70 JUMP JUMPDEST PUSH1 0x20 DUP3 ADD SWAP1 POP SWAP2 SWAP1 POP JUMP JUMPDEST PUSH2 0x169A DUP2 PUSH2 0x1B99 JUMP JUMPDEST DUP3 MSTORE POP POP JUMP JUMPDEST PUSH2 0x16A9 DUP2 PUSH2 0x1BA3 JUMP JUMPDEST DUP3 MSTORE POP POP JUMP JUMPDEST PUSH1 0x0 PUSH2 0x16BC DUP3 DUP5 DUP7 PUSH2 0x145E JUMP JUMPDEST SWAP2 POP DUP2 SWAP1 POP SWAP4 SWAP3 POP POP POP JUMP JUMPDEST PUSH1 0x0 PUSH2 0x16D5 DUP3 DUP6 DUP8 PUSH2 0x145E JUMP JUMPDEST SWAP2 POP PUSH2 0x16E1 DUP3 DUP5 PUSH2 0x1412 JUMP JUMPDEST PUSH1 0x14 DUP3 ADD SWAP2 POP DUP2 SWAP1 POP SWAP5 SWAP4 POP POP POP POP JUMP JUMPDEST PUSH1 0x0 PUSH2 0x16FE DUP3 DUP5 PUSH2 0x14BC JUMP JUMPDEST SWAP2 POP DUP2 SWAP1 POP SWAP3 SWAP2 POP POP JUMP JUMPDEST PUSH1 0x0 PUSH2 0x1714 DUP3 PUSH2 0x1579 JUMP JUMPDEST SWAP2 POP PUSH2 0x1720 DUP3 DUP6 PUSH2 0x1447 JUMP JUMPDEST PUSH1 0x20 DUP3 ADD SWAP2 POP PUSH2 0x1730 DUP3 DUP5 PUSH2 0x1447 JUMP JUMPDEST PUSH1 0x20 DUP3 ADD SWAP2 POP DUP2 SWAP1 POP SWAP4 SWAP3 POP POP POP JUMP JUMPDEST PUSH1 0x0 PUSH1 0x20 DUP3 ADD SWAP1 POP PUSH2 0x1755 PUSH1 0x0 DUP4 ADD DUP5 PUSH2 0x1403 JUMP JUMPDEST SWAP3 SWAP2 POP POP JUMP JUMPDEST PUSH1 0x0 PUSH1 0x20 DUP3 ADD SWAP1 POP PUSH2 0x1770 PUSH1 0x0 DUP4 ADD DUP5 PUSH2 0x1429 JUMP JUMPDEST SWAP3 SWAP2 POP POP JUMP JUMPDEST PUSH1 0x0 PUSH1 0x40 DUP3 ADD SWAP1 POP PUSH2 0x178B PUSH1 0x0 DUP4 ADD DUP6 PUSH2 0x1429 JUMP JUMPDEST DUP2 DUP2 SUB PUSH1 0x20 DUP4 ADD MSTORE PUSH2 0x179D DUP2 DUP5 PUSH2 0x1483 JUMP JUMPDEST SWAP1 POP SWAP4 SWAP3 POP POP POP JUMP JUMPDEST PUSH1 0x0 PUSH1 0x20 DUP3 ADD SWAP1 POP PUSH2 0x17BB PUSH1 0x0 DUP4 ADD DUP5 PUSH2 0x1438 JUMP JUMPDEST SWAP3 SWAP2 POP POP JUMP JUMPDEST PUSH1 0x0 PUSH1 0xE0 DUP3 ADD SWAP1 POP PUSH2 0x17D6 PUSH1 0x0 DUP4 ADD DUP11 PUSH2 0x1438 JUMP JUMPDEST PUSH2 0x17E3 PUSH1 0x20 DUP4 ADD DUP10 PUSH2 0x1403 JUMP JUMPDEST PUSH2 0x17F0 PUSH1 0x40 DUP4 ADD DUP9 PUSH2 0x1403 JUMP JUMPDEST PUSH2 0x17FD PUSH1 0x60 DUP4 ADD DUP8 PUSH2 0x1691 JUMP JUMPDEST PUSH2 0x180A PUSH1 0x80 DUP4 ADD DUP7 PUSH2 0x1691 JUMP JUMPDEST PUSH2 0x1817 PUSH1 0xA0 DUP4 ADD DUP6 PUSH2 0x1691 JUMP JUMPDEST PUSH2 0x1824 PUSH1 0xC0 DUP4 ADD DUP5 PUSH2 0x1438 JUMP JUMPDEST SWAP9 SWAP8 POP POP POP POP POP POP POP POP JUMP JUMPDEST PUSH1 0x0 PUSH1 0xA0 DUP3 ADD SWAP1 POP PUSH2 0x1845 PUSH1 0x0 DUP4 ADD DUP9 PUSH2 0x1438 JUMP JUMPDEST PUSH2 0x1852 PUSH1 0x20 DUP4 ADD DUP8 PUSH2 0x1438 JUMP JUMPDEST PUSH2 0x185F PUSH1 0x40 DUP4 ADD DUP7 PUSH2 0x1438 JUMP JUMPDEST PUSH2 0x186C PUSH1 0x60 DUP4 ADD DUP6 PUSH2 0x1691 JUMP JUMPDEST PUSH2 0x1879 PUSH1 0x80 DUP4 ADD DUP5 PUSH2 0x1403 JUMP JUMPDEST SWAP7 SWAP6 POP POP POP POP POP POP JUMP JUMPDEST PUSH1 0x0 PUSH1 0x80 DUP3 ADD SWAP1 POP PUSH2 0x1898 PUSH1 0x0 DUP4 ADD DUP8 PUSH2 0x1438 JUMP JUMPDEST PUSH2 0x18A5 PUSH1 0x20 DUP4 ADD DUP7 PUSH2 0x16A0 JUMP JUMPDEST PUSH2 0x18B2 PUSH1 0x40 DUP4 ADD DUP6 PUSH2 0x1438 JUMP JUMPDEST PUSH2 0x18BF PUSH1 0x60 DUP4 ADD DUP5 PUSH2 0x1438 JUMP JUMPDEST SWAP6 SWAP5 POP POP POP POP POP JUMP JUMPDEST PUSH1 0x0 PUSH1 0x20 DUP3 ADD SWAP1 POP DUP2 DUP2 SUB PUSH1 0x0 DUP4 ADD MSTORE PUSH2 0x18E1 DUP2 PUSH2 0x14ED JUMP JUMPDEST SWAP1 POP SWAP2 SWAP1 POP JUMP JUMPDEST PUSH1 0x0 PUSH1 0x20 DUP3 ADD SWAP1 POP DUP2 DUP2 SUB PUSH1 0x0 DUP4 ADD MSTORE PUSH2 0x1901 DUP2 PUSH2 0x1510 JUMP JUMPDEST SWAP1 POP SWAP2 SWAP1 POP JUMP JUMPDEST PUSH1 0x0 PUSH1 0x20 DUP3 ADD SWAP1 POP DUP2 DUP2 SUB PUSH1 0x0 DUP4 ADD MSTORE PUSH2 0x1921 DUP2 PUSH2 0x1533 JUMP JUMPDEST SWAP1 POP SWAP2 SWAP1 POP JUMP JUMPDEST PUSH1 0x0 PUSH1 0x20 DUP3 ADD SWAP1 POP DUP2 DUP2 SUB PUSH1 0x0 DUP4 ADD MSTORE PUSH2 0x1941 DUP2 PUSH2 0x1556 JUMP JUMPDEST SWAP1 POP SWAP2 SWAP1 POP JUMP JUMPDEST PUSH1 0x0 PUSH1 0x20 DUP3 ADD SWAP1 POP DUP2 DUP2 SUB PUSH1 0x0 DUP4 ADD MSTORE PUSH2 0x1961 DUP2 PUSH2 0x159C JUMP JUMPDEST SWAP1 POP SWAP2 SWAP1 POP JUMP JUMPDEST PUSH1 0x0 PUSH1 0x20 DUP3 ADD SWAP1 POP DUP2 DUP2 SUB PUSH1 0x0 DUP4 ADD MSTORE PUSH2 0x1981 DUP2 PUSH2 0x15BF JUMP JUMPDEST SWAP1 POP SWAP2 SWAP1 POP JUMP JUMPDEST PUSH1 0x0 PUSH1 0x20 DUP3 ADD SWAP1 POP DUP2 DUP2 SUB PUSH1 0x0 DUP4 ADD MSTORE PUSH2 0x19A1 DUP2 PUSH2 0x15E2 JUMP JUMPDEST SWAP1 POP SWAP2 SWAP1 POP JUMP JUMPDEST PUSH1 0x0 PUSH1 0x20 DUP3 ADD SWAP1 POP DUP2 DUP2 SUB PUSH1 0x0 DUP4 ADD MSTORE PUSH2 0x19C1 DUP2 PUSH2 0x1605 JUMP JUMPDEST SWAP1 POP SWAP2 SWAP1 POP JUMP JUMPDEST PUSH1 0x0 PUSH1 0x20 DUP3 ADD SWAP1 POP DUP2 DUP2 SUB PUSH1 0x0 DUP4 ADD MSTORE PUSH2 0x19E1 DUP2 PUSH2 0x1628 JUMP JUMPDEST SWAP1 POP SWAP2 SWAP1 POP JUMP JUMPDEST PUSH1 0x0 PUSH1 0x20 DUP3 ADD SWAP1 POP DUP2 DUP2 SUB PUSH1 0x0 DUP4 ADD MSTORE PUSH2 0x1A01 DUP2 PUSH2 0x164B JUMP JUMPDEST SWAP1 POP SWAP2 SWAP1 POP JUMP JUMPDEST PUSH1 0x0 PUSH1 0x20 DUP3 ADD SWAP1 POP DUP2 DUP2 SUB PUSH1 0x0 DUP4 ADD MSTORE PUSH2 0x1A21 DUP2 PUSH2 0x166E JUMP JUMPDEST SWAP1 POP SWAP2 SWAP1 POP JUMP JUMPDEST PUSH1 0x0 PUSH1 0x20 DUP3 ADD SWAP1 POP PUSH2 0x1A3D PUSH1 0x0 DUP4 ADD DUP5 PUSH2 0x1691 JUMP JUMPDEST SWAP3 SWAP2 POP POP JUMP JUMPDEST PUSH1 0x0 DUP1 DUP4 CALLDATALOAD PUSH1 0x1 PUSH1 0x20 SUB DUP5 CALLDATASIZE SUB SUB DUP2 SLT PUSH2 0x1A60 JUMPI PUSH2 0x1A5F PUSH2 0x1C92 JUMP JUMPDEST JUMPDEST DUP1 DUP5 ADD SWAP3 POP DUP3 CALLDATALOAD SWAP2 POP PUSH8 0xFFFFFFFFFFFFFFFF DUP3 GT ISZERO PUSH2 0x1A82 JUMPI PUSH2 0x1A81 PUSH2 0x1C88 JUMP JUMPDEST JUMPDEST PUSH1 0x20 DUP4 ADD SWAP3 POP PUSH1 0x1 DUP3 MUL CALLDATASIZE SUB DUP4 SGT ISZERO PUSH2 0x1A9E JUMPI PUSH2 0x1A9D PUSH2 0x1C9C JUMP JUMPDEST JUMPDEST POP SWAP3 POP SWAP3 SWAP1 POP JUMP JUMPDEST PUSH1 0x0 DUP2 MLOAD SWAP1 POP SWAP2 SWAP1 POP JUMP JUMPDEST PUSH1 0x0 DUP3 DUP3 MSTORE PUSH1 0x20 DUP3 ADD SWAP1 POP SWAP3 SWAP2 POP POP JUMP JUMPDEST PUSH1 0x0 DUP2 SWAP1 POP SWAP3 SWAP2 POP POP JUMP JUMPDEST PUSH1 0x0 DUP3 DUP3 MSTORE PUSH1 0x20 DUP3 ADD SWAP1 POP SWAP3 SWAP2 POP POP JUMP JUMPDEST PUSH1 0x0 DUP2 SWAP1 POP SWAP3 SWAP2 POP POP JUMP JUMPDEST PUSH1 0x0 PUSH2 0x1AF4 DUP3 PUSH2 0x1B99 JUMP JUMPDEST SWAP2 POP PUSH2 0x1AFF DUP4 PUSH2 0x1B99 JUMP JUMPDEST SWAP3 POP DUP3 PUSH32 0xFFFFFFFFFFFFFFFFFFFFFFFFFFFFFFFFFFFFFFFFFFFFFFFFFFFFFFFFFFFFFFFF SUB DUP3 GT ISZERO PUSH2 0x1B34 JUMPI PUSH2 0x1B33 PUSH2 0x1C20 JUMP JUMPDEST JUMPDEST DUP3 DUP3 ADD SWAP1 POP SWAP3 SWAP2 POP POP JUMP JUMPDEST PUSH1 0x0 PUSH2 0x1B4A DUP3 PUSH2 0x1B79 JUMP JUMPDEST SWAP1 POP SWAP2 SWAP1 POP JUMP JUMPDEST PUSH1 0x0 PUSH2 0x1B5C DUP3 PUSH2 0x1B79 JUMP JUMPDEST SWAP1 POP SWAP2 SWAP1 POP JUMP JUMPDEST PUSH1 0x0 DUP2 ISZERO ISZERO SWAP1 POP SWAP2 SWAP1 POP JUMP JUMPDEST PUSH1 0x0 DUP2 SWAP1 POP SWAP2 SWAP1 POP JUMP JUMPDEST PUSH1 0x0 PUSH20 0xFFFFFFFFFFFFFFFFFFFFFFFFFFFFFFFFFFFFFFFF DUP3 AND SWAP1 POP SWAP2 SWAP1 POP JUMP JUMPDEST PUSH1 0x0 DUP2 SWAP1 POP SWAP2 SWAP1 POP JUMP JUMPDEST PUSH1 0x0 PUSH1 0xFF DUP3 AND SWAP1 POP SWAP2 SWAP1 POP JUMP JUMPDEST DUP3 DUP2 DUP4 CALLDATACOPY PUSH1 0x0 DUP4 DUP4 ADD MSTORE POP POP POP JUMP JUMPDEST PUSH1 0x0 JUMPDEST DUP4 DUP2 LT ISZERO PUSH2 0x1BDD JUMPI DUP1 DUP3 ADD MLOAD DUP2 DUP5 ADD MSTORE PUSH1 0x20 DUP2 ADD SWAP1 POP PUSH2 0x1BC2 JUMP JUMPDEST DUP4 DUP2 GT ISZERO PUSH2 0x1BEC JUMPI PUSH1 0x0 DUP5 DUP5 ADD MSTORE JUMPDEST POP POP POP POP JUMP JUMPDEST PUSH1 0x0 PUSH2 0x1BFD DUP3 PUSH2 0x1C0E JUMP JUMPDEST SWAP1 POP SWAP2 SWAP1 POP JUMP JUMPDEST PUSH1 0x0 DUP2 SWAP1 POP SWAP2 SWAP1 POP JUMP JUMPDEST PUSH1 0x0 PUSH2 0x1C19 DUP3 PUSH2 0x1CBC JUMP JUMPDEST SWAP1 POP SWAP2 SWAP1 POP JUMP JUMPDEST PUSH32 0x4E487B7100000000000000000000000000000000000000000000000000000000 PUSH1 0x0 MSTORE PUSH1 0x11 PUSH1 0x4 MSTORE PUSH1 0x24 PUSH1 0x0 REVERT JUMPDEST PUSH32 0x4E487B7100000000000000000000000000000000000000000000000000000000 PUSH1 0x0 MSTORE PUSH1 0x21 PUSH1 0x4 MSTORE PUSH1 0x24 PUSH1 0x0 REVERT JUMPDEST PUSH1 0x0 DUP1 REVERT JUMPDEST PUSH1 0x0 DUP1 REVERT JUMPDEST PUSH1 0x0 DUP1 REVERT JUMPDEST PUSH1 0x0 DUP1 REVERT JUMPDEST PUSH1 0x0 DUP1 REVERT JUMPDEST PUSH1 0x0 DUP1 REVERT JUMPDEST PUSH1 0x0 DUP1 REVERT JUMPDEST PUSH1 0x0 DUP1 REVERT JUMPDEST PUSH1 0x0 DUP1 REVERT JUMPDEST PUSH1 0x0 PUSH1 0x1F NOT PUSH1 0x1F DUP4 ADD AND SWAP1 POP SWAP2 SWAP1 POP JUMP JUMPDEST PUSH1 0x0 DUP2 PUSH1 0x60 SHL SWAP1 POP SWAP2 SWAP1 POP JUMP JUMPDEST PUSH32 0x45434453413A20696E76616C6964207369676E61747572650000000000000000 PUSH1 0x0 DUP3 ADD MSTORE POP JUMP JUMPDEST PUSH32 0x5061757361626C653A206E6F7420706175736564000000000000000000000000 PUSH1 0x0 DUP3 ADD MSTORE POP JUMP JUMPDEST PUSH32 0x45434453413A20696E76616C6964207369676E6174757265206C656E67746800 PUSH1 0x0 DUP3 ADD MSTORE POP JUMP JUMPDEST PUSH32 0x4F776E61626C653A206E6577206F776E657220697320746865207A65726F2061 PUSH1 0x0 DUP3 ADD MSTORE PUSH32 0x6464726573730000000000000000000000000000000000000000000000000000 PUSH1 0x20 DUP3 ADD MSTORE POP JUMP JUMPDEST PUSH32 0x1901000000000000000000000000000000000000000000000000000000000000 PUSH1 0x0 DUP3 ADD MSTORE POP JUMP JUMPDEST PUSH32 0x41776C466F727761726465723A2073656E646572206F66206D6574612D747261 PUSH1 0x0 DUP3 ADD MSTORE PUSH32 0x6E73616374696F6E206973206E6F742077686974656C69737465640000000000 PUSH1 0x20 DUP3 ADD MSTORE POP JUMP JUMPDEST PUSH32 0x45434453413A20696E76616C6964207369676E6174757265202773272076616C PUSH1 0x0 DUP3 ADD MSTORE PUSH32 0x7565000000000000000000000000000000000000000000000000000000000000 PUSH1 0x20 DUP3 ADD MSTORE POP JUMP JUMPDEST PUSH32 0x41776C466F727761726465723A207369676E617475726520646F6573206E6F74 PUSH1 0x0 DUP3 ADD MSTORE PUSH32 0x206D617463682072657175657374000000000000000000000000000000000000 PUSH1 0x20 DUP3 ADD MSTORE POP JUMP JUMPDEST PUSH32 0x5061757361626C653A2070617573656400000000000000000000000000000000 PUSH1 0x0 DUP3 ADD MSTORE POP JUMP JUMPDEST PUSH32 0x45434453413A20696E76616C6964207369676E6174757265202776272076616C PUSH1 0x0 DUP3 ADD MSTORE PUSH32 0x7565000000000000000000000000000000000000000000000000000000000000 PUSH1 0x20 DUP3 ADD MSTORE POP JUMP JUMPDEST PUSH32 0x41776C466F727761726465723A2073656E646572206164647265737320697320 PUSH1 0x0 DUP3 ADD MSTORE PUSH32 0x616C72656164792077686974656C697374656400000000000000000000000000 PUSH1 0x20 DUP3 ADD MSTORE POP JUMP JUMPDEST PUSH32 0x4F776E61626C653A2063616C6C6572206973206E6F7420746865206F776E6572 PUSH1 0x0 DUP3 ADD MSTORE POP JUMP JUMPDEST PUSH2 0x1FA2 DUP2 PUSH2 0x1B3F JUMP JUMPDEST DUP2 EQ PUSH2 0x1FAD JUMPI PUSH1 0x0 DUP1 REVERT JUMPDEST POP JUMP JUMPDEST PUSH2 0x1FB9 DUP2 PUSH2 0x1B51 JUMP JUMPDEST DUP2 EQ PUSH2 0x1FC4 JUMPI PUSH1 0x0 DUP1 REVERT JUMPDEST POP JUMP INVALID LOG2 PUSH5 0x6970667358 0x22 SLT KECCAK256 BASEFEE ADDRESS 0xD6 SWAP5 DUP5 SWAP12 0x2D CALLCODE CREATE PUSH7 0x69731C9DB890B5 MOD 0xAF GAS 0xC1 ADD CHAINID 0x26 SWAP14 SWAP14 PUSH6 0x9A4824E35164 PUSH20 0x6F6C634300080700330000000000000000000000 "
				},
				"gasEstimates": {
					"creation": {
						"codeDepositCost": "1637800",
						"executionCost": "infinite",
						"totalCost": "infinite"
					},
					"external": {
						"DOMAIN_SEPARATOR()": "infinite",
						"addSenderToWhitelist(address)": "30593",
						"execute((address,address,uint256,uint256,uint256,bytes),bytes)": "infinite",
						"getNonce(address)": "2909",
						"isWhitelisted(address)": "2928",
						"killForwarder(address)": "infinite",
						"owner()": "2566",
						"pause()": "infinite",
						"paused()": "2574",
						"removeSenderFromWhitelist(address)": "28261",
						"renounceOwnership()": "30465",
						"transferOwnership(address)": "30835",
						"unpause()": "infinite",
						"verify((address,address,uint256,uint256,uint256,bytes),bytes)": "infinite"
					}
				},
				"methodIdentifiers": {
					"DOMAIN_SEPARATOR()": "3644e515",
					"addSenderToWhitelist(address)": "3f113a61",
					"execute((address,address,uint256,uint256,uint256,bytes),bytes)": "47153f82",
					"getNonce(address)": "2d0335ab",
					"isWhitelisted(address)": "3af32abf",
					"killForwarder(address)": "2978cb40",
					"owner()": "8da5cb5b",
					"pause()": "8456cb59",
					"paused()": "5c975abb",
					"removeSenderFromWhitelist(address)": "01a9a352",
					"renounceOwnership()": "715018a6",
					"transferOwnership(address)": "f2fde38b",
					"unpause()": "3f4ba83a",
					"verify((address,address,uint256,uint256,uint256,bytes),bytes)": "bf5d3bdb"
				}
			},
			"storageLayout": {
				"storage": [
					{
						"astId": 7,
						"contract": "backend/ABI/Forwarder.sol:Forwarder",
						"label": "_owner",
						"offset": 0,
						"slot": "0",
						"type": "t_address"
					},
					{
						"astId": 130,
						"contract": "backend/ABI/Forwarder.sol:Forwarder",
						"label": "_paused",
						"offset": 20,
						"slot": "0",
						"type": "t_bool"
					},
					{
						"astId": 1146,
						"contract": "backend/ABI/Forwarder.sol:Forwarder",
						"label": "_nonces",
						"offset": 0,
						"slot": "1",
						"type": "t_mapping(t_address,t_uint256)"
					},
					{
						"astId": 1150,
						"contract": "backend/ABI/Forwarder.sol:Forwarder",
						"label": "_senderWhitelist",
						"offset": 0,
						"slot": "2",
						"type": "t_mapping(t_address,t_bool)"
					}
				],
				"types": {
					"t_address": {
						"encoding": "inplace",
						"label": "address",
						"numberOfBytes": "20"
					},
					"t_bool": {
						"encoding": "inplace",
						"label": "bool",
						"numberOfBytes": "1"
					},
					"t_mapping(t_address,t_bool)": {
						"encoding": "mapping",
						"key": "t_address",
						"label": "mapping(address => bool)",
						"numberOfBytes": "32",
						"value": "t_bool"
					},
					"t_mapping(t_address,t_uint256)": {
						"encoding": "mapping",
						"key": "t_address",
						"label": "mapping(address => uint256)",
						"numberOfBytes": "32",
						"value": "t_uint256"
					},
					"t_uint256": {
						"encoding": "inplace",
						"label": "uint256",
						"numberOfBytes": "32"
					}
				}
			},
			"userdoc": {
				"kind": "user",
				"methods": {},
				"version": 1
			}
		}
	}
}